:020000040000FA
:06000000020A380201C2F1
:03002B0002088345
:0300330002069F23
:0300430002073879
:030053000200F3B5
:03006B0002068505
:100083000201570101FF01010503010F10FEFFB03B
:1000930012B012B012B0126C116611B012CD36004C
:1000A3000000000936000000000C0000000C0001F5
:1000B300FFFF536D61727420486F6D65000102008C
:1000C3004B05000000BE05640002020000000205AB
:1000D3000207051E02051E020A0A03B80B02803E30
:1000E30001023412141F00E00796511800020206A1
:1000F300C0E074F21203DBA2AFE433FED2AFE5A794
:10010300FFE5A1F5085F54106006121A6675A1EFAA
:10011300E5085F54086008121A6C75A1F7802BEF8D
:10012300A2E0C0D0E508A2E092F012095F15818237
:10013300F05017906198E0F8900A9CE0C398A2D21F
:1001430065D0335002E8F075A1FEEEA2E092AF7FD6
:100153000102043AC0E074F21203DBA2AFE433FEFF
:10016300D2AF9061A4E0F8759B00E5915854086004
:10017300087591F7121AB4802AE591585410600853
:100183007591EF121ABA801BE8A2E0C0D0E591A2E4
:10019300E092F012095F158182F05007E0C2E0F0AF
:1001A300121BFE9061A3E0F8E5E9585404600E12B7
:1001B3001BD475E9FB906193E0A2E640F2808BC00B
:1001C300E074F21203DBA2AFE433FED2AF9061A579
:1001D300E0F8E5BF585404600675BFFB121C160215
:1001E300014DC3E498F8E499F91202268026C3E48A
:1001F3009AFAE49BFBE920E7E9120226E498F8E483
:1002030099F922C3E498F8E499F9120226E498F8DC
:10021300E499F9C3E49AFAE49BFB22EB20E7CFE9E4
:1002230020E7E0B90010BB0008E88AF084F8AAF0E0
:1002330022E4FBC8FA22EB70227B10C833C8C9330F
:10024300C9335007C39AC3DBF280069A50012ADBF5
:10025300EAC833F4C8C933F4C9FA2275F008E4C80C
:1002630033C8C933C933C99AC99B5004C92AC93B86
:10027300D5F0ECFBC833F4C8E4C9FA22080808EA4D
:10028300C0E0EBC0E086F0E7A4FA180986F0E7A423
:100293002AFA180986F0E7A42AFA180986F0E7A4CF
:1002A3002AFA1986F0E7A4FBE5F02AFA190886F082
:1002B300E7A42BFBE5F03AFA190886F0E7A42BFB39
:1002C300E5F03AFA18180986F0E7A4C5F02BFBE429
:1002D3003AFA1908E7C5F0C6A426F6E5F03BFBE4B5
:1002E3003AFA1886F0E7A4F6E5F00826F6E43B08A8
:1002F300F6E43A08F6D0E0FBD0E0FA22E4CFC0E01F
:10030300E4CEC0E0E4CDC0E0E4CCC0E075F020C3AF
:10031300E633F608E633F608E633F608E633F6186E
:100323001818EC33FCED33FDEE33FEEF33FFC3EC73
:100333009709ED9709EE9709EF97191919400FFFE0
:10034300EC97FC09ED97FD09EE97FE191906D5F018
:10035300BEECF709EDF709EEF709EFF7191919D014
:10036300E0FCD0E0FDD0E0FED0E0FF222518C582FE
:10037300C0E0E51934FFC583C0E0E518C3958224C6
:10038300F810AF088583198582188008858319853D
:100393008218D2AFCEF0A3E520F0A37808E608F0E8
:1003A300A3DEFAEFF0A3E58124FAF8E608F0A3E66A
:1003B30008F0A3E608F0A30808E608F0A3E608F0AF
:1003C300A315811581D0E0FED0E0F81581158115C4
:1003D30081E8C0E0EEC0E022C0D02518C582C0E0AD
:1003E300E51934FFC583C0E0E518C3958224F310F3
:1003F300AF0885831985821880088583198582183B
:10040300D2AFC8F0A3E9F0A3EAF0A3EBF0A3790815
:10041300E709F0A3D8FAECF0A3EDF0A3EEF0A3EF15
:10042300F0A3D0E0F0A3D0E0F0A3D0E0F0A3E52068
:10043300F0A3E5F0F0A322851983851882E0C0E0DC
:10044300A3E0F9A3E0FAA3E0FBA37808E0F608A38E
:10045300DFFAE0FCA3E0FDA3E0FEA3E0FFA3E0C01E
:10046300E0A3E0C0E0A3E0F5D0A3E0F520A3E0A380
:10047300F5F010AF088583198582188008858319E4
:10048300858218D2AFD082D083D0E0F8D0E0321288
:100493000A9AB900030204D4E49003017863790E45
:1004A3008002F0A3D8FCD9FA901063AA82AB8390A0
:1004B3000086786E79018015E493A3AC82AD838ABC
:1004C300828B83F0A3AA82AB838C828D83D8E9D9F4
:1004D300E775829D7583F174031207FB7582AA7514
:1004E300831E74001207FB0E0075F0108E1A8F1B0B
:1004F30085821F85831E851882851983E0CEA3E03C
:10050300CF851F82851E83EBC9EAC8EDCBECCAC336
:10051300E833C8E933C9EA33CAEB33CBC3EA9EF500
:100523001DEB9FF51CB35004AB1CAA1DEC33CCEDA3
:1005330033CDD5F0DAAE1AAF1B22D083D082ECC014
:10054300E0EDC0E0E493A3FCE493A3FDED4C600D68
:10055300120615EC24FFFCED34FFFD80EFE493A3BA
:10056300FCE493A3FDED4C600D1206E3EC24FFFCC9
:10057300ED34FFFD80EFD0E0FDD0E0FCE493A3C0B9
:10058300E0E493C0E022851983851882E0A3FEE0AE
:10059300A3F5207808E0A3F608DFFAE0A3FFE0A3C1
:1005A300C0E0E0A3C0E0E0A3C0E0E0A3C0E0E0A3BC
:1005B300C0E010AF088582188583198008858218EA
:1005C300858319D2AFD083D082020801D083D08231
:1005D300E9C0E0E493A3C386F0C5F095F0F908E41D
:1005E30093A386F0C5F095F0700BE493A3C39940F1
:1005F30005E9048002A3E475F002A42582F582E5EF
:10060300F03583F583D0E0F9E493A3C0E0E493C02D
:10061300E022C0E0C3E49396087401939618400F58
:10062300E49366700808740193661870007019A348
:10063300A3C3E49396087401939618A3A3400DD023
:10064300E0D0E0D0E0020579A3A3A3A3A3A3D0E065
:10065300227404800474028000CCC0E0EDC0E0E5A5
:1006630018C39CCCAD1950011D10AF068C188D1901
:1006730080068C188D19D2AF12077DD0E0FDD0E033
:10068300FC22C0E074F21203DBE589A2E1500312FD
:10069300190A758900C2C57F0102043AC0E074F2E9
:1006A3001203DBE58BA2E0500312190A758B00C21B
:1006B300E880E474028000CCC0E0EDC0E0E518C33C
:1006C3009CCCAD1950011D10AF068C188D198006F6
:1006D3008C188D19D2AF12075BD0E0FDD0E0FC225D
:1006E300C0E0C0F088F0E493667008087401936674
:1006F300187000A8F0A3A3700BD0F0D0E0D0E0D026
:10070300E0020579A3A3D0F0D0E022D083D082CC3D
:10071300C0E0E493A360061207BD1470FAE493A348
:1007230060061208CD1470FAD0E0FCE493A3C0E095
:10073300E493C0E022C0E074F21203DBA2AFE4331F
:10074300FED2AFC2C0E5D1A2E450031219DCEEA27F
:10075300E092AF7F0102043ACAC0E0E493A3C582EA
:10076300CCC582C583CDC583F0A3C582CCC582C564
:1007730083CDC583DAE5D0E0CA22CAC0E0E0A3C5D1
:1007830082CCC582C583CDC583F0A3C582CCC58287
:10079300C583CDC583DAE6D0E0CA2270090808080C
:1007A300226016181818C6C333C608C633C608C64F
:1007B30033C608C633C6D5E0EA22C0E0E493A3D328
:1007C3009C5010E493A3C39C400AD0E0D0E0D0E057
:1007D30002072BA3A3A3D0E022C008C3E096F50829
:1007E30008A3E096420808A3E096420808A3E0960F
:1007F30045087001D3D00822C09FF59FE473D09FB2
:1008030022D083D082C09FE493C0E0740193C0E000
:10081300740293F59F222518F58210AF08F518404E
:100823000215198008F51840021519D2AF851983EE
:10083300227404800A74038006740280027401C067
:10084300E0F404120819D0E0120A7522C0D025186A
:1008530010AF08F518500205198008F51850020565
:1008630019D2AFD0D022BB0102E722C082C0838954
:10087300828A83BB0003E08002E493D083D0822288
:10088300C0E0C0D0E8C0E0E5A8D2AFC2C7A2E792FB
:10089300AFD0E0F8D0D0D0E0326016080808C6C365
:1008A30013C618C613C618C613C618C613C6D5E092
:1008B300EA22C3E0C696F608A3E0C696F608A3E0CC
:1008C300C696F608A3E0C696F622C0E0E493A36CAE
:1008D3007009D0E0D0E0D0E002072BA3A3D0E02240
:1008E300251810AF08F518400215198008F51840AF
:1008F300021519D2AF22E76670100809E766700A7D
:100903000809E76670040809E76622E066701008C4
:10091300A3E066700A08A3E066700408A3E06622F9
:10092300C3E09608A3E09608A3E09608A3E096A286
:10093300D265D03322C3E096F008A3E096F008A373
:10094300E096F008A3E096F022E026F008A3E03654
:10095300F008A3E036F008A3E036F022C0E0E8C0D8
:10096300E0E58124FCF8E6A2E7D0E0F8D0E022E657
:1009730047F60809E647F60809E647F60809E64791
:10098300F622E026F608A3E036F608A3E036F608DA
:10099300A3E036F622E627F60809E637F60809E665
:1009A30037F60809E637F622E657F60809E657F65A
:1009B3000809E657F60809E657F622E056F608A3B3
:1009C300E056F608A3E056F608A3E056F622E056F2
:1009D300F008A3E056F008A3E056F008A3E056F0B1
:1009E30022700422600D18C6C333C608C633C6D5A9
:1009F300E0F41822E4C396F608E496F608E496F6C3
:100A030008E496F622C6F4C608C6F4C608C6F4C6B9
:100A130008C6F4C622C3E7960809E7960809E796CD
:100A23000809E79622C3E09608A3E09608A3E09698
:100A330008A3E0962275D0007581407518017519D9
:100A43000300020492E0F608A3E0F608A3E0F60828
:100A5300A3E0F622600C08C6C313C618C613C6D596
:100A6300E0F422E6F008A3E6F008A3E6F008A3E624
:100A7300F022CAC0E0E6F0A308DAFAD0E0FA22E0F6
:100A8300FAA3E0FBA3E0FCA3E0FD22EAF0A3EBF072
:100A9300A3ECF0A3EDF022E5C754F84401F5C779C0
:100AA30001222518F582E43519F58322C2AF75D6E4
:100AB3009F02000022120804EFE20212080423E45A
:100AC3000212080441E4021208040C39001208045B
:100AD3001E3900120804703900120804D1390012BB
:100AE30008045B3A00120804FF3A00120804533B5F
:100AF300001208046C3B00120804923B0012080425
:100B0300CD3B00120804113C00120804383C0012CB
:100B13000804893C00120804393D00120804F13D21
:100B230000120804B93E00120804793F00120804B9
:100B3300BD3F00120804E23F0012080425400012E2
:100B43000804724000120804CA410012080450420B
:100B5300001208046E4200120804984200120804AE
:100B6300B24200120804C14200120804CC4200122F
:100B730008048C4300120804E54300120804A74448
:100B830000120804AF44001208047345001208045D
:100B9300DF45001208040A47001208042F47001219
:100BA3000804A54700120804374800120804F74850
:100BB30000120804164900120804254A001208040A
:100BC300374A00120804A74A00120804D14A001247
:100BD30008045F4B00120804984B00120804E44B0E
:100BE30000120804004D00120804494F00120804C3
:100BF300544F001208045F4F001208046A4F00129A
:100C03000804744F001208047F4F00120804994F20
:100C130000120804A34F00120804AD4F0012080489
:100C2300B84F00120804E04F001208043B500012B2
:100C330008044550001208046950001208048D503E
:100C430000120804EB50001208042F51001208048C
:100C53004B5100120804C25100120804FA51001249
:100C63000804465200120804A352001208045D53FC
:100C7300001208044155001208049A550012080492
:100C8300CA5600120804F0560012080479580012DC
:100C93000804F55B00120804C75D00120804905FA6
:100CA300001208043D6000120804A8610012080441
:100CB3004762001208048C6200120804F6620012F4
:100CC30008040563001208048C65001208043E67DB
:100CD30000120804AB67001208048A6800120804B3
:100CE300A36900120804206B001208043F6B001272
:100CF3000804946B00120804996C00120804C16C78
:100D030000120804196D00120804F86D001208049B
:100D13003C6E00120804876E00120804F26E001283
:100D23000804337000120804977000120804E57178
:100D330000120804457400120804767400120804B3
:100D43002E760012080483760012080487770012B7
:100D530008042478001208047D780012080430790E
:100D630000120804D27900120804727A00120804EF
:100D7300177B001208048D8101120804CC81011233
:100D830008041384011208045D84011208047885A1
:100D930001120804E08501120804158601120804F3
:100DA3008987011208040C8A01120804358B011289
:100DB3000804CB8B01120804D3940112080468952C
:100DC300011208044F980112080442990112080401
:100DD300B09901120804F69A01120804D89B011273
:100DE3000804BD9D01120804CE9F0112080438A017
:100DF300011208040AA10112080438A1011208040F
:100E0300F5A101120804CCA20112080493A3011254
:100E1300080437A40112080460A40112080482A480
:100E230001120804D8A601120804B0A7011208048D
:100E3300F4A7011208045CA80112080414A9011202
:100E4300080446A9011208048AA901120804C0A9CA
:100E5300011208040CAA0112080461AA0112080471
:100E630066AA01120804B9AA01120804DEAA011233
:100E73000804EDAB0112080451AC01120804C1AC23
:100E8300011208044DAD011208041AB0011208043E
:100E9300FEB00112080481B201120804B7B40112B2
:100EA300080465B50112080415B60112080456B802
:100EB30001120804F9B80112080440B90112080428
:100EC300ECBA0112080400BB011208040ABB0112A8
:100ED300080432BB011208043EBB011208045DBBC7
:100EE300011208047DBD01120804CCBE01120804DE
:100EF30010BF01120804B8BF011208049BC00112FD
:100F0300080446C10112080492C20112080490C3E6
:100F13000112080436C401120804C6C401120804ED
:100F2300DDC40112080414C5011208041EC5011210
:100F3300080429C50112080447C5011208048BC51A
:100F430001120804E8C5011208040DC601120804C1
:100F530027C601120804B3C601120804D0C7011240
:100F630008043DC80112080424C9011208044BC92E
:100F730001120804BFC9011208043ACA0112080485
:100F83003ECB0112080434CC01120804E3CC011255
:100F93000804F6CD0112080492CE011208041FCFF3
:100FA30001120804FDCF0112080435D00112080410
:100FB3008DD00112080456D10112080477D1011211
:100FC3000804FED10112080422D20112080444D2FB
:100FD300011208048DD201120804A3D401120804DB
:100FE3008AD5011208043BD60112080471D80112F4
:100FF3000804C1D80112080401D90112080443D915
:10100300011208049FD901120804CDD90112080462
:10101300F1D90112080444DA0112080472DA011248
:101023000804ABDA0112080400DB0112080466DBD2
:1010330001120804BADC01120804DDDE01120804FF
:101043004ADF0112080473DF01120804FEDF0112F4
:10105300080465E001120804B0E001120804D4E0BA
:1010630001120804F8E00112080453E10112080414
:101073006EE10112080427E201120804618C0412D4
:101083000804A08C04120804788002120804BE80AD
:10109300021208049E8102120804A08202120804AC
:1010A300A383021208042F85021208048D850212FD
:1010B30008044A8602120804688702120804D987C2
:1010C3000212080415880212080463880212080435
:1010D3006D8802120804B188021208040D890212F5
:1010E3000804A88902120804258A02120804F48A53
:1010F300021208048D8B02120804AD8B021208043D
:10110300E38B02120804148C02120804D58C021219
:101113000804E58C02120804398D02120804548D68
:1011230002120804668D021208046F8D021208046D
:10113300C98D02120804258E02120804718E021250
:1011430008048C8E02120804BD8E02120804DA8E83
:1011530002120804E68E021208045A9002120804CE
:10116300739002120804DA9002120804ED9002123E
:101173000804FB9002120804AF9102120804939230
:101183000212080499930212080423940212080419
:101193002D94021208049A9402120804B1940212C4
:1011A3000804E394021208041C95021208044695ED
:1011B30002120804A79502120804C7950212080434
:1011C300E595021208042B960212080451970212A5
:1011D30008049E9702120804CD970212080443984C
:1011E300021208046B9802120804A498021208045D
:1011F300B298021208040A990212080459990212B9
:101203000804989902120804C89902120804F49970
:1012130002120804FF99021208041D9A021208041C
:10122300DF9A02120804E99A021208042A9B0212A6
:1012330008047F9B02120804939B02120804A19CDA
:1012430002120804B49C02120804C99C0212080486
:101253006B9D02120804EE9D02120804AC9E02125A
:101263000804B79E02120804E39F02120804FF9FBA
:101273000212080451A00212080490A002120804EA
:10128300A5A00212080407A10212080496A10212E3
:101293000804E1A10212080432A402120804B0A453
:1012A3000212080425A50212080447A70212080423
:1012B3005FA70212080462A7021208046EA70212B3
:1012C300080482A7021208048AA702120804BDA711
:1012D300021208046DA802120804E3A8021208040B
:1012E30056A9021208040AAA02120804BFAA02128B
:1012F3000804DEAA0212080484AB02120804AFAB8E
:1013030002120804B2AB021208041CAC0212080455
:1013130044AD021208041CAE02120804A7AE021266
:101323000804C0AF021208047DB002120804B6B06C
:1013330002120804E7B002120804A5B1021208045D
:10134300D5B102120804B0B20212080449B3021262
:101353000804D4B30212080485B40212080408B5C1
:10136300021208043AB5021208047BB502120804FB
:1013730067A703120804CCA70312080409A80312E1
:10138300080458A8031208046EAA0312080451ACF7
:1013930003120804BBAF03120804F6AF03120804D8
:1013A30018B0031208047BB003120804AFB0031291
:1013B3000804D2B003120804FFB0031208045BB19F
:1013C30003120804A29B03120804209C03120804BE
:1013D300569C03120804C29C03120804359E031290
:1013E3000804519E03120804969E03120804249FC6
:1013F300031208047D9F03120804AAA00312080421
:1014030082D60212080419A20312080485A2031249
:101413000804E6A20312080427A303120804D4A3B2
:1014230003120804E6A40312080411A50312080416
:101433005CA503120804A3A50312080435A603122E
:101443000804F0A603120804F5FF01120804DBEEFA
:101453000312080456EF031208044CE202120804B4
:1014630082EF03120804A7B103120804B1B10312F7
:101473000804FDB1031208046BB2031208048CB212
:10148300031208043CB303120804D0B50312080482
:10149300D9B5031208042CB60312080455B6031277
:1014A3000804BCB6031208044DB7031208048FB72F
:1014B30003120804D9B70312080438B80312080446
:1014C30064B803120804F5B80312080434B903120C
:1014D300080473B903120804A8B903120804BAB9BB
:1014E30003120804CCB903120804EBB9031208046D
:1014F300F4B903120804AABA03120804EABA0312DD
:101503000804177F00120804A4FB03120804DAFB83
:101513000312080423FC0312080473FD03120804D6
:1015230068E402120804A7E502120804E3E50212C4
:101533000804A2E702120804CBE7021208045EEAD9
:1015430002120804A2EA021208042BEC0212080495
:10155300C3EC021208042BED02120804CCED0212B4
:1015630008040EEE021208044EEE02120804D9EF2C
:101573000212080449F1021208046EF3021208046D
:101583009CF302120804C3F302120804CCF3021200
:10159300080453F40212080471F702120804908D30
:1015A30004120804A68D04120804168C04120804FD
:1015B30076EB0312080489EB0312080426EC0312EA
:1015C300080461EC031208047CEC03120804A1EC88
:1015D30003120804E6EC0312080417ED03120804CF
:1015E30048ED03120804CEEE03120804F384041238
:1015F3000804298504120804458504120804878514
:10160300041208049785041208042C8604120804A3
:101613003686041208045BFC01120804F1FC011273
:10162300080471FD011208047B8E03120804D08E96
:1016330003120804B98F031208045290031208041A
:101643009C9003120804F990031208040D910312ED
:1016530008043F91031208043D9203120804819287
:10166300031208049C9203120804EB920312080469
:101673000193031208040E93031208044293031206
:1016830008045B93031208042594031208047F944F
:1016930003120804CD9403120804EF940312080400
:1016A3006697031208049B97031208042B980312EE
:1016B3000804A09803120804A59803120804E198EB
:1016C30003120804379903120804FB990312080450
:1016D300209A031208042A9A031208042D9A03126B
:1016E3000804B69A03120804D19A03120804E49A70
:1016F300031208041F9B03120804229B031208040D
:101703002D9B03120804699B03120804C98B04125E
:101713000804E18B04120804F2F70212080441F8EA
:1017230002120804E3F902120804A1FB02120804DE
:10173300E9FB021208040BFD021208043CFE02122C
:1017430008045EFE02120804BAFE021208043CFFFB
:101753000212080461E20112080482E20112080481
:101763000CE30112080491E3011208040DE40112D1
:10177300080476E401120804C2E40112080441E5F6
:1017830001120804D3E5011208045FE601120804FC
:10179300A1E6011208040DEB011208048DEC0112FD
:1017A300080463ED0112080492ED011208047DEFB1
:1017B30001120804FDF101120804B6F20112080433
:1017C300D3F3011208042AF7011208043AF70112AD
:1017D30008049BF80112080427F90112080450FABF
:1017E3000112080441FB01120804C3FB011208049F
:1017F300008003120804BA80031208042C81031228
:101803000804C88103120804388203120804F1840F
:1018130003120804C885031208043586031208045A
:10182300B287031208047C8803120804EC880312AD
:101833000804B58A03120804C88B03120804618CD8
:1018430003120804278D03120804D2E003120804CC
:1018530026E1031208047EE103120804C9E103121E
:1018630008042BE20312080497E2031208044AE374
:10187300031208048BE303120804A1E30312080410
:10188300FDE3031208043BE403120804008004127E
:101893000804318004120804EB8004120804518107
:1018A30004120804BBF2031208041B8D041208047B
:1018B3002C8D04120804DA8104120804E88104124E
:1018C3000804EA7F00120804338B04120804438BD4
:1018D300041208045E8B04120804BF8B041208046C
:1018E300918904120804168A041208047A8A0412DD
:1018F30008047F8804120804A188041208040B89D1
:10190300041208041689041208045A8904120804EC
:1019130013BB0312080421BB0312080462BB0312A6
:10192300080483BB0312080400BC0312080400BDAF
:101933000312080422BD031208047FBD0312080426
:101943009ABD03120804B5BD03120804BFBD0312F8
:101953000804C9BD03120804DCBD03120804EFBD6B
:101963000312080408BE03120804A4BE03120804E9
:1019730060BF03120804E3BF0312080455C0031237
:101983000804A1C00312080450C1031208042CC2A6
:1019930003120804D6C3031208046CE403120804F8
:1019A3007AE403120804F4E403120804D8E50312EA
:1019B300080491E7031208046E8D04120804A2CDF3
:1019C300031208040ECE03120804CDCE031208043A
:1019D300D7CF0312080430D1031208048BD10312AA
:1019E3000804E0D103120804E9D103120804FBD16F
:1019F3000312080465D20312080479D203120804FF
:101A030083D20312080454D703120804A9D703127C
:101A13000804A5D903120804D7D903120804F9D975
:101A23000312080412DA031208042BDA031208045F
:101A330035DB03120804D0DB03120804928304127B
:101A43000804B68304120804CF8304120804028432
:101A53000412080433840412080461840412080481
:101A6300C38404120804D28404120804DC8404121C
:101A73000804E9840412080451F40312080477F4F7
:101A830003120804B4F403120804C3F40312080491
:101A9300E2F4031208044AF50312080453F503128F
:101AA3000804B2F503120804D6F50312080495F6E8
:101AB30003120804A2F603120804B3F6031208047F
:101AC300C1FF02120804DEFF0212080447DC0312FE
:101AD3000804A5DD03120804B2DD03120804C5DD02
:101AE30003120804E4DD03120804FADD03120804F8
:101AF3000EDE0312080483DE03120804E8DE031279
:101B0300080498DF031208046DE0031208047DE063
:101B1300031208048CE0031208049A8A04120804CE
:101B2300BE8A04120804E68A041208040E8B041207
:101B33000804E1F60312080408F70312080429F75E
:101B4300031208048EF70312080447F9031208046A
:101B530060F9031208046CF90312080480F90312F4
:101B630008049EF903120804A8F903120804B2F941
:101B730003120804C5F90312080418FA031208042F
:101B830051FA0312080480FA03120804CEFA03126E
:101B930008041DFB0312080438FB0312080442FB6C
:101BA3000312080453FB0312080499FB03120804ED
:101BB30070FF0212080466C40312080490C40312DF
:101BC3000804ACC403120804BFC403120804D5C438
:101BD3000312080432C50312080465C5031208047E
:101BE300A1C903120804C7CA03120804FACA0312DC
:101BF300080446CB0312080472CC031208049ACCDF
:101C030003120804AFCC03120804BFCC0312080468
:101C130003CD0312080464CD0312080474CD031228
:101C230008043986041208045486041208047D86C5
:101C330004120804978604120804BC8604120804DC
:101C4300DB8604120804F3860412080421870412B5
:101C530008043B8704120804AA8C04120804F6E75C
:101C630003120804FDE70312080409E90312080438
:101C730039E9031208045FE90312080482E9031235
:101C83000804A4E903120804DEE90312080444EA81
:101C9300031208047DEA03120804C9EA03120804C4
:101CA300F6EA0312080416EB03120804D6FD031226
:101CB3000804EEFD03120804DCFE03120804BBFF54
:101CC300031208046C8704120804DE870412080454
:101CD3001C88041208045D8804120804637B001244
:101CE3000804827B00120804D17B00120804ED7BF8
:101CF300001208041E7C001208042B7C0012080446
:101D0300387C00120804247D00120804627D00124E
:101D13000804727E001208047D7E001208048F7E80
:101D230000120804987E00120804A27E0012080420
:101D330097D203120804DCD603120804EAD603126E
:101D43000804EE8C04120804BEFF03120804468D37
:101D530004120804B08D04120804D6D50212080434
:101D63001CD402120804CCD10212080453D102126B
:101D73000804FAD0021208048AD00212080461D0BF
:101D83000212080441CE021208040DCE0212080406
:101D9300DACD02120804BECD02120804D7CC021217
:101DA30008048FCC02120804DACA021208045ACAC1
:101DB3000212080457CA0212080458C9021208047E
:101DC30026C90212080463C8021208048EC602124E
:101DD30008041FC602120804F1C502120804FFE03A
:101DE30002120804AADE0212080440DE02120804EA
:101DF300F8DD021208046ADD02120804EEC50212BD
:101E03000804DBC50212080486C5021208045DDD5E
:101E13000212080475C50212080467C402120804FA
:101E230031C402120804DFC30212080457DA021293
:101E3300080461EF0312080480C3021208044FC3AD
:101E43000212080417C002120804D7BF02120804C2
:101E5300CBBF021208042BBF021208046BBE02128E
:101E63000804EDBB021208047EB9021208043CB94F
:101E73000212080410B802120804C5B702120804BB
:101E830004B702120804D7B6021208041AB60212E3
:101E93000804B0B502120804EAB502120804B9D75F
:101EA30002120804BCA10300000080FBE473FFFFDF
:101EB300FFFFFFFFFFFFFFFFFFFFFFFFFFFFFFFF2F
:101EC300FFFFFFFF9DF7DEFF16DEA46122592261AB
:101ED30042710169427122714271016962716361E8
:101EE3008359B8EE5BEF5CEFFFFFFFFFFFFFFFFFE0
:101EF300FFFFFFFFFFFFFFFFFFFFFFFFFFFFFFFFEF
:101F0300FFFFFFFFFFFFFFFFFFFFFFFFFFFFFFFFDE
:101F1300FFFFBDFFE9822261C16841816289E070F0
:101F23004071407961712171217100716181418931
:101F3300E078C0602151AC93DEFFFFFFFFFFFFFF9E
:101F4300FFFFFFFFFFFFFFFFFFFFFFFFFFFFFFFF9E
:101F5300FFFFFFFFFFFFFFFFFFFFFFFFFFFFBDF7D8
:101F63000F9C216121714179E068426922598C9368
:101F7300D5CD39FFBCFF7CFF5CFF16D64EA4A36111
:101F83000061217121792179016170ACDEFFBEF717
:101F9300FFFFFFFFFFFFFFFFFFFFFFFFFFFFFFFF4E
:101FA300FFFFFFFFFFFFFFFFFFFFFFFFDDFF835982
:101FB300217161814169A040F0ACBDF7DEFF9DF75F
:101FC300BDFFD9EEF5CD78DEBEFFDEFFFEFFFEFFDF
:101FD300FEFF78E66048C168E17800696159FFFF58
:101FE300FFFFFFFFFFFFFFFFFFFFFFFFFFFFFFFFFE
:101FF300FFFFFFFFFFFFFFF7FFF75BF7A3692181F8
:10200300E070A471D1B4FEFFFEFFF2C4A048E1600A
:10201300837921798279427901718379A050697238
:102023007CF7DDF7FEFF7CF702516171E4912369D0
:102033005CFFFFFFBFF7FFFFFFFFFFFFFFFFFFFF98
:10204300FFFFFFFFFFFFDFFF78DE2161007161719A
:10205300256ADDFFDDFF2B8B2261217920796181E8
:1020630041792269E15841792081008121796171A7
:102073006269C5595BF7BDF7FEFF4B8B636901715D
:10208300E150FAF6BEFFFFFFFFFFFFFFFFFFFFFF79
:10209300FFFFDFF7FFFF5CF74269008900696B7B95
:1020A300FEFF3AF74259406981892071208160819E
:1020B3006259D9EE7CF74259E0704079407140791A
:1020C30020712289A4796FA47CF73DE718D6637148
:1020D30000712169BCFFDEEF7DEFFFFFFFFFFFFF14
:1020E300FFF7DFF7DEFFE148627942818B93BDFFA3
:1020F300F2B4A47100710061E060417120894179FB
:10210300A872BEFFFFFF57E64169407940794169F4
:10211300046A017162898269A559BFFFBEFF17DE98
:10212300C058A3814359DDFFBFFFFFFFFFFFFFFF40
:10213300FFF7BDF7645941794171A9725DF70FA4A7
:10214300217120792171A0404B8B41712181226142
:10215300DEFF9EF7DFFF9DF72E9C6271217990B41D
:10216300DDFF635121790181E1686451DFFFDFFF06
:1021730073C562694179677ADEFFFFFFFFFFFFFFE7
:10218300FFFF57DE216962812251DEFFBAE6026951
:102193002079207902599DFFFEFF276A43615CFF86
:1021A300FFFFFFFFFFFFFFF7FFFF84516461DFFFC6
:1021B300FFFF9DF7A048A06821812171276ABEF720
:1021C300FEFF2662217122797BFFFFFFFFFFFFF7EE
:1021D300DFFFE2584171A3717BF7FDFFA471007922
:1021E3000071016991ACFFF7FFFF7CF7AD8BBEFF78
:1021F300FFEFFFFFFFFFFFFFFFFFDFFF7CEFFFF7B7
:10220300FFFFDFFFBDFF425940712079627157DE46
:10221300FFFF9DF7E15022814359DFFFFFFFFFFFDF
:10222300D8E641714279C97ADEFF43512179207999
:1022330021792359BDF7FFF7FFFFFFFFFFFFFFFFE3
:10224300FFFFFFFFFFFFFFFFFFFFFFFFFFFFFFFF9B
:10225300FFFFFFFFDFFF1BF76369407981810251B5
:10226300BEFFFFF754C50281416998E6FFFF7DF782
:10227300803821794269DDFF9CFFA05021812079BC
:1022830063697DFFFFF7FFF7FFFFFFFFFFFFFFFF1F
:10229300FFFFFFFFFFFFFFFFFFFFFFFFFFFFFFFF4B
:1022A300FFFFFFFFFFFFDFFF34C5216900712169D5
:1022B30091B4FFF7DEF72369E070E461FEFF9DFF51
:1022C300227121818351FEFFA8720069208121714F
:1022D300F6DDDFFFDFF7FFFFFFFFFFFFFFFFFFFF7E
:1022E300FFFFFFFFFFFFFFFFFFFFFFFFFFFFFFFFFB
:1022F300FFFFFFFFFFFFFFFFDFFF476A2169217930
:10230300C058DDFFFFEFAD9321814269DDFFF6DDAC
:1023130001794271D9EEFEFF215940796179E66175
:10232300FEFFFFFFFFFFFFFFFFFFFFFFFFFFFFFFBB
:10233300FFFFFFFFFFFFFFFFFFFFFFFFFFFFFFFFAA
:10234300FFFFFFFFFFFFFFFFFFFFBEFF4351E068FB
:1023530041693AF7FFF7DEFF6279427977EEA459D4
:10236300017900599CFFDAF621694181E479BEFFC6
:10237300FFF7FFFFFFFFFFFFFFFFFFFFFFFFFFFF72
:10238300FFFFFFFFFFFFFFFFFFFFFFFFFFFFFFFF5A
:10239300FFFFFFFFFFFFFFFFDEF7FFF77CFF225981
:1023A3008271266ABEF7FEF7C0482181A87A0151DF
:1023B30021812249FEFF4EAC4179E170F5D5FEFF44
:1023C300FFFFFFFFDFF7DFF7DFFFFFF7DEFFFFFFB3
:1023D300FFFFFFFFFFFFFFFFFFFFFFFFFFFFFFFF0A
:1023E300FFFFFFFFFFFFFFFFFFF7FFFFFFFF5BF7AE
:1023F30063612271FEFFFFFF83590079C048626168
:1024030000790662FEFF225943810351BDEFFFEFBE
:10241300DFF7DEF7FFFFFFFFDEFFFEF7DEF7BEFFAE
:10242300FFFFFFFFFFFFFFFFDFFFDFFFDFFFFFFF19
:10243300FFFFFFFFFFFFFFFFFFFFFFF7BFF7DEFF1A
:10244300D5C5C148DEFFDFFF2EA42079E15001612D
:1024530000792A8BDEFFA1482361FDFFFEFFBEFF4B
:10246300A982016121694169417121690169A469F5
:10247300D5D5BCFFDFFFFFFFBFEFDFF7FFFFFFFF98
:10248300FFFFFFFFFFFFFFFFFFFFFFFFBFEFFFF7B1
:10249300DEF76451BEFFDFFF36D621710159426971
:1024A3002081CC9BFEFFE250B0B4B8E6E150E2607D
:1024B3002271E070427121712169217901712171C9
:1024C300C05082614FA4BDFFDEF7FFF7DFFFFFFFC0
:1024D300FFFFFFFFFFFFFFFFFFFFFFFFFFF7DEFF32
:1024E300FDFFA148BDFFBFFF98E62079226101618E
:1024F30000818B93BDFFA058217121592171216166
:102503006FA41BF7DEFFDFFFDFFFFFFF7CFFB1B42C
:1025130063612169E168215933C5BEFFDFFFFFFF16
:10252300FFFFFFFFFFFFFFFFFFFFFFFFBDFF3AEFCF
:1025330063516371FEFFFFFF56E62081015962611B
:1025430000898872FFFFC1484171C4617DFFBEFFEE
:10255300DFFFFFFFDEFFFFFFFEFFDEF7FEFFFEFFF5
:102563009DF79CF7266A426901692261056A99E62B
:10257300FEFFFEFFDEFFFEFFFEFFB1B443592169FC
:102583002269B5DDBEF7FFF7D1C421812251215164
:1025930020816351DEF7485A3CFFFFFF7CE7BDFF14
:1025A3006FA4C038E04801590161A158C150066ABF
:1025B30098E6FEFFDFFFDFFFE66101614179E16835
:1025C3006281227901712179217921696371057A07
:1025D300DDFFDFFFBFFFDEFF87724179C140645932
:1025E30061810151FFFFDEF7DEFF7BFF22510171A5
:1025F3000179017901710069E060E0584169216165
:10260300416921612B83DDFFDEFFDEFF98DECDA371
:10261300C561025102514361477253C5DDFFFEFF9D
:10262300FEF775ADDFFFBEFFE0482079C45954C5FE
:10263300607121717DFFDEF70A7B63710179226985
:10264300E9823AF7DDFFFEFFDEF7DEFFFEFF3AF732
:102653004FB4A04882698369635999E6FEFFFEFF80
:10266300FEFFDEFFFEFFBEFFDEFFFEFFBDFF13BD6D
:10267300A030B2ACBEF7DDFF0061417993D57DFF99
:102683006169418190BCDDFF02410269887ADDFF07
:10269300FFFFFFFFDFFFDFFFDFFFDFF7DFF7DFF71F
:1026A300FFFFDFFF7BFF4359016962794169804086
:1026B300C561AD9B4FB48C9BE56980482169017965
:1026C3000161BDFFBEF798E6427942717BFF7DF75A
:1026D300A0402179E150DEFFD6CDBAEEDEF7DEF77A
:1026E3009DFF53BD2772E1582159E0580159C98212
:1026F30016D6DEFFBEF7BEF7BDFF0A932171206930
:1027030063712269E1702279016961690151076A84
:10271300DAF6FFFFFEFF035101710251DDFFDFF720
:10272300D5DD0171C16078E6DFFFBEF77CEF2EA433
:102733000059A279007162796279E068417141714F
:10274300416182698C8BBDFFFFFF7DFF23593AFFF7
:10275300F9EED6D570B412C5B9E65BF7FEFFFFFFFD
:10276300DFF7DEF75BFF22690171F1B4FFFFDFF7EB
:10277300FEFFC15001710151DDFF7CEF80304181CB
:10278300C0682261AC935BFFFEFFFEFFFEFF3AFFD2
:10279300066AE258C07022618772D8F602519DF72B
:1027A300DEF7FFF7DFF7FFF7FEF7FEFFDFFF3DEF93
:1027B300DFFFBDFF635921716369FEFFFFFFBEF7B2
:1027C300BEEFF3BCC06041690D9CFEFF486A225115
:1027D30017D6FFFFDEF7DEF7FFFFDEFFFFFFBEFFCB
:1027E300DFFFDFFF11C501494269417182796261EF
:1027F30027722B93ACA36B9B687A63594349DEFF23
:10280300FFFF94CD21714279F2BCFFFFFFFFFFFF71
:10281300FFF7BEFF43594171A3793CFF3DEFBEF77C
:10282300BEEFDDF79CFFA461026122612259C87AE1
:10283300DDFFFFFFFEF7FEFFBAEE23592271208171
:10284300007141794179207942710259BDFFFEFF40
:10285300FDFF636942790149DDFFFFFFFFFFFFFFD2
:10286300FFF7FFFFDDFF6361017143695CFFDFFF7A
:10287300BEF7244122690071A28121790071207180
:1028830021618040B5DD7DFFDFFF9EF7FEFF22590A
:10289300BCFF17DE16DE77EEBDFFBDFFFEFF9CFF1C
:1028A300C148427962699CFFFFFFFFFFFFFFFFFF03
:1028B300FFFFBEF7BDF716DE0261006900595CFF3A
:1028C3009DFFE76122710079607920714081008169
:1028D30020792179C070E1580A83B9E6BDFF224906
:1028E30098E6FFFFDFF7FFFFDFF7DEEFDDFFE158DD
:1028F3000179427174C5DEF7BFF7FFFFFFFFFFFFEA
:10290300FFFFFFFFFFFFFFFFF2B420612169426178
:102913003AEFDDFFF5DDA0504169E05820616079B1
:10292300407921794079607960712071A48141698E
:10293300E150A551AA62BEFFDFFF3AFF636101794F
:1029430022794FACDEF7FFFFFFFFFFFFFFFFFFFF23
:10295300FFFFFFFFFFFFFFF7FEF790ACE058428158
:102963006271A982BDFF9DFFCD938369627100717E
:1029730020790179227141796181E0700171E15817
:10298300A561DEFFDFFFBEFFED9301612171C0583A
:1029930090B49DEFDFE7FFFFFFFFFFFFFFFFFFFFA8
:1029A300FFFFFFFFFFFFFFFFFFFFFFFFFAEEE15017
:1029B3000069417901614FA49CFFFEFF7CFF90AC4D
:1029C300066A035902592259A4618C9337DEFFFF2B
:1029D300FFF7FDFF53C5E05840714179015916D601
:1029E300FFFFFFFFFFFFFFFFFFFFFFFFFFFFFFFFF4
:1029F300FFFFFFFFFFFFFFFFFFFFFFFFBEFF5CFFC8
:102A0300C148226942792171A371A46199F67CFFBF
:102A1300DEFFFEFFBDFF9DFFFEFFFDFFDDFF1AFF93
:102A2300A459636921790179827184615BF7DEFFBF
:102A3300DFFFFFFFFFFFFFFFFFFFFFFFFFFFFFFFC3
:102A4300FFFFFFFFFFFFFFFFFFFFFFF75DE7DFFF75
:102A5300DFFF7CFF23516271207141792171427143
:102A6300C058C050A040C1488048216141694071AD
:102A7300418121796271225999EEFEFFFFF7FFFF31
:102A8300FFFFFFFFFFFFFFFFFFFFFFFFFFFFFFFF53
:102A9300FFFFFFFFFFFFFFFFFFFFFFFFFFFFFFFF43
:102AA300DFEFFFF7FEFF5BFFE982015962692071E7
:102AB3000079208121790071217941792179626935
:102AC3000161E9821AE7BDEFBEFFFFFFFFF7FFFFDA
:102AD300FFFFFFFFFFFFFFFFFFFFFFFFFFFFFFFF03
:102AE300FFFFFFFFFFFFFFFFFFFFFFFFFFFFFFFFF3
:102AF3009DEFFFFFFFFFFFFFDFFFBFFF5DFFBAEEAD
:102B0300EE9B466AA361A459676AAC8B77DE9DFF8F
:102B1300FEFFFFFFFFFFDFF7FFF7FFFFFFFFFFFFF3
:102B2300FFFFFFFFFFFFFFFFFFFFFFFFFFFF0000B0
:102B33000000000000000000000000000000101072
:102B43001010101000003030000000142850000056
:102B530000000000000000000000002828FC2848B6
:102B630050FC5050000000001038545430181454D6
:102B73005438100000000044A8A8B0541A2A2A446C
:102B8300000000000020505060ACA898927C000028
:102B930000606020C000000000000000000000048E
:102BA300080810101010101008080400000040203E
:102BB300100804081020400000000000001010D688
:102BC3003838D61010000000000000101010FE105E
:102BD30010100000000000000000000000000000D2
:102BE300606020C0000000000000FC000000000046
:102BF3000000000000000000000000006060000012
:102C030000020404040808101020202040000000E3
:102C1300003048848484848448300000000000101D
:102C2300701010101010107C000000000038444495
:102C330004081020447C00000000003844441804B9
:102C43000444443800000000080818284848887CD9
:102C5300081C00000000007C4040784404444438D1
:102C630000000000003C4480B8C4848484780000E1
:102C73000000007C444808101010101000000000F1
:102C83000078848448788484847800000000007885
:102C93008484848C740488F00000000000000030F9
:102CA3003000000030300000000000000000100081
:102CB300000000101020000004081020402010081D
:102CC300040000000000000000FC0000FC00000005
:102CD30000000000402010080408102040000000FD
:102CE3000000788484840810100030300000000055
:102CF3000038449AAAAAAAB4423C0000000000107B
:102D030010282828384444EE0000000000F844440A
:102D13007844444444F800000000003C448480802C
:102D2300808044380000000000F048444444444498
:102D330048F00000000000FC44404878484044FC50
:102D43000000000000FC42404878484040E000009A
:102D53000000003C448480808E84443800000000DE
:102D630000EE4444447C444444EE00000000007CF4
:102D7300101010101010107C00000000007C1010C8
:102D830010101010101090E0000000EE4448507036
:102D9300484844EE0000000000E04040404040400E
:102DA30044FC0000000000EE6C6C6C54545454D688
:102DB3000000000000EE64645454544C4CE40000E2
:102DC300000000304884848484844830000000007C
:102DD30000F844444478404040E0000000000030E4
:102DE3004884848484B448380C00000000F84444C8
:102DF3007850484844E600000000003C4440201856
:102E0300040444780000000000FE9210101010101B
:102E130010380000000000EE444444444444443865
:102E23000000000000EE4444282828281010000069
:102E3300000000D6545454546C2828280000000085
:102E430000EE44282810282844EE0000000000EE7D
:102E5300442828101010103800000000007C880857
:102E63001020204044FC0000001C10101010101013
:102E7300101010101C000070101010101010101003
:102E8300101070000070101010101010101010109F
:102E93007000001028000000000000000000000087
:102EA30000000000000000000000000000FE0060C1
:102EB3006020C000000000000000000000000000CF
:102EC300000038441C24443E0000000000C0404081
:102ED30078444444447800000000000000003C446F
:102EE3004040443800000000000C04043C444444C7
:102EF300443E000000000000000038447C40443899
:102F030000000000001C2420F8202020207800006E
:102F13000000000000003C4848304078443800007E
:102F230000C040405864444444EE000000000010D8
:102F3300000070101010107C00000000000800005A
:102F43003808080808080870000000C040405C48C2
:102F5300507048EC000000000070101010101010AA
:102F6300107C0000000000000000F854545454D6B4
:102F73000000000000000000D864444444EE000058
:102F830000000000000038444444443800000000BE
:102F930000000000F8444444447840E0000000008E
:102FA30000003C444444443C040E00000000000084
:102FB300EC30202020F800000000000000003C441A
:102FC3003008447800000000000010107C1010103E
:102FD300100C0000000000000000CC444444443EB8
:102FE3000000000000000000EE4428282810000024
:102FF300000000000000D6545454282800000000AC
:1030030000000000DC48303048EC00000000000005
:103013000000EE442828101020E00000000000000B
:103023007C481010247C0000101010101010101099
:1030330010101010101007E04420242007E0842013
:10304300442007E020002FF04A504A508A508A500B
:103053001FF800004FF0281008108FF048100810D8
:103063002FF0224052484A50866082401FF80200E7
:1030730001003FF824203FF8242027E020002FF010
:1030830024202240418046609818020042102220EA
:1030930012400200FFF80880088008800880108032
:1030A3001088208840787BF04910491049107A60D5
:1030B30048004BF04A104A107BF000004910448846
:1030C3008488080010007FF040104010401040102A
:1030D3007FF040104010401040107FF0401000007F
:1030E3007FF00200020002000200FFF80200050068
:1030F3000500088010402020C01800007FF0421017
:1031030052504A907FF002007FF00200FFF8000067
:1031130049104488848804000200FFF8110011005C
:1031230021F022906450AA202140208021402220B7
:103133002C18200020004BF04880F0801080208065
:103143004080F880008000801880E08007F82080AD
:10315300208020803C8044C044A0A4901888088824
:103163001080108020804080808004000400FFF8DD
:1031730008001FE0302050209FE0102010201FE0A7
:103183001020102010E000007FF002000200020077
:103193000200FFF80500050009001100210841089D
:1031A30080F8020002000200020002000200050093
:1031B300050005000880088010402020C01840004A
:1031C3007DF091101110FF10291045F080003FE0B1
:1031D30020203FE020203FE020201080209844E082
:1031E300FE88028800787C0044887C9044E07C80E0
:1031F300448844884C780200FFF8800800007FF080
:103203000C001220654009803340C5401920E118A5
:1032130006007FF0401040107FF0410041007FF82E
:10322300410041005FF0501050105FF0901010000B
:1032330013F81020542054205820902010201020E0
:10324300102028202420442080E002004210222065
:1032530012400200FFF80880088008800880108070
:1032630010882088407804000200FFF8888890487E
:10327300202000003FE002000200020002000200E2
:10328300FFF8400027F824880488E5E8248827F815
:10329300240825E82D28352825E8040808380200E5
:1032A3000200020022102210222045408500050062
:1032B3000880088010402020C018210021002BF036
:1032C300B410A820A100A6382408240827385408DD
:1032D300540847F8840804000200FFF880088008B7
:1032E30002001220122022404200050008803060B4
:1032F300C01824407EF825107E90AA603A980600F4
:10330300FFF800003FE000003FE020203FE0200006
:1033130023F02210FA10227022002BF03290E29058
:1033230022A0224022A02310E2087FF01040104088
:10333300104010401040FFF8104010401040204053
:103343002040404080401040084008807FF0020049
:1033530002000200FFF8050005000880104020204D
:10336300C018081048107F5088500850FF5008506C
:1033730008507F504950491049104B100870008085
:1033830040802140222005100888000017F010100B
:1033930020202240418040800040108010807BE04C
:1033A30010A018A072A0112811A812987408000088
:1033B30049104488848801000100F90023F021109A
:1033C30021102110211021103910C21002100410F5
:1033D3000860040002007FF0020084884F1022205E
:1033E30044908FC80240FFF802000200020004006C
:1033F30004007FF00800120022003FE002000200F8
:1034030022402220421082100E000880088008808B
:103413000888F89008A008C00880088018802880D1
:10342300C888088808780200020002000200FFF83A
:1034330002000500050005000880088010402020D8
:10344300C018242012400080FFF8800880083FC085
:1034530000800300FFF80200020002000E000000DB
:103463000000000000000000000018001800000029
:10347300000018001800000000006000900097E8AA
:103483006818100810081000100010001000100831
:10349300081007E00000180024082410242024400A
:1034A30024801900026004900890109020904090AE
:1034B3000060000136360101000102010001030131
:1034C300000104010606050200000701003408019B
:1034D300000F090401010D0100FF0E08000017028F
:1034E3000000190100FF1A0100011B0100FE1C016D
:1034F30000081D0200001F0100012001000121023C
:1035030000002301000F240200002601000127010F
:103513000008280200FF2A0100072B0102402C01AA
:1035230000002D0100012E0100012F0100FF3001D9
:103533000B1C310800003A0100083B01000F2F016A
:1035430000000101710101010101110101013101BA
:10355300010101018001100161013B0014006301BD
:1035630073017201620143010001130106013D0170
:1035730035000401120100010001000100010401F2
:103583000401330133013C014401320136000001DF
:10359300000165010001350081010001050182017F
:1035A3008301000103027102300160021102700203
:1035B3000102020202028002100261023A0041008B
:1035C30063027302720262024302000213023800B2
:1035D30000020002040212020002000200020002C2
:1035E30004020402370037003C024402000239009F
:1035F3000002000265020002350281020002050298
:103603008202830200020103710301030103010328
:103613000103010322030203010310030003000358
:103623000003000300030003000342030003240319
:1036330006030003000304031203250323032503E6
:1036430023030403040300030003000344030003F0
:1036530000032303000365032100350381030003F3
:103663000503000300030003030471040204600460
:10367300110470040204020401040204100461042E
:103683000004140463047304720462044304000416
:1036930013040604000400040404120400040004D8
:1036A3000004000451046400000400040004440402
:1036B30000040004000400046504000435048104CC
:1036C3006400050400048304000403007100300156
:1036D30060001100700031022003500480001000CC
:1036E3006100000014006300730072006200430075
:1036F3000000130006000000000004001200000098
:1037030000000000000004000400370037003C0202
:1037130044000000000000000000650000003500C8
:10372300810000000500000083000000CEC2CAAA89
:10373300B6C8B9E2D5D5B0D7CCECBADAD2B9BAECBF
:10374300CDE2D3D0CEDEC8CBD6C7C4DCBCD2BED389
:10375300B5C6B9E2BFD5B5F7BBF0D1E6D4D6BEAF97
:10376300B1A8BFAAB9D8D6C6C0E4C8C8B9A6C2CA48
:10377300B6ABB1B1B4F3D1A7A3BAA1E6A3A5003602
:10378300000100060000000F000000000000000020
:10379300000000000003FFFF00000403FFFF000020
:1037A300FFFF0FF4010005C4040320000100030B15
:1037B300000000000000000003010F0000081813C0
:1037C30000A81701000818020072170300781704F5
:1037D300007E170500841706009017FFFF00000105
:1037E300BE0D06EE0D08E80D0BFA0D103A0D02C4DE
:1037F3000D05DC0D07CA0D0CA00D0DB20DFF000069
:10380300C611F611CC11D211F011E411DE11FC1125
:10381300021208121412D811C011BA1103EAF5E505
:10382300D5D5C5B5A59595858575756565555545F5
:10383300453535252515150500160F00000B150B0D
:10384300020002220F32000006B012C212C8129008
:1038530011CE128A119611CA10C41000110611FA62
:1038630010B2100A1328132E1310131C1316130C63
:103873000E020B040B0A0708000F00011916181695
:10388300161523030000034948424D181725050266
:1038930000383C3E363B3B352B432C303016181951
:1038A30020231A1C1E30303017181921301B1D1FFE
:1038B30030FE12D412DA12E612E012EA110E1222CC
:1038C300131A122012020402010101010902D61087
:1038D300DC10D0100C11000000000000E210F41006
:1038E30000BE040A04007F00E8030C002800000067
:1038F30000001500030108100C0A03080900040066
:103903000CFF1E1E0508040F09C082C0838A828B28
:1039130083E0D2E7F01216D6024A83C082C08379CD
:1039230000123DD8126AEFC082C08390033412584C
:1039330075D083D082C3E09CA3E09D500C1271C369
:10394300FAA3E012394F600109024A83FBEA75F0DA
:103953000BA4FAA8F075F00BEBA428FB900336E058
:103963002AF8A3E03B8882F583E0540F2274F71210
:10397300036F8908123DD8123E7EACF075F00BE957
:10398300A42CF9900336E028FEA3E039FF74016507
:103993000860067402650870208A828B83123E6A6F
:1039A300124B5174026508701B123D29123EB1700F
:1039B300138E828F83E4F0800BEA2403FCEB123E28
:1039C3004C123E58EEFAEFFB120ACA024ABB74F4D9
:1039D30012036F127AEA79008E828F83E060768910
:1039E3000A890B8065E50A75F00BA4FAA8F075F057
:1039F3000BE50B12395C7046E50A75F00BA4F8AAC7
:103A0300F075F00BE50B123E908E828F83E08508F4
:103A130082850983123F72850882850983A3124B2D
:103A230051EE2403FCEF123E55124A8A126569AA2D
:103A330008AB09120ACA7901900334125F7EE50AC2
:103A43002401F50AE50B3400F50B123D31E50A9A22
:103A5300E50B9B4090024CFB74F512036FEAFEEBFF
:103A6300FF740B120AA5124A8F750A01EC4D602BE5
:103A7300EC127B06ED126AEF124B497901120AD65A
:103A8300E5084509606F850882850983A3127AF4E6
:103A93007902AA08AB09120AD6805AE508450960DB
:103AA3002B126AF31251BD124A8B123E9B700CEE1D
:103AB300FAEFFB120ADCE9F50A80CBEE2403FA12D3
:103AC3003DD370317903EEFAEFFB80CA8E828F8388
:103AD300A3E064FE7003A3E0F4700BEE24030A0A70
:103AE3000A123DD3700CEEFAEFFB120ADCE9F50A79
:103AF3008003750A00A90A7F0302058974F712037C
:103B03006F900334124ACBEA4B602FEA75F00BA493
:103B1300FAA8F075F00BEBA428FBEAFEEBFF1215F5
:103B230014900336124ACB900336125DC36012EE33
:103B3300FCEFFD79001214788007900336E4F0A3BC
:103B4300F0024ABB90033412552DC3EE98EF99222D
:103B5300C082C083EC4D6005121CD680097C087DB1
:103B6300007900121478024A8374F612036F790005
:103B7300EA4B601878008808126E36EB1271BF604A
:103B8300047901780808E8C3940840EA024B5A74A0
:103B9300F712036F74F31208E3ECFEEDFF8518824E
:103BA300851983E4F004120AA5EAF0A3EB1262EF8D
:103BB3007403120AA5AC82AD83EEFAEFFB120AEE90
:103BC300EEFAEFFB120AF4024AB674F712036F74AB
:103BD300F31208E3ECFEEDFF851882851983E4F008
:103BE300EAFCEBFD7403120AA5123F6B7401120A7F
:103BF300A5124B458E828F83124B5174FE6870035E
:103C030074FF696004790180027900024AB674F78F
:103C130012036FEAFEEBFF123C6F7014123C7A8EB4
:103C2300828F83E0F4F88A828B83E058F0120ACA09
:103C3300A908024ABB74F712036FEAFEEBFF75088B
:103C4300008E828F83E06022123C6F701D123C7ADB
:103C53008A828B83E08F838E82F8E058700CE0F8C1
:103C63008A828B83E048F0120ACA80C4120AD0E920
:103C7300F5087401650822127AFF123E82123DC4D0
:103C8300FAA3E039FB2274F412036F8A088B097CD0
:103C9300007D00123D29123E58123DE9127AF17956
:103CA30000850882850983A3E064FE7003A3E0F422
:103CB30060717E007F008062EEFAEF12394F605729
:103CC300EEFAEFFBEA75F00BA4FAA8F075F00BEB34
:103CD300A428FB900336E02AF50AA3E03BF50B8505
:103CE3000882850983A312623D850A82850B83A31B
:103CF300E06A7003A3E06B701EE50A2403FAE50B88
:103D0300123DD4700AE50A2403FCE50B123E55125A
:103D13003DDD7901126B051246C8123D31EE9AEF73
:103D23009B4095024CFBEA24030A0A0AEB22900308
:103D3300341266DCC32274F312036F8A088B098A78
:103D4300828B83A3127AF4123DD8127AF1750C0098
:103D5300123D29123DD470547E007F008049123DEC
:103D6300B6FAA3E0398A82F583E0540F6036123D38
:103D7300B6F50AA3E039F50BE50A2403FCE50B12BB
:103D83003E5F3400FB121CD0E964017017850A8280
:103D9300850B83A312679DA3124B51123DDD750C56
:103DA30001126B051246C8123B4740B2A90C7F05AE
:103DB300020589EEF8EFF9E875F00BA4F8123DC49B
:103DC30022AAF075F00BE9A42AF9900336E0282221
:103DD300EF123EAB22127B05EB22123DE9126B0080
:103DE300EEF0A3EFF022E508127B06E5092274F555
:103DF30012036FEAFEEBFF8E828F83A3127AF47CA9
:103E0300007D00EE24030A0A0AEF123E58EEFAEF91
:103E1300FB120AD0E9F50A7401650A7029127AFFC8
:103E2300123E7EAAF075F00BE9123E90850882F5EA
:103E330083123E6A123E9B700DE5082403FCE509DC
:103E4300123E4C123E58023AF83400FDEE2403FAB7
:103E5300EF22123E5F3400FB120AEE223400FDE52E
:103E6300082403FAE50922A3123E6F22123E7322AD
:103E7300E0F8A3E0F98E828F83A322123E822234DC
:103E830000F583125531E875F00BA4F822123DCAF0
:103E9300F508A3E039F50922E8F0A3E9F0E50824E1
:103EA30003FAE509123EAB22123EB164012234004B
:103EB300FB120AF4E92274F312036F74E61208E3A7
:103EC300127AEA750C01750800750900750A007508
:103ED3000B00851882851983E4F0EE2403FCEF348C
:103EE30000FD7403120AA5123F6BE9640170237489
:103EF3000B120AA5124B497401120AA512624170F2
:103F030003A3E0696051851882851983858208853A
:103F13008309740D120AA5E4123F72740E120AA5E6
:103F2300124B51740D120AA5AA82AB83120B12E92C
:103F33006401700B740D120AA585820A85830B78C0
:103F43000A12083CAC08AD09EEFAEFFB120AE27460
:103F53000212084FE9F50CEEFAEFFB120B0CA90C59
:103F6300741A12084F023DB112423E120B1822126C
:103F73004AC612552D22C082C0837800790080037F
:103F8300124069123D31E89AE99B5029E8FAE9FBAE
:103F9300EA75F00BA4FAACF075F00BEBA42CFB90D4
:103FA3000336E02AFCA3E03B8C82F583E0540F70D8
:103FB300CF790080027901024A83C082C08390389E
:103FC300F5125583EC75F012A4FCA8F075F012ED10
:103FD300A428FD79FF7A0B7B0B121478024A8374B1
:103FE300F712036FE9FEEAFF7A007B00780079009D
:103FF3008028E8FCE9FDEC75F012A4FC85F0087557
:10400300F012EDA4250812447EC39E400AE0FCEFA3
:10401300C39C400312459D12406912447240D3026F
:104023004ABBC082C08378007900800312406912C2
:10403300405D501F124482F470F2E875F012A4F848
:10404300AAF075F012E9A42AF9740B28FA740B3953
:10405300FB80047A007B00024A839038F5124533D3
:10406300C3E89AE99B22E8240108E93400F92274A1
:10407300F012036F74F31208E38A0A8B0B8C0C8D16
:104083000D8908EC450D6016AA0CAB0D120B668A60
:104093000E8B0FAE0EAF0FEE4F6003024130120BCB
:1040A3003C8A0E8B0FA80EA90FE8FEE9FFE84960D2
:1040B3007C9038F1124192602274036508600674A3
:1040C30004650870167A047903120B369038F112DE
:1040D30041A940077A007B0002418F9038F31241D7
:1040E30092601B74016508600674026508700F7A9C
:1040F300027901120B369038F31241A950D6851874
:10410300828519837401F0120AA5126569AC0CAD9E
:104113000D7403120AA5124237740B120AA5124A30
:1041230097124F31E412655112100A8004EE4F606A
:104133004A780074FF2508C39404500278048E82E1
:104143008F831265698E828F83A3A3A3A3E508F0EF
:10415300E88E828F83A3A3A3A3A312657112021E09
:1041630012454A8E828F83A3A3A3A3A3A3A3F01212
:104173004541120A82126AE9120A8E1241974005DA
:10418300901067E4F0120EE4EEFAEFFB02553712DB
:10419300668B49227A047900120B369038F5127136
:1041A300A5EA98EB99221241C27583387582F5E42A
:1041B30093C398F8A3E49399F9C3EA98EB9922E49B
:1041C30093F8740193F92274F212036F74F31208D3
:1041D300E38A088B09ECFEEDFF750A00EEFAEFFBAC
:1041E300120B668A0C8B0DA80CA90DE849603E885A
:1041F300828983E065087004A3E06509602F8882E3
:104203008983A3A3A3A3E0C39405502112699785CF
:1042130018828519837401F0120AA512699BEEFCBA
:10422300EFFD7403120AA5124237750A01A90A7435
:104233000D02603512423E120B2422AA82AB831276
:104243000AEE851882851983AA82AB832274F6123B
:10425300036F12428C600FA3A3A3A3E014C39404BF
:104263005004790180027900024B5A74F612036FED
:1042730012428C600FA3A3A3A3E014C394025004BF
:10428300790180027900024B5A120B608A828B8378
:10429300E58245832274F612036F12428C600BA3EE
:1042A300A3A3A3E07004790180027900024B5AC0F2
:1042B30082C083EAFCEBFD7A007B00024A80C08265
:1042C300C0837C007D00024A8074F412036F74F390
:1042D3001208E3EAFEEBFF8C0A8D0BC3EC94F8EDB6
:1042E30094FF4007EE4F700302438575080075097C
:1042F30000802E8518828519837401F01246F0120E
:104303000AA51246FE60137403120AA5AC82AD839C
:10431300EEFAEFFB121CD0E97049E50824011245BF
:104323001E9038F5E4126693E50898E50999505212
:10433300E50875F012A4F8AAF075F012E509A42AAD
:10434300F91271D860D4EE4F70A974FF650A700436
:1043530074FF650B60C41246E0650A7004A3E06550
:104363000B70B7E50875F012A4F508A8F075F01204
:10437300E509A428F509740B2508FA740B3509FB24
:1043830080047A007B00024CF674F412036F74F31A
:104393001208E3750800120B668A0A8B0BAE0AAF8C
:1043A3000BEE4F602A8518828519837401124AC067
:1043B300F8A3E0F9740B120AA5124BD4120B067C76
:1043C300127D0079FFEEFAEFFB12147875080112E3
:1043D300419750099010677401F0120EE4A9080286
:1043E3004CF674F712036FE9FE74FE6A700374FFF0
:1043F3006B78007900700580521240691244725044
:104403004AE8FCE9FDEC75F012A4FCAFF075F0127C
:10441300EDA42F12447EF460E0E8FCE9FDEC75F0B6
:1044230012A4FC75F012EDA42FFD740B2CF582740D
:104433000B3DF583E06A7003A3E06B70BC80091247
:10444300448214C39404401712406912405D50180B
:10445300EE70EC12448264016005E0640370E912BB
:1044630046D1FAA3E0FB80047AFE7BFF024ABB90AD
:1044730038F5125587C3E89CE99D221245D222E8FC
:10448300FAE9FBEA75F012A4FAACF075F012EBA4AA
:104493002CFB740F2AF582740B3BF583E022120B7D
:1044A30078024A83C082C083790180F274F01203D8
:1044B3006F8A0A8B0B7A047901120B368A0C8B0DE7
:1044C300EA450D603EEAC333FAEB33FB1215148A57
:1044D300088B09AE08AF09EE4F60237AFE7BFF120B
:1044E3000B7E74FE6A700374FF6B601B8508828504
:1044F3000983124ACBE508240212451E80E1750C9C
:104503000080047E007F00850A82850B83E50CF022
:10451300EEFAEFFB02553CE5082407F508E50934FC
:1045230000F509229038F5125587C3EA9CEB9D22CA
:10453300E493FA740193FB2212146C740322126A3B
:10454300FAE4F090816F22E88E828F83A3A3A3A362
:10455300A3A3A3A312456C740112456CA3F0EE242C
:1045630010126AFDE4F0A3F022124F3DA3A3A3228D
:10457300C082C0837A007B0080041912459D1245D6
:104583002750101245BCC3940550F0E970EC124556
:10459300A680047A007B00024A83EA24010AEB34F2
:1045A30000FB22EA75F012A4FA75F012EBA428FBC3
:1045B300740B2AFA740B3BFB22EAFCEBFDEC75F05F
:1045C30012A4FCA8F075F012EDA4281245D222FD26
:1045D300740F2CF582740B3DF583E02274F71203FC
:1045E3006F74F31208E37E007F00024684E50875CA
:1045F300F017A4F8A9F0127439FAA3E0FBEEF8EF70
:10460300F9E875F012A4F8ACF075F012E9A42C12D5
:1046130046DF6A7003A3E06B603FE50875F017A4FB
:10462300F8AAF0EA127438F8A3E0F97401120AA5A3
:10463300E0687003A3E0696020E50875F017A4F84B
:10464300EAF9748728FC740C39FD7403120AA5AACD
:1046530082AB83121CD0E96014E50875F017A4F847
:10466300A9F0748528FA740C39FB1210160508900A
:1046730038FAE493F8E508C39850030245F012466C
:10468300C89038F512777F5039EEF8EFF91246D11A
:10469300F47003A3E0F460E685188285198374013E
:1046A300F0EEF8EFF9E875F012A4F875F012E9A44A
:1046B3002AF91246F0120AA51246FE60C1750800D7
:1046C30080AD024AB6EE24010EEF3400FF22E875F6
:1046D300F012A4F8AAF075F012E9A42AF91246E43C
:1046E30022740B28F582740B39F583E022740D28AC
:1046F300F582740B3912552B740B22E8F0A3E912DF
:104703004BDC120B1EE922C082C08390033D74D69A
:10471300F0A3740DF090033F74D0F0A3740DF090E8
:10472300034374F0F0A3740BF0024A8374F712038B
:104733006FEAFEEBFF900377E06408601BE064041C
:1047430060168E828F83E0540364017048124A8A94
:10475300125032E06406703D8E828F83A3A3E0641F
:10476300FE7003A3E0F4602D8E828F83A3A3124B0C
:1047730045900368E0687003A3E069700BEE2415AD
:10478300F582EF1271BF6008120E84E9F508800804
:10479300120E8A80F67508C2EEFAEFFB12151A02A2
:1047A3003C3374F412036F8A088B098A828B83E08B
:1047B300F8A3E0FAE82AFAE43400FB1215148A0A93
:1047C3008B0BAE0AAF0BEE4F6063850882850983BE
:1047D300E0FC7D0079001214788E828F83A3A312EC
:1047E3007AF4120EC68E828F83A3A3A3A3124ACB9D
:1047F300850882850983E0F8EE28F8EF3400124B30
:104803004D850882850983A3E0C0E0EE240D126A7A
:10481300ECD0E0F0120ED8EE240E126AECE912612D
:104823009EE0C0E0EE2411126AECD0E0F0EEFAEF65
:10483300FB024CFB74F612036F74EB1208E3EAFEFF
:10484300EBFF125DC060030248DB7A077B001215A1
:1048530014900339124ACB125DC060788E828F8325
:10486300120A8290033A125035120A8E1279B8C096
:10487300E01248E7D0E0F0EE2405FAEF3400FB8ABB
:10488300088B098A82F583E0C0E01248E2D0E01287
:104893004CF2E0C0E01248E2A3D0E0124B37120A18
:1048A30082851882851983120A8E88828983E0C0E3
:1048B300E07405120AA5D0E0F0850882850983E03B
:1048C300C0E07404120AA5D0E0F07407120AA5121E
:1048D3004A1D80067910800279017415024B571224
:1048E30048E7A322900339E0FAA3E0F5838A82A381
:1048F300A3A3A322C082C083125DC0600D900339BD
:104903001266CA900339E4F0A3F0120DF4120FB645
:10491300024A8374F012036F74EB1208E3ECFEEDAA
:10492300FF89087425120AA5780C120A4874291203
:104933000AA5E0F9742A120AA5E0FC742B120AA551
:10494300E0FD740F697005740F6C60129010B7E08E
:104953006402700579C1024A18E9C39C40F69003CA
:1049630078780C120A66E50890037EF0E990037CE0
:10497300F0ECA3F0ED90037FF074FF6A700374FF13
:104983006B701D9010C2E0F47003A3E0F470051285
:10499300148A800C9010C2124AA0E8F0A3E98007A1
:1049A300900375EAF0A3EBF0EE4F6017EEFAEFFB1E
:1049B300121076E96401700BEEFCEFFD7A897B033C
:1049C300121CD6900368E4F0A3F090036BF0A3F0FD
:1049D300900388F09010B7E06402700890037C7431
:1049E3000FF0A3F09003777405F014120AA5E4F016
:1049F300900378120A82851882851983120A8E9091
:104A0300037EE0C0E07405120AA5D0E0F07407123B
:104A13000AA5124A1D7415025539E4124BDC121D06
:104A23000022C082C083900338E070031217A212E1
:104A33000BC0804CC082C083900338E09010667036
:104A430004E4F0802D7401F0900338E0F460237CDB
:104A530041E0C394415002E0FCECF8E0C398F0EC71
:104A630075F0E8A4CCA8F075F003A428FD7A8012B1
:104A7300558F7A667B107941121CEE8003120B6C02
:104A8300D083D082020801EE126AFB22E0F508A36C
:104A9300E0F50922124A9B22123E73A32212552DDE
:104AA3009003752274F712036FEB90037FF0120DDE
:104AB300E28005740D12084F7F01020589124AC670
:104AC300A3E022124B37A322EAF0A3EBF02274F700
:104AD30012036F74F81208E3EAFEEBFF7900900308
:104AE30077E06408704485188285198374FDF0A308
:104AF30074FFF0120EC07402120AA5124ACB740599
:104B0300120AA5E4124AC6E0C0E07404120AA5D052
:104B1300E0124B32C0E07406120AA5D0E0F074072D
:104B2300120AA5E4124BD8120F027408024AB812F3
:104B33004B37E022F08E828F8322F085188285190D
:104B4300832212552D22E0F8A3E0F9126AFAE8F065
:104B5300A3E9F02212084F7F02020589C082C083B5
:104B63009003497480F0A3740CF09003EF745CF02D
:104B7300A3740FF090034D74B6F0A3740CF090037C
:104B83004F7480F0A3740CF090035174BCF0A374C1
:104B93000CF0024A8374F412036F74F91208E38A67
:104BA300088B098C0A8D0B85188285198378081266
:104BB3000A667404120AA5E9F07405120AA5E4F062
:104BC3007406120AA5E4124BD8120BA87407024C00
:104BD300F8E8F0A3E9124BDC22124B3DAA82AB8327
:104BE3002274F412036F8A088B098A828B83126BF7
:104BF30008EE4F7003024CF0900312125DC3601570
:104C03008A828B83A3A3E0F9EEFAEFFB90031312DE
:104C13005035121EAF8E828F83A3A3A3A3A3A3A396
:104C2300A3A3E0640270748E828F83A3A3A3A3A3C0
:104C3300A3E054027003024CC2850882850983A352
:104C4300A3E064E960798E828F83A3A3A3A3A3A3C4
:104C5300A3A3A3A3E070149010BAE0048E828F8301
:104C6300A3A3A3A3A3A3A3A3A3A3F08E828F83A32E
:104C7300A3A3A3A3A3A3A3A3A3E014124CF2A3A3EC
:104C8300A37404F09010BB126543E8F0A3E9127615
:104C93001C8B0BEA450B7003126FFA8E828F83A372
:104CA300A3A3A3A3A3A3A3A3E0640260128E828F92
:104CB30083A3A3A3A3A3A3A3A3A3E06406702E8E3D
:104CC300828F83A3A3A3A3A3A3E0A2E0501F85081D
:104CD30082850983A3A3E0F9EEFAEFFB121D908E00
:104CE300828F83A3A3A3A3A3A3E054FEF08009129E
:104CF3004F3922740D12084F7F0402058974EC1298
:104D0300036F74DD1208E3EAFEEBFF8C088D097470
:104D130037120AA5780C120A48750A007405120A9C
:104D2300A5AC82AD83121DE47412120AA5E07008CB
:104D33007415120AA5E060207405120AA5E0A2E624
:104D4300501E8E828F83A3A3A3A3A3A3A3A3A31203
:104D5300623D120F38E960087903121CBE024F1F2F
:104D63007405120AA5E0540C64047005750B0180E8
:104D730003750B00E0A2E55035750A01E50BA2E0CF
:104D8300402C120EC68A108B11A810A911124A8A40
:104D9300E0687003A3E06960157405120AA5127A2E
:104DA300FB126239121D9CE96004790480AC74051E
:104DB300120AA5E0A2E650227406120AA5E05403E3
:104DC30070187405120AA5E0540C640C600CE054CE
:104DD3000C640860057510018003751000740512DA
:104DE3000AA5E05403F8740268700C127AFB12628D
:104DF30039120AB8024F1F740168703AE510A2E035
:104E03005003124F277405120AA5A882A9837403BD
:104E1300120AA5E8F0A3E9125521851882851983A2
:104E2300124F31E0C0E07402120AA5D0E0124BD851
:104E3300121E80024F1FE86003024F1F90035FE0C2
:104E4300640170108E828F83A3A3A3A3A3A3E07036
:104E530003024DAD7422120AA57402125521741A6D
:104E6300120AA5124B51E510A2E050087405120A6C
:104E7300A5124F27E50BA2E0506AEE240FF582EF4F
:104E83001271BFC0E07417120AA5D0E0F0900314AA
:104E9300125DC37003024F1F120EC68A128B13A832
:104EA30012A913741A120AA5E0687003A3E06970CB
:104EB3006B780C120834780A120840780812083C00
:104EC300A910740C120AA5AC82AD837421120AA531
:104ED300AA82AB83900314125032121EAF740712CE
:104EE300084F8038780C120834780A120840780882
:104EF30012083C900375120658EE2412F582EF1245
:104F03006EED7423120AA5AC82AD83740E120AA54A
:104F1300AA82AB83121D84740912084F74231208EA
:104F23004F0275E7127AFB1266D8121DDE22E8F0F3
:104F3300A3E9124F3922124F3D22F08E828F83A3B1
:104F4300A3A3A3A3A32274F712036F12168E024A1C
:104F5300BB74F712036F121694024ABB74F7120361
:104F63006F1216A0024ABBC082C08312169A024A6D
:104F73008374F712036F1216A6024ABB74F7120367
:104F83006F7409120AA5E0F5087808120840121692
:104F9300B27401024AB8C082C0831216BE024A83A9
:104FA300C082C0831216C4024A8374F712036F12BD
:104FB30016CA024ABB74F712036FEAFEEBFF8908B5
:104FC3007401650870147900120CF8903905E493A4
:104FD300FC7900EEFAEFFB120C6E024ABB74F4127A
:104FE300036F74F91208E3E9FE8A088B098C0A8DB2
:104FF3000B7413120AA512623D90057E125DC36005
:1050030027EE851882851983F07401120AA57808A2
:10501300120A66EAF8EBF97405120AA5124BD4904A
:10502300057E125032121EAF024BCFFB90034BE0B2
:10503300F8A3E0F583888222C082C0831216FA02A5
:105043004A8374F712036F901069E0F97E00800BB6
:105053001271AB540D64017001190E12523F5003CB
:10506300E970ED024ABB74F712036F90106AE0F91E
:105073007E00800B1271AB548D64817001190E1286
:10508300523F5003E970ED024ABB74F212036F8979
:105093000BE975F006A4240CF508E5F01245228A05
:1050A3000CE508250CFAE5093400FB1215148A0CEB
:1050B3008B0DAE0CAF0DEE4F6027AC08AD09790038
:1050C300121478124A8AE50BF0EE2508F8EF350939
:1050D300F98E828F83A3A3A3A3A3A3A3A3A3124B9A
:1050E30051EEFAEFFB02603874F612036FEAFEEB3F
:1050F300FF120C4A901068E0F8E9C3984009900346
:105103004512623D120C50EE2402F8EF12684D90E6
:105113000347126707900347E004F0EEFAEFFB1230
:105123000C56850882850983E0026D03C082C08323
:10513300790090034580010912623D8A828B83E5E1
:1051430082458370F2024A8374F712036FEAFEEB1F
:10515300FFEE4F6056900345125DC3604E8882890F
:10516300837A007B00EE65827003EF6583600FAA8C
:1051730082AB831251B1E5824583602F80E79003B0
:10518300451251BD687002EF698E828F83700812D9
:105193004B4590034580031275F9124B51EEFAEF1C
:1051A300FB121E50EEFAEFFB12151A024ABB125104
:1051B300B522125531888289832212552DEE22C0E1
:1051C30082C083900345800488828983125DC36013
:1051D3000B88828983125875EC4D70EC8A828B831D
:1051E300E4F0A3F0E8496006888289838003900392
:1051F30045124ACB024A8374F712036F900345802A
:10520300048A828B8312523A4B60257E0080010E02
:1052130012523F50ECEE75F006A4FCADF0EA2CFC04
:10522300EB3DFDEC2410F582ED12528F70E180040A
:105233007A007B00024ABB1266DCEA22125298EE25
:10524300C3982274F712036F7D0080010D125294EC
:10525300EDC3985034ED75F006A4FEA8F0E8FFEA1C
:105263002EFEEB3FFFEE2410F582EF12528F70DC1F
:10527300ED75F006A4FEE8FFEA2EFAEB3FFBEA2405
:1052830011F582EB1271BF4CF0024ABB1271CB696C
:105293002212529822127B05EB3400F583E0F822A8
:1052A30074F612036F120D707A007B008025EAF802
:1052B300EBF9E875F006A4F8ACF075F006E9A42C58
:1052C3001266B11279C6A3E41267A7F0A31279CCD0
:1052D300127B439038ED1241A140D37A007B0080CA
:1052E3001C8A088B09740378081209E4126165A308
:1052F30074FEF0A304126587A3E4127B439038F98C
:1053030012534240DC7A007B00801D8A088B0974AB
:105313000378081209E474AD126E37740F12767EA7
:1053230074FEF0A304127B439038FF12534240DB18
:105333009038F8E493900353F012534C024B5AE421
:1053430093F8C3EA98EB9400227CE87D037A107B00
:10535300009003C2E0F91215CE2274F012036F74A9
:10536300F51208E38A088B09890A8C0BE9A2E0503D
:10537300147508FC7509FFA2E15005D2E402541F1D
:10538300D2E302541F1260247003A3E0697005790D
:10539300000254ECAC0A7902AA08AB09120D4CE9DD
:1053A30060EDE50AF50C780C12084079027CFE7D6D
:1053B300FFAA08AB09125D9F12084FE9600302546C
:1053C300EAE50AC2E5F50A9003B5E07051E50AA2E1
:1053D300E6404B7403120AA5AC82AD83AA08AB095D
:1053E300120AFAE970321256C08A0C8B0DA80CA966
:1053F3000DE8FEE9FFE8496025EE24020A0AEF12F0
:105403003EB1601AEE2402FCEF3400FD7403120A6D
:10541300A5AA82AB83121CD6E50AD2E5F50A90034E
:1054230048E0F50C900368E0F50EA3E0F50F780E65
:1054330012083C7D017C00900348E0F9AA0EAB0FF3
:10544300120D04740212084FE9F8900348E004F0C7
:10545300E860030254EAE50AA2E55004740E8002F0
:105463007406C0E07401120AA5D0E0126B198A0E0B
:105473008B0FAE0EAF0FEE4F606912550A12552116
:10548300888289837401F07478550AA3127B0BE533
:105493000C127B0BA3E508F0E5091254F9E4F0E5DF
:1054A3000AA2E5500F7403120AA5AC82AD83E82467
:1054B300061254F08E828F83A3A374FDF0A374FFAE
:1054C300F0E50B6015903906E493F8E50BC39850AB
:1054D30009EE2413126AECE50BF0EEFAEFFB120B64
:1054E3009C80067910800279C7740B8049FAE934ED
:1054F30000FB121CD62288828983A3A3A3A312557F
:105503000522126880A322EE2417126AFD7401F0AB
:10551300120EC0EE241A126AFDEAF0A3EB22F01277
:105523007AFF340012552B22F58312553122E0F80D
:10553300A3E0F922740D12084F7F0802058974F65F
:1055430012036F7A007B1012700760089003D47403
:1055530001F0802990061FE064019010B87006E006
:10556300FC79018004E0FC79037A007B00120C6E65
:105573009038EB1255837A007B10125591024B5AE7
:1055830012558722E493FC740193FD227B00900360
:10559300C2E0F91215C82274EC12036F8A088B0952
:1055A3008C0C8D0D890E7414120AA5125F7E74166D
:1055B300120AA5E0F510A3E0F511120F38E9600710
:1055C3007AFF7BFF0256BD9010B7E06402600302CE
:1055D30056B07900AA08AB09120D52A90E120D4656
:1055E3008A128B13AE12AF13EE4F70030256988ECE
:1055F300828F83A3A3A3A3A3E064018E828F83A3DB
:10560300A3706912623D8E828F83A3A3A3A3A3A376
:10561300E054186043903904E4938E828F83A3A3EC
:10562300A3A3F0EA650C7003EB650D6014EA650A49
:105633007003EB650B600AEA65107003EB6511708C
:105643001F781012083CAC0AAD0BAA0CAB0D12105C
:1056530034740212084F8008900367126FF1A3F0AD
:1056630074FE6A700374FF6B601D804EA3A3A3E0F6
:10567300640360298E828F83A3A3A3A3A3E064049E
:1056830070057AFE0255C58E828F83A3A3A3A3A3BD
:10569300E0640270089003B4E0640270101256C014
:1056A3008B0BEA450B6006AA08AB09800DAA08AB71
:1056B30009900349125032121EAF0275E790037529
:1056C300125DA5120FF82274F712036FEAFEEBFFC7
:1056D300120B4EE9700AEEFAEFFB120B5AE9600661
:1056E300EEFAEFFB80047AFE7BFF024ABB74F012F2
:1056F300036F8A0A8B0B8C0E8D0F890975080012B4
:105703000F38E979006003025867AA0AAB0B120D40
:1057130052A909120D468A0C8B0DAE0CAF0DEE4F3C
:1057230060198E828F83A3A3A3A3A3E064027055A1
:105733009003B4E064027003025865AA0AAB0B90AD
:10574300034F125032121EAF120B608A0C8B0DA83E
:105753000CA90DE849700302586588828983A3A3C5
:10576300A3A3A3E0A2E04003025865750C01A2E1E4
:1057730050687901AC0AAD0BAA0EAB0F120C9EE96F
:1057830070640258658E828F83A3A3A3A3A3E064EE
:10579300037005750C0280528E828F83A3A3A3A38B
:1057A300A3E0640160030258659003751258758E77
:1057B300828F83125BCA8A0C8B0DA80CA90DE84952
:1057C30060D19038FDE493FA88828983E0C39A50CC
:1057D300C2A3E0600302586580B988828983A3A3CA
:1057E300A3A3A3D2E1F0EE4F603A8E828F83A3A3EB
:1057F300A3A3A3A3E05418602B7508018E828F83A3
:10580300A3A3120658750CFE750DFF780C12083C05
:105813007900AC0AAD0BAA0EAB0F120D647404121F
:10582300084F803E900368E0650E7004A3E0650FA7
:105833007014903905E493FCA909AA0AAB0B120C66
:105843006E750801801CA90CAC0AAD0BAA0EAB0F38
:10585300120C9EE9700C750801A909AA0AAB0B1278
:105863000CF8A90802553CE50C2415F582E50D1248
:105873006B0012655D2274EA12036F74F01208E381
:105883008A0C8B0D8C088D097426120AA5E0F51479
:10589300A3E0F5157512069003F5125DC36023901E
:1058A3000375125875AA08AB091210228A108B11BE
:1058B300EA4511600D8A828B83A3E07005790002AB
:1058C3005BB2E50C241DF50EE50D3400F50F850ED6
:1058D30082125DAFF51388828983A3A3A3E0FA88BC
:1058E300828983A3A3A3A3E0F9EA2400FEE439FF9A
:1058F300AA08AB09120CFE850E82850F83125BED9D
:10590300E029F50BE50AA2E5500375120E748755DD
:105913000A70177418550A6418600FE50C2417F5FC
:1059230082E50D1271BF651260077901121CBE80FA
:105933008C530A78C3EE94F8EF94FF501D7900EE70
:10594300FAEFFB125BBC601288828983A3A3A3A333
:10595300A3A3E0541860030258C0780812083C7DE2
:1059630000125BE012084FE9F874036870030258F1
:10597300C0E86003025A2B7418550A7003025AE0F8
:10598300E50AD2E0F50AA2E45004D2E1F50AA90A35
:10599300126236125BBC605388828983A3A3A3A3DC
:1059A300A3A3E05418604488828983A3A3A3A3A379
:1059B300E064017036E510451160309003751258AC
:1059C3007588828983125BCA8A0E8B0FA80EA90F72
:1059D300E849601788828983A3E0600F8510828578
:1059E3001183A3126D0E50030258C0E50AF50E7819
:1059F3000E120840125BD312084FE9702B7C007D16
:105A03000085148285158374FFF0A3F0850C8285CD
:105A13000D83A3A3A3A3A3A3A3A3E0600312586AC4
:105A2300A90B1262361216B8851482851583E0F429
:105A33007003A3E0F460399003B4E06402700302DE
:105A430058C0125F6FE0FAA3E012502E121EAFEAA5
:105A530065087003EB650960030258C0EEFAEF12A4
:105A6300502E121EAF851482851583EAF0A3EBF046
:105A7300780812083C7D01125BE012084FA90AEE78
:105A8300FAEFFB120D528A088B09A808A9099003A3
:105A930068E0687003A3E0696003025BA3EEFAEFBA
:105AA300FB120B608A088B09A808A909E849606EF4
:105AB30088828983A3A3A3A3E06401600D888289FC
:105AC30083A3A3A3A3E0640270548518828519837A
:105AD300AC82AD83EEFAEFFB120AFA8055900361B4
:105AE300E0600FE50AF50E780E120840125BD31240
:105AF300084FE50AF50E780E12084079027CFE7D08
:105B0300FFEEFAEFFB125D9F12084FE96003025AA2
:105B13002B85148285158374FFF0A3025A72120E2B
:105B2300C0EAFCEBFD851882851983AA82AB831238
