:020000040000FA
:06000000020A960201DA7B
:03002B000208D1F7
:030033000206EDD5
:030043000207862B
:0300530002010B9C
:03006B000206D3B7
:1000830002016F0101FF0503015C105C105C105C51
:1000930010180F120F5C10C02B00000000FC2A0088
:1000A3000000000C0000000C00010400003C1200E2
:1000B3000000000000F61200000000000000000035
:1000C30000FFFF414C443235333020444854313132
:1000D300000101010030050000008105E803640010
:1000E3006400B801020200000002050207051E02B7
:1000F300051E0A03B80B0201023412021F00E007B7
:100103009651180002020612C0E074F21203F3A221
:10011300AFE433FED2AFE5A7FFE5A1F5085F5410C6
:10012300600612197A75A1EFE5085F54086008129A
:10013300198075A1F7802BEFA2E0C0D0E508A2E0FB
:1001430092F01209D3158182F05017906198E0F86C
:1001530090085BE0C398A2D265D0335002E8F075F3
:10016300A1FEEEA2E092AF7F01020452C0E074F25E
:100173001203F3A2AFE433FED2AF9061A4E0F875AB
:100183009B00E59158540860087591F71219C880CF
:100193002AE59158541060087591EF1219CE801B0F
:1001A300E8A2E0C0D0E591A2E092F01209D3158154
:1001B30082F05007E0C2E0F0121B129061A3E0F856
:1001C300E5E9585404600E121AE875E9FB9061934F
:1001D300E0A2E640F2808BC0E074F21203F3A2AF18
:1001E300E433FED2AF9061A5E0F8E5BF5854046054
:1001F3000675BFFB121B2A020165C3E498F8E49954
:10020300F912023E8026C3E49AFAE49BFBE920E755
:10021300E912023EE498F8E499F922C3E498F8E479
:1002230099F912023EE498F8E499F9C3E49AFAE4DE
:100233009BFB22EB20E7CFE920E7E0B90010BB00EE
:1002430008E88AF084F8AAF022E4FBC8FA22EB70EB
:10025300227B10C833C8C933C9335007C39AC3DBE1
:10026300F280069A50012ADBEAC833F4C8C933F492
:10027300C9FA2275F008E4C833C8C933C933C99A27
:10028300C99B5004C92AC93BD5F0ECFBC833F4C859
:10029300E4C9FA22080808EAC0E0EBC0E086F0E708
:1002A300A4FA180986F0E7A42AFA180986F0E7A445
:1002B3002AFA180986F0E7A42AFA1986F0E7A4FBBC
:1002C300E5F02AFA190886F0E7A42BFBE5F03AFAE1
:1002D300190886F0E7A42BFBE5F03AFA181809860B
:1002E300F0E7A4C5F02BFBE43AFA1908E7C5F0C61A
:1002F300A426F6E5F03BFBE43AFA1886F0E7A4F609
:10030300E5F00826F6E43B08F6E43A08F6D0E0FB0D
:10031300D0E0FA22E4CFC0E0E4CEC0E0E4CDC0E018
:10032300E4CCC0E075F020C3E633F608E633F60804
:10033300E633F608E633F6181818EC33FCED33FD14
:10034300EE33FEEF33FFC3EC9709ED9709EE970900
:10035300EF97191919400FFFEC97FC09ED97FD0969
:10036300EE97FE191906D5F0BEECF709EDF709EE85
:10037300F709EFF7191919D0E0FCD0E0FDD0E0FE42
:10038300D0E0FF222518C582C0E0E51934FFC583FC
:10039300C0E0E518C3958224F810AF08858319855A
:1003A30082188008858319858218D2AFCEF0A3E521
:1003B30020F0A37808E608F0A3DEFAEFF0A3E581C6
:1003C30024FAF8E608F0A3E608F0A3E608F0A30889
:1003D30008E608F0A3E608F0A315811581D0E0FE36
:1003E300D0E0F8158115811581E8C0E0EEC0E02268
:1003F300C0D02518C582C0E0E51934FFC583C0E02D
:10040300E518C3958224F310AF08858319858218F4
:100413008008858319858218D2AFC8F0A3E9F0A3B9
:10042300EAF0A3EBF0A37908E709F0A3D8FAECF01C
:10043300A3EDF0A3EEF0A3EFF0A3D0E0F0A3D0E0A0
:10044300F0A3D0E0F0A3E520F0A3E5F0F0A322852C
:100453001983851882E0C0E0A3E0F9A3E0FAA3E0E2
:10046300FBA37808E0F608A3DFFAE0FCA3E0FDA312
:10047300E0FEA3E0FFA3E0C0E0A3E0C0E0A3E0F55B
:10048300D0A3E0F520A3E0A3F5F010AF088583190E
:100493008582188008858319858218D2AFD082D0CF
:1004A30083D0E0F8D0E032120AF8B900030204EC7A
:1004B300E490030178B2790A8002F0A3D8FCD9FA58
:1004C300900CB2AA82AB839000867886790180155E
:1004D300E493A3AC82AD838A828B83F0A3AA82AB1D
:1004E300838C828D83D8E9D9E77582BD7583957432
:1004F300031208497582BE75831D7400120849E80A
:100503000375F0108E1A8F1B85821F85831E851835
:1005130082851983E0CEA3E0CF851F82851E83EBFE
:10052300C9EAC8EDCBECCAC3E833C8E933C9EA3337
:10053300CAEB33CBC3EA9EF51DEB9FF51CB3500406
:10054300AB1CAA1DEC33CCED33CDD5F0DAAE1AAF2C
:100553001B22D083D082ECC0E0EDC0E0E493A3FC87
:10056300E493A3FDED4C600D12062DEC24FFFCED8E
:1005730034FFFD80EFE493A3FCE493A3FDED4C6013
:100583000D120731EC24FFFCED34FFFD80EFD0E0CA
:10059300FDD0E0FCE493A3C0E0E493C0E02285191E
:1005A30083851882E0A3FEE0A3F5207808E0A3F694
:1005B30008DFFAE0A3FFE0A3C0E0E0A3C0E0E0A30C
:1005C300C0E0E0A3C0E0E0A3C0E010AF088582185C
:1005D3008583198008858218858319D2AFD083D08B
:1005E3008202084FD083D082E9C0E0E493A3C3869C
:1005F300F0C5F095F0F908E493A386F0C5F095F003
:10060300700BE493A3C3994005E9048002A3E47546
:10061300F002A42582F582E5F03583F583D0E0F975
:10062300E493A3C0E0E493C0E022C0E0C3E4939664
:10063300087401939618400FE493667008087401D8
:1006430093661870007019A3A3C3E493960874010A
:10065300939618A3A3400DD0E0D0E0D0E00205911B
:10066300A3A3A3A3A3A3D0E022D083D082C5F0E4A5
:1006730093A3C5F0C395F0F5F0E493A3C395F040BD
:1006830005E5F0048001E475F002A42582F582E516
:10069300F03583F583E493A3C0E0E493C0E02274D0
:1006A30004800474028000CCC0E0EDC0E0E518C310
:1006B3009CCCAD1950011D10AF068C188D19800606
:1006C3008C188D19D2AF1207CBD0E0FDD0E0FC22FD
:1006D300C0E074F21203F3E589A2E1500312182477
:1006E300758900C2C57F01020452C0E074F212038F
:1006F300F3E58BA2E05003121824758B00C2E88047
:10070300E474028000CCC0E0EDC0E0E518C39CCCEB
:10071300AD1950011D10AF068C188D1980068C1869
:100723008D19D2AF1207A9D0E0FDD0E0FC22C0E0C2
:10073300C0F088F0E493667008087401936618703B
:1007430000A8F0A3A3700BD0F0D0E0D0E0D0E0027B
:100753000591A3A3D0F0D0E022D083D082CCC0E017
:10076300E493A3600612082A1470FAE493A36006C4
:1007730012091B1470FAD0E0FCE493A3C0E0E493E5
:10078300C0E022C0E074F21203F3A2AFE433FED25E
:10079300AFC2C0E5D1A2E450031218F0EEA2E0927A
:1007A300AF7F01020452CAC0E0E493A3C582CCC563
:1007B30082C583CDC583F0A3C582CCC582C583CD55
:1007C300C583DAE5D0E0CA22CAC0E0E0A3C582CC83
:1007D300C582C583CDC583F0A3C582CCC582C5833D
:1007E300CDC583DAE6D0E0CA227009080808226082
:1007F30016181818C6C333C608C633C608C633C688
:1008030008C633C6D5E0EA22C008C3E096F5080857
:10081300A3E096420808A3E096420808A3E09645A1
:10082300087001D3D00822C0E0E493A3D39C5010F6
:10083300E493A3C39C400AD0E0D0E0D0E002077960
:10084300A3A3A3D0E022C09FF59FE473D09F22D03F
:1008530083D082C09FE493C0E0740193C0E074022C
:1008630093F59F227404800A740380067402800245
:100873007401C0E0F404120882D0E0120AD32225E6
:1008830018F58210AF08F518400215198008F518FD
:1008930040021519D2AF85198322BB0102E722C09A
:1008A30082C08389828A83BB0003E08002E493D001
:1008B30083D08222C0D0251810AF08F51850020546
:1008C300198008F51850020519D2AFD0D022C0E024
:1008D300C0D0E8C0E0E5A8D2AFC2C7A2E792AFD0CC
:1008E300E0F8D0D0D0E0326016080808C6C313C6BB
:1008F30018C613C618C613C618C613C6D5E0EA220F
:10090300C3E0C696F608A3E0C696F608A3E0C6962B
:10091300F608A3E0C696F622C0E0E493A36C700940
:10092300D0E0D0E0D0E0020779A3A3D0E0222518DD
:1009330010AF08F518400215198008F51840021584
:1009430019D2AF22E76670100809E766700A080932
:10095300E76670040809E76622E066701008A3E002
:1009630066700A08A3E066700408A3E06622C3E089
:100973009608A3E09608A3E09608A3E096A2D265A2
:10098300D03322C3E096F008A3E096F008A3E096E4
:10099300F008A3E096F022E026F008A3E036F00882
:1009A300A3E036F008A3E036F022E627F60809E6CE
:1009B30037F60809E637F60809E637F622E026F6A1
:1009C30008A3E036F608A3E036F608A3E036F622DD
:1009D300C0E0E8C0E0E58124FCF8E6A2E7D0E0F857
:1009E300D0E022E647F60809E647F60809E647F6A7
:1009F3000809E647F622E657F60809E657F6080916
:100A0300E657F60809E657F622E056F608A3E0563D
:100A1300F608A3E056F608A3E056F622E056F008DF
:100A2300A3E056F008A3E056F008A3E056F02270C6
:100A33000422600D18C6C333C608C633C6D5E0F416
:100A43001822E4C396F608E496F608E496F608E45A
:100A530096F622600D08C6A2E713C618C613C6D5BC
:100A6300E0F322C6F4C608C6F4C608C6F4C608C630
:100A7300F4C622C3E7960809E7960809E79608092A
:100A8300E79622C3E09608A3E09608A3E09608A39E
:100A9300E0962275D0007581407518017519030021
:100AA3000204AAE0F608A3E0F608A3E0F608A3E030
:100AB300F622600C08C6C313C618C613C6D5E0F4E5
:100AC30022E6F008A3E6F008A3E6F008A3E6F02286
:100AD300CAC0E0E6F0A308DAFAD0E0FA22E0FAA30B
:100AE300E0FBA3E0FCA3E0FD22EAF0A3EBF0A3EC20
:100AF300F0A3EDF022E5C754F84401F5C7790122CC
:100B03002518F582E43519F58322C2AF75D69F0205
:100B1300000022120852C9AC01120852C0AD0112E2
:100B230008520FB00112085262B10112085205B205
:100B33000112085250B3011208526EB30112085247
:100B4300EADB01120852FCDB011208524EDC0112EF
:100B53000852AFDC0112085239DD01120852DDDD03
:100B63000112085231DE011208524ADE0112085204
:100B730070DE01120852ABDE01120852EFDE0112E1
:100B8300085216DF0112085267DF0112085217E0FC
:100B930001120852CFE00112085297E101120852E4
:100BA30074E201120852FAE20112085209E3011237
:100BB300085214E3011208521DE4011208522EE4F4
:100BC30001120852A4E40112085236E50112085238
:100BD3008EE50112085254E60112085285E601120D
:100BE3000852CAE601120852D7E6011208526BE80E
:100BF30001120852CEE901120852EAEA0112085220
:100C030054ED011208525FED0112085269ED011211
:100C1300085274ED011208527EED0112085288ED5C
:100C23000112085293ED011208529EED011208526F
:100C3300CFED01120852F3ED0112085217EE011223
:100C430008527CEE01120852C0EE01120852DCEE8B
:100C53000112085253EF011208528BEF011208528E
:100C6300D7EF0112085234F00112085216F20112A2
:100C730008529CF2011208526DF3011208527DF6DC
:100C830001120852D2F601120852FEF6011208525E
:100C93004AF8011208529AF801120852EFF80112A9
:100CA3000852F0F90112085288FA011208520AFB9D
:100CB30001120852AAFB01120852E02D0012085239
:100CC300192E00120852F32F00120852323000126C
:100CD30008527C3000120852213100120852803130
:100CE30000120852B4310012085221320012085285
:100CF3003E3300120852463400120852DC3400120C
:100D03000852233800120852CC3800120852A8396E
:100D130000120852093A00120852263B00120852E8
:100D2300503D00120852073E00120852113E0012B5
:100D33000852443E001208520B3F00120852A63FCD
:100D4300001208520B40001208523440001208529D
:100D53005640001208528542001208525C430012AA
:100D63000852A043001208520D4400120852C8440E
:100D730000120852FA44001208523E45001208526B
:100D8300714500120852C645001208521B46001254
:100D93000852AF4600120852114700120852794711
:100DA300001208522249001208520A4A001208523D
:100DB3004C4B001208527A4D001208523A4E001260
:100DC30008526950001208520C51001208524A513D
:100DD30000120852F652001208520A530012085227
:100DE3001453001208523E53001208524A53001281
:100DF30008526953001208522054001208525F54DB
:100E0300001208526954001208521D55001208526C
:100E13001C5600120852155700120852B2570012FE
:100E230008525458001208526B5800120852A25824
:100E330000120852C05800120852045900120852F6
:100E43002959001208520F5A001208527B5A0012F5
:100E53000852F55A00120852045C00120852435D0E
:100E630000120852A55D001208525F5E001208527C
:100E7300825E00120852565F00120852A15F0012F0
:100E83000852E35F001208523A6000120852716080
:100E9300001208529F6000120852D86000120852D4
:100EA300FD6000120852856100120852A863001207
:100EB30008520764001208529B6400120852076527
:100EC300001208525B650012085247C10312085210
:100ED30086C103120852B3B4011208520DB50112B0
:100EE300085269B501120852B5B501120852D0B5BE
:100EF3000112085201B6011208521EB6011208521D
:100F03002AB6011208529EB701120852B7B701124E
:100F130008521EB80112085231B8011208523FB8E4
:100F230001120852F3B801120852D7B9011208523C
:100F3300DDBA0112085263BB011208526DBB0112E4
:100F43000852DABB01120852F1BB0112085223BC4A
:100F5300011208525CBC0112085286BC01120852ED
:100F6300E7BC0112085207BD0112085225BD011248
:100F730008526BBD0112085291BE01120852DEBE27
:100F8300011208520DBF0112085283BF0112085209
:100F9300ABBF01120852E4BF01120852F2BF0112A3
:100FA30008524AC00112085299C001120852D8C00F
:100FB3000112085208C10112085234C10112085229
:100FC3003FC1011208525DC1011208521FC2011232
:100FD300085229C20112085264C2011208527AC28D
:100FE3000112085283C201120852D8C201120852D8
:100FF300ECC201120852FAC3011208520DC40112C5
:10100300085222C401120852C4C40112085247C52F
:101013000112085205C60112085210C601120852E5
:1010230036C70112085252C701120852A4C701124F
:101033000852E3C701120852F8C7011208523AC80E
:101043000112085287CA0112085205CB0112085235
:1010530078CB011208529ACD01120852B2CD011277
:101063000852B5CD01120852C1CD01120852D5CD97
:1010730001120852DDCD0112085210CE011208529E
:10108300C0CE0112085236CF01120852A9CF011265
:1010930008525DD00112085212D10112085231D107
:1010A30001120852D1D101120852DDD101120852A6
:1010B30008D2011208520BD20112085275D2011242
:1010C30008529DD30112085275D40112085200D55B
:1010D3000112085219D601120852D6D6011208522B
:1010E3000FD70112085240D701120852E0D701125C
:1010F300085210D801120852EBD80112085284D9B1
:10110300011208520FDA01120852C0DA0112085212
:1011130042DB0112085274DB01120852B5DB0112E3
:10112300085271D202120852D6D20212085213D3B5
:101133000212085262D30212085278D502120852E0
:101143005BD702120852C5DA0212085200DB021200
:10115300085222DB0212085285DB02120852B9DB65
:1011630002120852DCDB0212085209DC0212085296
:1011730065DC021208525BBC02120852D9BC02128F
:1011830008520FBD021208527BBD02120852EEBE76
:10119300021208520ABF021208524FBF021208522B
:1011A300DDBF0212085236C00212085263C1021296
:1011B300085275C202120852D2C2021208523EC32A
:1011C300021208529FC302120852E0C302120852CD
:1011D3008DC4021208529FC502120852CAC50212D8
:1011E300085215C6021208525CC602120852EEC615
:1011F30002120852A9C70212085231AF0312085251
:1012030061AF03120852B6AF03120852D2B50312EC
:101213000852E3B50312085234B60312085279B6E2
:101223000312085223B70312085250BE0312085286
:101233009EB203120852F6B30312085220C80212D8
:101243000852C5C802120852E5C80212085205C95D
:101253000212085219C90212085271C90212085225
:10126300A1C90212085222CB02120852C8CB0212A1
:101273000852AACC02120852FBCC021208523ECDED
:101283000212085281CD02120852E7CD021208520F
:1012930008CE0212085294CE02120852C5CE021290
:1012A300085239CF02120852E7D002120852C1D1B4
:1012B3000212085203D2021208525DD202120852DD
:1012C30059AD031208527AAD03120852B0AE03129D
:1012D3000852DAAE031208520E9C03120852899C7C
:1012E30003120852949C03120852B59C031208522D
:1012F3001EB00212085221B002120852DBB00212D1
:10130300085206B1021208524DB10212085272B1CC
:101313000212085293B102120852C7B102120852C4
:1013230000B20212085229B30212085260B3021229
:10133300085280B3021208521BB402120852E0B4DE
:101343000212085217B5021208528CB60212085242
:101353002FB70212085228B80212085251B80212CB
:101363000852A5B8021208526BB90212085299B971
:10137300021208522EBB02120852AFBB02120852CD
:10138300E2BB02120852B1DC02120852BBDC0212A9
:10139300085207DD0212085275DD0212085296DD6B
:1013A30002120852ADDD021208525DDE021208522B
:1013B300F1E00212085284A3011208524DE1021215
:1013C300085276E102120852DDE1021208526EE27F
:1013D30002120852B0E202120852FAE20212085252
:1013E30059E302120852EAE30212085229E40212F4
:1013F300085268E4021208529DE402120852AFE454
:1014030002120852C1E402120852E0E40212085226
:10141300ADAC011208529FE502120852DFE5021239
:1014230008526A89031208523D8A03120852578AE6
:1014330003120852688A031208527D8C0312085261
:101443009C8C0312085227AB031208525DAB0312A4
:101453000852A6AB03120852F6AC03120852956564
:1014630000120852D4660012085210670012085284
:10147300CF6800120852F868001208528B6B0012F2
:101483000852CF6B00120852586D00120852F06DCB
:1014930000120852586E00120852F96E00120852D8
:1014A3003B6F001208527B6F001208520671001244
:1014B30008527672001208529B7400120852C974C3
:1014C30000120852F07400120852F9740012085204
:1014D300547500120852E77500120852057900127C
:1014E3000852867900120852E37F00120852FCC0AA
:1014F300031208525892031208526B9203120852B5
:101503000893031208524393031208525E93031283
:101513000852839303120852C89303120852F99393
:10152300031208522A9403120852B0950312085268
:101533009BB803120852D1B803120852EDB8031234
:1015430008522FB9031208523FB903120852D4B9F3
:1015530003120852DEB903120852F58D0312085222
:10156300AF8E031208525F8F03120852A48F031227
:101573000852349003120852AA90031208528FA003
:1015830002120852E7A00212085291A10212085255
:1015930039A20212085296A202120852EFA20212B4
:1015A300085203A302120852CDA40212085248A5FE
:1015B3000212085272A5021208522FA702120852F1
:1015C3004AA70212085299A702120852AFA70212A1
:1015D3000852BCA702120852F0A70212085206A82A
:1015E300021208528CA8021208529BA80212085237
:1015F300F4A8021208524EA9021208529CA9021220
:101603000852A6AA0212085228AD02120852C2AD0D
:101613000212085204AE0212085299AE0212085284
:10162300B6AE02120852B9AE02120852BCAE021292
:1016330008522FAF021208524AAF0212085276AF75
:1016430002120852B1AF02120852B4AF021208528A
:10165300C7AF02120852EEAF0212085279C003124A
:10166300085285C003120852BFC003120852BE902D
:1016730002120852E99002120852B591021208525E
:101683003A9202120852A39202120852EF920212E5
:1016930008526E93021208520094021208528C945C
:1016A30002120852CE94021208523A9902120852B8
:1016B300BA9A02120852F99A02120852C29B0212F3
:1016C3000852769C02120852269E02120852B29EBB
:1016D30002120852008002120852BA800212085203
:1016E3002C81021208523B8102120852B581021268
:1016F30008522482021208522E8302120852578380
:1017030002120852F7830212085245840212085249
:10171300B58402120852E98502120852C5860212E4
:101723000852368702120852B3880212085275898A
:1017330002120852108A021208526B8A02120852CD
:10174300D68A02120852DA8B021208529B8D0212B9
:1017530008523A8E02120852AC8E02120852698F56
:1017630002120852DD9E03120852319F03120852DF
:10177300899F03120852D49F0312085236A0031202
:101783000852CFA00312085237A10312085243A1F3
:1017930003120852D1A80312085202A903120852D5
:1017A300BCA90312085222AA0312085293AA0312D5
:1017B3000852489603120852D49703120852187F0E
:1017C30000120852297F00120852C97F00120852E2
:1017D300E6B003120852F4B003120852E7FF0112F5
:1017E3000852E3BF03120852F3BF031208520EC09C
:1017F300031208526FC0031208524EBD031208525F
:10180300D3BD0312085237BE031208523CBC031265
:1018130008525EBC03120852C8BC03120852D3BC60
:101823000312085217BD0312085244EF0212085262
:1018330052EF0212085293EF02120852B4EF02124F
:10184300085231F00212085299F002120852BBF00A
:10185300021208521EF10212085239F10212085202
:1018630054F1021208525EF10212085268F1021298
:1018730008527BF10212085294F10212085230F21C
:1018830002120852ECF2021208526CF302120852CE
:10189300E6F30212085232F402120852D9F4021289
:1018A3000852B5F5021208525DFC011208526BFC96
:1018B30001120852E5FC01120852C9FD0112085237
:1018C30082FF011208529BC203120852E3790012ED
:1018D3000852507A00120852117B00120852817B81
:1018E300001208528A7C00120852027E001208522B
:1018F300667E00120852BB7E00120852C47E00129C
:101903000852D37E00120852E67E00120852FC7E73
:1019130000120852057F001208525FF702120852A4
:10192300B4F702120852B0F902120852E2F9021295
:10193300085204FA021208521DFA0212085236FA29
:101943000212085240FB02120852DBFB0212085239
:101953003AB7031208525EB70312085277B703125D
:101963000852AAB703120852DBB70312085209B888
:10197300031208526BB8031208527AB803120852C2
:1019830084B80312085291B8031208527EA10312BD
:101993000852A4A103120852E1A103120852F0A1B4
:1019A300031208520FA20312085277A2031208521D
:1019B30080A203120852DFA20312085203A30312E8
:1019C3000852C2A303120852CFA303120852E0A382
:1019D30003120852D4C103120852F1C10312085270
:1019E300388003120852968103120852A38103120E
:1019F3000852B68103120852D58103120852EB81B3
:101A030003120852FF810312085274820312085210
:101A1300D982031208528983031208525E84031287
:101A230008526E84031208527D84031208524ABF7F
:101A3300031208526EBF0312085296BF03120852D4
:101A4300BEBF031208520EA40312085235A4031298
:101A5300085256A403120852BBA40312085274A6D8
:101A6300031208528DA60312085299A603120852B4
:101A7300ADA603120852CBA603120852D5A6031231
:101A83000852DFA603120852F2A60312085245A712
:101A9300031208527EA703120852ADA7031208527D
:101AA300FBA7031208524AA80312085265A803129F
:101AB30008526FA80312085280A803120852C6A83E
:101AC300031208529AFF0212085208E60212085241
:101AD30032E6021208524EE60212085261E6021280
:101AE300085277E602120852D4E60212085207E7B8
:101AF3000212085243EB0212085269EC0212085216
:101B03009CEC02120852E8EC0212085214EE021284
:101B130008523CEE0212085251EE0212085261EED4
:101B230002120852A5EE0212085206EF02120852E0
:101B330016EF02120852F6B90312085211BA031231
:101B430008523ABA0312085254BA0312085279BA25
:101B53000312085298BA03120852B0BA0312085279
:101B6300DEBA03120852F8BA0312085290C10312E4
:101B730008521AFC0212085221FC021208522DFDCF
:101B8300021208525DFD0212085283FD021208522E
:101B9300A6FD02120852C8FD0212085202FE0212EA
:101BA300085268FE02120852A1FE02120852EDFE0C
:101BB300021208521AFF021208523AFF0212085286
:101BC30045B40312085257B40312085242B5031224
:101BD3000852CFB50312085229BB031208529BBB0C
:101BE30003120852D9BB031208521ABC031208523B
:101BF300FB980312085217990312085266990312AD
:101C03000852829903120852B39903120852C399D6
:101C130003120852AF9A03120852B99A03120852D8
:101C2300C69A03120852D69B03120852EA9B031268
:101C33000852F39B03120852B68403120852FB881E
:101C43000312085200890312085246C203120852B3
:101C530010C20312085273C203120852BDC2031208
:101C63000852D8A20112085229A101120852E49E77
:101C7300011208526B9E01120852129E0112085261
:101C8300A69D011208527D9D01120852709B0112FC
:101C930008523C9B01120852099B01120852ED9A0B
:101CA30001120852139A01120852CB9901120852D9
:101CB3000098011208528097011208527D97011271
:101CC30008528496011208525296011208528F95B7
:101CD30001120852BA93011208524B93011208528F
:101CE3001D93011208523DAC01120852F4AB0112CC
:101CF3000852ACAB01120852EAAA011208525DAABB
:101D0300011208521A930112085207930112085242
:101D13009F92011208528E920112085250AA011288
:101D230008526F9101120852399101120852FC9026
:101D3300011208529D90011208525EA70112085227
:101D4300E9E4021208526C9001120852278D011225
:101D53000852188C01120852A78B011208526C8B7F
:101D630001120852378B011208522B8B01120852B1
:101D73008B8A01120852D28901120852A5870112D7
:101D83000852318501120852EF8401120852BA83B6
:101D9300011208526F8301120852A18201120852E4
:101DA300F88101120852948101120852CE81011266
:101DB3000852B0A401120852FAE00200000080FBAE
:101DC300E47300004FF8280802208410488800803C
:101DD3002FF821C042A042A0849088880080220866
:101DE300224822482248FA482248224822482248C8
:101DF3003A48E24802480208040804000200FFF8D7
:101E0300020002007FF042104210421042104210C2
:101E130042700200020004000200FFF880088408F8
:101E23000400FFF8084010403C80030004C0182061
:101E3300E0100110FCA0480049F0784048404840B9
:101E43007BF8484048405CA0E8A009100A081080CD
:101E530027F8408097F01550255067F0A00027F031
:101E6300210020902A882A2831E000200D2070A02C
:101E730010A01220FD20112030383BE05420902088
:101E8300102010201020208020802080F7F0208058
:101E9300208027E03220E2202140208021402220A0
:101EA300EC1800003FF82108210821083FF8210819
:101EB30021083FF821082108410841088038020021
:101EC30001003FF82008200820083FF820082000E0
:101ED3002000200040004000800001207D4004904D
:101EE30028A010402FA040189FC0104010401FC0D2
:101EF30010400880FFF800007FE000203FE0002052
:101F0300FFF80200222013400A8012402220C21848
:101F13000E00210021102110F920A940A900ABF8DF
:101F2300A940A940A920B9202150218821003FE0E0
:101F3300202020203FE000000000FFF808001000F0
:101F43003FE000200020002000C00200FFF88008CE
:101F530004405290510892280FE03000C200222022
:101F630022203FE00020000007E0F820222022206A
:101F730042207BF8C80848084FE848087808480812
:101F83000030010001F0FA10242023F842487A4877
:101F9300CBF84A484A484BF87A48424804180400A8
:101FA3000200FFF8800800003FE002000200220068
:101FB30023E02200220052008FF80000FC004BF0C7
:101FC300491079104910491078A048A04E40F840B4
:101FD30008A009100A080080449022A0108007F08E
:101FE3008410441017F01410241027F044104410E8
:101FF3000470020002007FF004000400FFF80800F0
:1020030010003FE0002000401C8003000080088097
:102013000880088088904890489028A028A028C06D
:102023000880088008800880FFF8020002007FF023
:1020330004000400FFF8080010003FE00020004007
:102043001C800300008001004080200017F0008006
:1020530080804080008017F01080208020804080A6
:102063004FF800007FF00200020002000200FFF8B8
:1020730005000500090011002108410880F820A08F
:102083002090488048F0F380108020B843C0F89037
:1020930000A0004818A8E318000847F0212020C03A
:1020A30007F00490E49027F02490249027F02490E4
:1020B30024B050008FF840002FE02220022002209D
:1020C300E2202FE02220222022282A283228221848
:1020D300020840502048204007F8E440244827489D
:1020E300255025502D2035282B68089811081100FC
:1020F30010802FF8200067F0A00027F0200027F0C1
:1021030024102410241027F02410040002000000DF
:102113007FF00000000000202020104010400880C5
:1021230008800100FFF800003FE02020202020204D
:102133003FE002000200220023F0220022005200AE
:102143008FF81010101028102490429080907C90EB
:102153004490449044905810421042103E7020180E
:1021630010E0FE8044802880FEF800901090FE90DE
:10217300109054909290111072100080FE80108085
:1021830024F84310FE9012901090FEA010A010406F
:102193001EA0F1100208000047E02000200000000C
:1021A3000FF0E240224022402248244828385000C1
:1021B3008FF80000F3E012201220F3E0808087F014
:1021C3008490F49017F0108010901FF860080200BC
:1021D300020002000200FFF80200050005000500EE
:1021E3000880088010402020C0183FF8208021007C
:1021F30027F0241027F0241027F02080249024882F
:1022030048884080838007E04420242007E084201E
:10221300442007E020002FF04A504A508A508A5049
:102223001FF800004FF0281008108FF04810081016
:102233002FF0224052484A50866082401FF8020025
:1022430001003FF824203FF8242027E020002FF04E
:10225300242022404180466098182100210041E05B
:102263009220F540208041408220F41801800060D4
:102273003300C0C00020204012481248FA4803F837
:1022830008008BF8488053F852A802A81AA8E2A8BD
:102293000218000000000000000000000000FFF82A
:1022A300000000000000000000000000000000002B
:1022B30000007FF0000000000000000000000000AC
:1022C300000000000000FFF8000000007FF00000A5
:1022D30000000000000000003FE0000000000000DC
:1022E30000000000FFF800007FF844884488448819
:1022F30044884488448844884878500840087FF8D4
:10230300400810801FF8100027F0241067F0A00089
:102313002FF8280827F020402040204021C0020049
:102323000200020002107B200B400A801280124040
:1023330022204210820802000E0002000200020066
:102343007FF0421042107FF0421042107FF04200B3
:102353000208020801F810407FF002003FE0040089
:10236300FFF808001FE030205FE090201FE01020FE
:102373001FE002000200020022102210222045402A
:10238300850005000880088010402020C018103008
:1023930091C0D500B9009100FDF89120B920D52056
:1023A3009520912091208220FC2000007FF8400896
:1023B300422853284AA8444844484AA84AA85108EE
:1023C30062084008403820802080249024B0F5D053
:1023D3002E9024902490249024B03480C4080408C0
:1023E30003F82040204020402040FA402278224039
:1023F3002240224022403A40E24002400FF82100AE
:1024030021002100FBE02120212021202530252847
:10241300292822202220242028C0400027F82488AD
:102423000488E5E8248827F8240825E82D2835289A
:1024330025E8040808387DF0451045107DF000407C
:102443000220FFF808803060C0187DF04510451069
:102453007DF00080788048F049104AA0784010A0B1
:1024630053185C0051F051105D10E1F001100200AF
:10247300020002007FF042104210421042107FF02F
:1024830042104210421042107FF000000000000092
:1024930000000000000018001800000000001800F1
:1024A3001800000000006000900097E8681810080A
:1024B300100810001000100010001008081007E0AA
:1024C300000018002408241024202440248019002C
:1024D30002600490089010902090409000600000EB
:1024E30000000000000000000000000000001010C9
:1024F30010101010000030300000001428500000AD
:1025030000000000000000000000002828FC28480C
:1025130050FC50500000000010385454301814542C
:102523005438100000000044A8A8B0541A2A2A44C2
:10253300000000000020505060ACA898927C00007E
:1025430000606020C00000000000000000000004E4
:102553000808101010101010080804000000402094
:10256300100804081020400000000000001010D6DE
:102573003838D61010000000000000101010FE10B4
:102583001010000000000000000000000000000028
:10259300606020C0000000000000FC00000000009C
:1025A3000000000000000000000000006060000068
:1025B300000204040408081010202020400000003A
:1025C3000030488484848484483000000000001074
:1025D300701010101010107C0000000000384444EC
:1025E30004081020447C0000000000384444180410
:1025F3000444443800000000080818284848887C30
:10260300081C00000000007C404078440444443827
:1026130000000000003C4480B8C484848478000037
:102623000000007C44480810101010100000000047
:1026330000788484487884848478000000000078DB
:102643008484848C740488F000000000000000304F
:1026530030000000303000000000000000001000D7
:102663000000001010200000040810204020100873
:10267300040000000000000000FC0000FC0000005B
:102683000000000040201008040810204000000053
:1026930000007884848408101000303000000000AB
:1026A3000038449AAAAAAAB4423C000000000010D1
:1026B30010282828384444EE0000000000F8444461
:1026C3007844444444F800000000003C4484808083
:1026D300808044380000000000F0484444444444EF
:1026E30048F00000000000FC44404878484044FCA7
:1026F3000000000000FC42404878484040E00000F1
:102703000000003C448480808E8444380000000034
:1027130000EE4444447C444444EE00000000007C4A
:10272300101010101010107C00000000007C10101E
:1027330010101010101090E0000000EE444850708C
:10274300484844EE0000000000E040404040404064
:1027530044FC0000000000EE6C6C6C54545454D6DE
:102763000000000000EE64645454544C4CE4000038
:1027730000000030488484848484483000000000D2
:1027830000F844444478404040E00000000000303A
:102793004884848484B448380C00000000F844441E
:1027A3007850484844E600000000003C44402018AC
:1027B300040444780000000000FE92101010101072
:1027C30010380000000000EE4444444444444438BC
:1027D3000000000000EE44442828282810100000C0
:1027E300000000D6545454546C28282800000000DC
:1027F30000EE44282810282844EE0000000000EED4
:10280300442828101010103800000000007C8808AD
:102813001020204044FC0000001C10101010101069
:10282300101010101C000070101010101010101059
:1028330010107000007010101010101010101010F5
:1028430070000010280000000000000000000000DD
:1028530000000000000000000000000000FE006017
:102863006020C00000000000000000000000000025
:10287300000038441C24443E0000000000C04040D7
:1028830078444444447800000000000000003C44C5
:102893004040443800000000000C04043C4444441D
:1028A300443E000000000000000038447C404438EF
:1028B30000000000001C2420F820202020780000C5
:1028C3000000000000003C484830407844380000D5
:1028D30000C040405864444444EE0000000000102F
:1028E300000070101010107C0000000000080000B1
:1028F3003808080808080870000000C040405C4819
:10290300507048EC00000000007010101010101000
:10291300107C0000000000000000F854545454D60A
:102923000000000000000000D864444444EE0000AE
:102933000000000000003844444444380000000014
:1029430000000000F8444444447840E000000000E4
:1029530000003C444444443C040E000000000000DA
:10296300EC30202020F800000000000000003C4470
:102973003008447800000000000010107C10101094
:10298300100C0000000000000000CC444444443E0E
:102993000000000000000000EE442828281000007A
:1029A300000000000000D654545428280000000002
:1029B30000000000DC48303048EC0000000000005C
:1029C3000000EE442828101020E000000000000062
:1029D3007C481010247C00001010101010101010F0
:1029E3001010101010100001363601010001020111
:1029F30000010301000104010606050200000701AE
:102A030000340801000F090401010D0100FF0E0845
:102A1300000017020000190100FF1A0100011B0149
:102A230000FE1C0100081D0200001F01000120011F
:102A33000001210200002301000F240200002601EF
:102A4300000127010008280200FF2A0100072B01CB
:102A530002402C0100002D0100012E0100012F0175
:102A630000FF30010B1C310800003A0100083B0154
:102A7300000F2F010000C9EEDBDACAD0B0B2C1AA41
:102A8300B5C2BFC6BCBCD3C3BBA7B5C7C2BCD5CA3E
:102A9300BAC5C3DCC2EBC8B7B6A8C8A1CFFBD7A8D9
:102AA300D2B5D7A8D7A2CEDECFDFCDA8D1B6B3CFCC
:102AB300D0C5C1A2D7E3B4B4D0C2D6C2D4B6C7BFBF
:102AC300B4F3D4ADCEC2CAAAB6C8D6D5B6CBD2BBA0
:102AD300B6FEC8FDCBC4CDA3CBAEB5E7D7C5BBF01F
:102AE300B6CFCDF8B5D8D6B7D0ADB5F7C6F7C2B720
:102AF300D3C9A3BAA1E6A3A500010371030103018E
:102B03000301030103010322030203010310030072
:102B13000300030003000300030003000342030058
:102B23000324030603000300030403120325032302
:102B330003250323030403040300030003000344E6
:102B4300030003000323030003650321003503810E
:102B530003000305030003000300030302710230B3
:102B630001600211027002010202020202800210DD
:102B73000261023A0041006302730272026202437D
:102B830002000213023800000200020402120200D3
:102B93000200020002000204020402370037003C74
:102BA30002440200023900000200026502000235FD
:102BB3000281020002050282028302000203007105
:102BC30000300160001100700031022003500480C6
:102BD30000100061000000140063007300720062C3
:102BE3000043000000130006000000000004001270
:102BF300000000000000000000040004003700375C
:102C0300003C0244000000000000000000650000DA
:102C13000035008100000005000000830000000172
:102C230001710101010101110101013101010101E1
:102C3300018001100161013B001400630173017203
:102C430001620143010001130106013D0135000446
:102C5300011201000100010001000104010401331C
:102C63000133013C014401320136000001000165DA
:102C7300010001350081010001050182018301008A
:102C83000136000100060000000F000000000000F4
:102C93000000000000000003FFFF00000403FFFF2B
:102CA3000000FFFF0FF4010005C40403200001002E
:102CB300030B000000000000000003010F010010DF
:102CC300170200861603008C16040092160500985E
:102CD300160600A4161100BC161400C2161500B681
:102CE30016FFFF0000720FA20F780F7E0F9C0F904C
:102CF3000F8A0FA80FAE0FB40FC00F840F6C0F66AF
:102D03000F03EAF5E5D5D5C5B5A595958585757503
:102D1300656555554545353525251515050A3E0D7A
:102D230002080D051A0D070E0D0CEA0C0DFC0CFF25
:102D3300000000160F00000B150B020002220F32D9
:102D43000000065C106E1074103C0F7A10360F42B0
:102D53000FBC10DA10E010C210CE10C8100C0E0217
:102D63000B040B0A0708000F000119161816161595
:102D730023030000383C3E363B3B352B432C0003FA
:102D83004948424D181725050230301618192023DB
:102D93001A1C1E30303017181921301B1D1F309696
:102DA3000FBA0FD410C60FCC0FB01080108610923C
:102DB300108C10020402010101010902000000004D
:102DC300000000BE040A0E001500040028000805D8
:102DD3000C0A030908FF1E1E0F0404100C74F712DB
:102DE3000387E99003B0F0900365E4F0121BC090F1
:102DF30003B5E4F0A3F09003B1F0A3F0120E761242
:102E03001BC6900334E4F0A3F0902DDB93FA790210
:102E1300121C26025A7674F2120387EAFEEBFF5461
:102E23008060699003B0E0F91213C88A088B09EA3D
:102E33004509604F7C0080010CEC75F003A4F8A9F0
:102E4300F0742028F582742D39F583E493F4602C13
:102E5300E493F88508828B83E06870DCAA08EC753C
:102E6300F003A4F8742128F582742D39F583E493D3
:102E7300C0E0740193F583D082121DC3AA08AB0985
:102E83001213BCEEFAEF6480FB022FE6EF542060CE
:102E93001D120D988A088B09EA4509600A120CFC79
:102EA300AA08AB091213BCEEFAEF642080DAEEA293
:102EB300E0501A90036AE0640F700B7900120CC69D
:102EC300E96003122FE9EE6401FAEF80BB5420702E
:102ED30003022FB4750C001244BB8B09EA45097039
:102EE300107C027D007A207B009003B0E0F912157C
:102EF300127C0079047A007B00120D748A088B0916
:102F03008018850882850983A3A3A3A3A3A3A3A3EE
:102F1300A37401F0850A08850B09E5084509606D6E
:102F23007C007904AA08AB09120D748A0A8B0B750D
:102F33000C01E5082404F8E50912425F24FFF0A31D
:102F4300E034FF12655270CC850882850983A3A300
:102F5300A3A3A3A3A3A3A3A3E0640170A5850882ED
:102F6300850983A3A3A3A3A3A3E0540470948508B2
:102F730082850983A3A3A3A3A3A3A3A3A37406F096
:102F83007AB78508828509831231158087120D442B
:102F93007C0079017A007B00120D748B09EA4509E4
:102FA3007009E50C70057A20125415EE6420022E88
:102FB300CCEF5402600B120E70EEFAEF6402022E95
:102FC3008BEF540460191255AC1254CC7901900361
:102FD30063125830120C0CEEFAEF6404022E8B7A53
:102FE300007B0002321C900D0B1238B3120CDE2250
:102FF300C082C08374EA120931851882851983AAB5
:1030030082AB83794B121BFC7408120B037402F01E
:103013007409120B03AA82AB837950121BFC74133D
:10302300120B03E41259FF121C1A74160249D974C5
:10303300F712038774E1120931EAFEEBFFEE4F60EA
:1030430033851882851983AC82AD83120DBC740657
:10305300120B03E0601E7417120B03E0FD740112E0
:103063000B03E0FCEEFAEFFB7900120B34E960048A
:1030730079A480027900025A7174F6120387EAFE7A
:10308300EBFF8E828F83A3A3A3A3A3A3E05440608B
:103093001B125EEE1231E360067AFF7BFF801A8E0D
:1030A300828F83124665FAA3E0FB8003120DE0745E
:1030B300FE6A700374FF6B6041125EEE1254591284
:1030C3000E34E98E828F83600612310EE48005127E
:1030D300310E7401F07CCC7D0C8E828F83125830BC
:1030E300121C20E9F5087015EE4F60097901EEFA1C
:1030F300EFFB120D50A90802548A7508CDAA088E59
:10310300828F83123115E960DF80EAE0240D124BD0
:103113003422E0240C124B34E0F9120CD82274F65A
:10312300120387E9FEEAFF7A0F7B00121DB8EA4B10
:1031330060198A828B83740CF0EEA3A3F0EF8A826A
:103143008B83A3F01254B57900802FEEF9120D7A18
:103153008A088B09A808A909E849601C8882898321
:10316300A3A3A3A3A3A3A3A3A37406126179E0F962
:10317300120C90EEF9120D56791002548AC082C0D7
:103183008390036AE0640F7014EA4B601090036548
:10319300E064086005E0640470031231A3024A038B
:1031A300EAFCEBFD7A017B009003B0E0F912150C09
:1031B30022C082C0837900EA241DF582EB124662A5
:1031C30024FD600B14600824FD600424FD700109D4
:1031D300024A038E828F83A3A3A3A3A3A3A3A3A3C0
:1031E3001231E7221246AAFB120E34E9228E828F95
:1031F30083A3A3A3A3A3A3A3A3A31231E7640222DC
:103203008E828F83A3A3A3A3A3A3A3A3A31249FA89
:10321300900356E068221208B77F060205A174F4F2
:1032230012038774FD1209318A088B098A828B8302
:10323300A3A3E0F9120D7A8A0A8B0BAE0AAF0BEE49
:103243004F7003023328850882850983A3E064F164
:103253006030850882850983A3E064CD60248508F6
:1032630082850983A3E0641A60188508828509832F
:10327300A3E064E9600C850882850983A3E064E127
:1032830070087900120D50E9706C850882850983F6
:10329300A3E0C0E07402120B03D0E01249DEEEF0AB
:1032A300A3EF123D09851882851983AA82AB837027
:1032B30005120BF48003120E1C7402120B03E0645C
:1032C300E970338E828F83123334750A01780A12C0
:1032D3000873750AE9780A120873E508240CF58265
:1032E300E5091237FB123CE6FCA3E0FD8A828B83DF
:1032F300123D001208B78E828F83A3A3A3A3A3A3B7
:10330300A3A3A3E0640270108E828F83A3A3A3A35D
:10331300A3A3A3A3A37406F0850882850983A3A3AB
:10332300E0F9120D56120D44900D0F122FEC0238D6
:10333300B8E0F8A3E0F9E8FAE9FB2274F412038792
:10334300EAFEEBFF7508008E828F83A3A3A3A3A3DA
:10335300E060427508088E828F83A3A3A3A3A3A36F
:10336300A3A312490D8B0BEA450B601075082C8E35
:10337300828F83A3A3A3A3A3E0D2E0F08E828F83E3
:10338300A3A3A3A3A3E0540364016003023427436C
:103393000811023427EE24181238C56033EE241ABC
:1033A3001238C5700F1232037003A3E0697075758C
:1033B30008228070EE241BF582EF12342C241AF5B8
:1033C30082EF123D11EE2419125F22120C7E8054FB
:1033D3001231F070037508011232037003A3E06920
:1033E3007006E508D2E1F508E50860158E828F8343
:1033F300A3A3E07006E508D2E58004E508D2E6F56C
:10340300081231D664017006E508D2E0F5088E8211
:103413008F83A3A3E0600D12343A64016006E508CC
:10342300C2E0F508A9080238BD124650123433220F
:10343300E0FCA3E0FDEE2212464A124682F9120E88
:1034430022E922C082C08379018A828B83A3A3E00D
:10345300C394024001198A828B83A3A3A3A3E0C36D
:103463009402400279008A828B83A3A3A3A3A3A31C
:10347300A3A3A3E064F87003A3E0F460458A828BFE
:1034830083A3A3A3A3A3A3A3A3A3E064F97003A3A8
:10349300E0F4602E8A828B83A3A3A3A3A3A3A3A395
:1034A300A3E064FA7003A3E0F460178A828B83A31A
:1034B300A3A3A3A3A3A3A3A3E064FB7003A3E0F4C8
:1034C300700279008A828B83A3A3A3E0F89003534D
:1034D300E06860027900024A0374F012038774DE25
:1034E300120931EAFEEBFF8E828F83A3A3A3A3E02D
:1034F300600E900D0D1254816006900D0D122FEC8D
:103503007403120B03AC82AD838E828F83A3A3A3B8
:10351300125503125D3CE9600F7403120B03AA8278
:10352300AB83120CF6E970087901121BD20237F053
:10353300EE241B1246557410120B031254CC74095B
:10354300120B03E06021741A120B03E0FD740412E2
:103553000B03E0FC8E828F8312582E7901120B34F9
:10356300E96004790280C37403120B03AA82AB835C
:10357300120CF0E9F50A7409120B03E0702A9003A8
:103583004DE060247422550A6422601C7442550A7B
:10359300644270CF7420120B0312380E600A742039
:1035A300120B0312380770BBE9A2E65041740312F1
:1035B3000B03AA82AB83120CE4E9700302352B746C
:1035C30020120B031246656403700F7420120B0361
:1035D300A3125473A3E0640D60147403120B03AAC3
:1035E30082AB83120E46E9640170030237F0EE24C6
:1035F3002C1237F8123B1C7003A3E069701C75088A
:103603000078081208737808120873EE242E125FEC
:1036130022123814123D001208B77409120B03E08A
:1036230070030236CD123814125830120E9A8A08DB
:103633008B09EA4509700302376A7404120B03E02D
:10364300F88E828F83A3A3E028F8A3E03400F9E87F
:10365300240D1237FF8A828B83A3A3A3E068601C27
:10366300E88A828B83A3A3A3F090814F120AE0859B
:103673000882850983A3A3A3A3120AEC7904E912A0
:103683000B03125D192AF8A3E034008882F583A3A3
:10369300AA82AB831213A48A0C8B0D8C0E8D0F851B
:1036A3000882850983A3A3A3A3780C12080B400304
:1036B3000237F0908157780C1209C085088285097A
:1036C30083A3A3A3A3780C120AC4900365E0640444
:1036D3006008E0640960030237F0E50AA2E54003ED
:1036E3000237A8EE242E1238C5851882851983F077
:1036F300EE242F1238C5C0E07401120B03D0E0F0A2
:10370300EE24301238C5C0E07402120B03D0E0F08F
:103713007414120B03E064017027740E120B03126E
:10372300465BEE24121238C5687003A3E06970117A
:10373300740C120B031231FD70077414120B03E4A3
:10374300F0EE24241237F81206A27404120B03AC11
:1037530082AD837407120B03AA82AB83120BFA7434
:10376300041208B70237F09003AAE0640160030271
:1037730036CD7420120B0312380E7009E50AA2E647
:1037830050030236CD7410120B03E0F47003A3E070
:10379300F4605AEEFCEFFD7403120B03AA82AB83B1
:1037A300120D028048A2E650447420120B031258F3
:1037B3003F701A741A120B03E06402703074031220
:1037C3000B03AA82AB837900120E1080207420129F
:1037D3000B031238077016741A120B03E06404709B
:1037E3000C7403120B03AA82AB83120E0A74220217
:1037F3005BEBEE240BF582EF12465022F582E912C1
:1038030054E5F822125F00E0640722124682640640
:1038130022EE242A12464D123433241212464D222C
:1038230074F4120387EAFEEBFF8C088D099005DE22
:10383300E0600F1232037003A3E0697005120C6C91
:10384300804F7900125823120C9C8A828B83E58265
:1038530045836035A3A3A3A3A3A3E05418602AE57B
:1038630008241BF582E5091237FB1206A6123EF95E
:103873001237FB1206A6EE2418125F221238961294
:103883000CAE74041208B780087900123896120C33
:103893007280278E828F83A3A3A3A3A3A3A3A3A32F
:1038A300123433240BF582EF1238AF223400F58340
:1038B3001246AAFB2274031208B77F040205A1EE85
:1038C3002417F582EF1254E52274F712038774F775
:1038D300120931EAFEEBFF900365E06403600DE03B
:1038E30064016008E0640960030239968E828F8365
:1038F300A3E0707E7C007D007A027B00121BCCEE7D
:103903002402FAEF12426612465B9003561254CC1D
:103913007953121C02790012399BE0640960031287
:103923003D2E85188285198374011254A290036574
:103933007404F07401120B03AA82AB83794A121B3D
:10394300FC7401120B03AC82AD837A5B7B03121B05
:10395300EA900356125D327A03123D38900350E029
:10396300A2E35004D2F08002C2F012548F122FE966
:10397300801E8E828F83A3AE82AF83FC7D007A0389
:103983007B10121BCC8E828F83E0F912399BE4F0FB
:10399300120D2C7409025A739003631238B3120C7C
:1039A3000C90036522C082C083900334125481704B
:1039B3001F900365E014600924FC600A14600C8006
:1039C3000F90033C8032900338802D90033A802877
:1039D300E8496008900335123CE0700C8A828B83BF
:1039E300A3E0F9120C00801B900335123F9570057C
:1039F300120E64800E9003D2125481600612547327
:103A0300121DC3024A0374F412038774FB120931B3
:103A13008A088B097A0F7B00121DB88A0A8B0BAEBA
:103A23000AAF0BEE4F7003023B108E828F83125945
:103A3300FD7950121BFC850882850983A3E060038E
:103A4300023AF8900363E0F47003A3E0F460349067
:103A53000363E064FE7003A3E0F4602785188285A6
:103A63001983123B1C7003A3E069601785088285E4
:103A73000983A374EA123D167A637B037950121CFF
:103A8300028072851882851983125EE11254CC7A02
:103A9300567B037953121BFC9003561254FD1254A8
:103AA300CC7A597B03794B121BFC7A587B0379E15F
:103AB300121BFC90036AE0C3940F5021900358E05B
:103AC300C0E07402120B03D0E0F07404120B037411
:103AD30001F004120B03AA82AB83121C14750A00B3
:103AE300780A120873780A120873900D35E0F912F8
:103AF3003CF71208B7850882850983123B15A3F0AA
:103B03009003657403F0EEFAEFFB1254B5740502EB
:103B130038BAA3E08E828F8322125EE5E068221218
:103B23004B3B2274F512038774D81209318A088B30
:103B3300098A828B83A3A3A31246877415120B03EE
:103B4300AC82AD838A828B83A3A3A3A3A3A3A3A3E2
:103B5300123CE6FAA3E0FB120D327415120B03E0DC
:103B6300706B850882850983A3A3A3A3A3A3A3A33F
:103B7300E0C3940B40578E828F83A3A3A3A3A3A375
:103B8300A3A3E064027046EE240B1238C5F4703D23
:103B9300900365E06402603AE064066035900334A4
:103BA3001254816005123CE0604F900365E06408A5
:103BB3006005E0640470167417120B03E0F9741CBB
:103BC300120B03AC82AD83125823120D38742802F2
:103BD30063FF900334125481701F75080078081234
:103BE30008737808120873EE24101237F8125F3A3C
:103BF30012434E123D001208B78E828F8312579FD5
:103C030012427812465B7402120B031254CCEE2458
:103C13000D1238C5C0E07404120B03D0E0123D0945
:103C2300F508A3E0F509740F7808120AB5740512B4
:103C33000B03E508F07419120B03E0C0E0740612DD
:103C43000B03D0E0F0741B120B03E0C0E074071207
:103C53000B03D0E0F07416120B03E0C0E0740912FA
:103C63000B03D0E0F07417120B03E0C0E0740812EA
:103C73000B03D0E0F0EE24101238C5C0E0740A1232
:103C83000B03D0E0F0741A120B03E0C0E0740B12C4
:103C93000B03D0E0F07427120B03E0C0E0740C12A6
:103CA3000B03D0E0F0741C120B03A982AA838908CA
:103CB3008A09750A00780812086B7C087D00741065
:103CC300120B03AA82AB831250301208B7851882F5
:103CD300851983AA82AB83120C06023BD0123F9B49
:103CE300640122E0F98A828B83A3A3A3A3A3A3A3E2
:103CF300A3A3E022900363125D369003591238B3F5
:103D0300120DF2740222F0EE240B1254E22212542A
:103D1300E5FA22F07A567B037953123D2122121CD5
:103D2300027A597B03794B121C02229003631238E7
:103D3300B3120E94227B00121BCC900359125D36F2
:103D43007A047B00121BCC22F0125F452274F2121C
:103D5300038774F8120931EAFEEBFF8C0A8D0B8995
:103D63000C851882851983AC82AD83758381758236
:103D73001374081207CBF50DEEFCEFFD8518828551
:103D83001983AA82AB831257007003750D01900348
:103D9300B1803BEEFCEFFDE508240BFAE5093400A6
:103DA3001256FF601E850882850983A3A3E0650C74
:103DB3007011850882850983E0650A7004A3E065B4
:103DC3000B6038E5082414F582E5091237FB12422B
:103DD30070E50845096024E50DA2E040B685088238
:103DE300850983E0650A7004A3E0650B70D5850837
:103DF30082850983A3A3E0650C70C8AA08AB097484
:103E030008023219C082C0839003B1024A0074F7DA
:103E13001203879003B11246AA8012EA2414F58292
:103E2300EB1237FB124687121458EEFAEFFBEA4BFC
:103E330070E99003B1E4F0A3F0025A767F0702051C
:103E4300A174F1120387EAFEEBFF890A8C088D093E
:103E53008E828F83E08C828D83124917AE82AF836B
:103E6300E01250F0125061C41250F0123F02E054BD
:103E7300038C828D8312505FA2E2E4338C828D83A4
:103E830012505E131313541F1250F012505DA2E729
:103E9300E4338C828D83A3A3A3A3123F028E0C8FE2
:103EA3000D750E00780C12086B7C087D00E5082464
:103EB30007125CA51208B7125D108E0C8F0D780CDB
:103EC30012086B7C037D00E508240F125CA5120821
:103ED300B7E50AC3940F40148E828F83A3A3A3E094
:103EE300C0E0123EF91237FBD0E08006123EF91211
:103EF300616DF0023E3FE5082412F582E50922A335
:103F0300A312491B0EAF832274F412038774F912B0
:103F13000931EAFEEBFF8908900334125481600EE5
:103F2300123F957009EEFAEFFB120E5E805F90036D
:103F330063E06E7003A3E06F70537401650860095A
:103F43007A777B0312570070447A007B021244BFD6
:103F53008B0BEA450B7036900366120AE0851882D4
:103F6300851983120AEC90036CE0C0E07404120B11
:103F730003D0E0F07405120B037401F07406120B06
:103F8300031259FD120BD0E9609B120BD674070282
:103F930038BA123F9B640222125F01A3A3A3A3A317
:103FA300A3E02274F51203878A088B098A828B8324
:103FB300A3AE82AF83E0F9120C248E828F83E06478
:103FC300EB600C850882850983A3E064E1700985B1
:103FD3000882850983A3E4F0122FE9750A01780AA0
:103FE300120873850882850983A3E0F5087808120F
:103FF30008737900123CF71208B7120D44026402E9
:10400300EAF0A3EBF0024A0374F61203879003B4B9
:10401300E0701B7C0079017A007B00120D74EA4B7F
:10402300600C8A828B831254816003120CD2025477
:104033008AC082C0831244A7401079FF120D6EE933
:10404300F8902DDFE493C39850047901800279003E
:10405300024A0374F01203878A088B09890B750CD3
:10406300008A828B83A3A3A3A3A3A3A3A3E0F91230
:104073000D7A8A0E8B0FAE0EAF0F750A01EE4F60ED
:1040830003024134850882850983A3A3A3A3A3A3C1
:10409300125D32850882850983A3A3A3A3A3A3A3E7
:1040A300124E30125830120D628A0C8B0DAE0CAFCB
:1040B3000DEE4F70030242578E828F83A3A3A3A3F7
:1040C300E4F0A3F0E508240B124263E0C0E01237EA
:1040D300F5D0E0F0120E3AEE240CF582EF125455AF
:1040E300E508240EF582E509124658EE240EF58202
:1040F300EF1254C9750C01EE2406F8EF12425F5417
:104103007FF0A3E054FC125F97E054046003024184
:10411300BA900D13124E2174077808120A328E8258
:104123008F83A3A3A3A3A3A3E04508F0A3E04509BA
:10413300F08E828F83A3A3A3A312426E7407780821
:10414300120AB5E5085407F508E50B607A8E828FED
:1041530083A3A3A3A3A3A3A3A3A3740212506224C0
:104163000D124B30E0A2E2500B9003511254FDA309
:10417300A31254CCE508700302422CEE2406F8EF98
:104183003400F9E8FAE9FB8A828B83E0547FFCA3CD
:10419300E054FCFDE50824FFF508E434FFF5097459
:1041A300077808120A32EC4508F8ED4509F98A82C6
:1041B3008B831254CC80728E828F83A3A3A3A3A379
:1041C300A3E04480024133E5087005750A00805975
:1041D3008E828F83A3A3A3A3A3A3E0542060121210
:1041E30013B0EA547F245F8E828F83A3A3A3A3809B
:1041F300238E828F83A3A3A3A3A3A3E05410600AF7
:104203001213B0EA540F240A80DD8E828F83A3A396
:10421300A3A37401F0A3E412427874041244B68B8E
:1042230009EA45097003125448E50CA2E050288EB0
:10423300828F83A3A3A3A3125A63F9EEFAEFFB12AF
:104243000D68E960121254776003124640EEFAEFEC
:10425300FB121458750A00A90A025BEE1255C0221C
:10426300FAE5093400FB8A828B8322A3A3E0F508D5
:10427300A3E0F5092212427C22125CC1A3A3A3A3EB
:10428300A32274F412038774F71209317E00120D0E
:104293007AEA4B70030243478A828B83A3A3A3A3C7
:1042A300A3A3A3A3A3E0640660030243478A828B0C
:1042B30083A3A3A3A3A3A3A3E0FF8A828B83124BAD
:1042C30043E0C0E07408120B03D0E012467B1257A0
:1042D300061254CC120D8CEF540860668518828543
:1042E3001983125D327A007B00120D5C8B0BEA4559
:1042F3000B704F90036312476B121C2C7C007D00E4
:104303007A007B0080288E828F83124665F47003C7
:10431300A3E0F4602D90036312434E125830121938
:1043230020E9641A601C7C007D00EEFAEFFB120D9D
:104333005C8A0A8B0BAE0AAF0BEE4F70C979001281
:104343001C327E01EEF974090238BA12435222E09C
:10435300FCA3E0FD8E828F8322C082C083EA4B7070
:10436300059003B580068A828B83A3A312456B60F5
:10437300258A828B83A3A3A3A3A3A3A3E0540860EA
:10438300E5EC4D60158A828B831246656C7003A33E
:10439300E06D70D280047A007B00024A0374F2124B
:1043A3000387EAFEEBFF890A8C088D097A107B00EC
:1043B300121452EA4B603F8A828B83A3A3A3A3A365
:1043C300A3A3A3A3E4124669A3E50A125F07A312FA
:1043D30044038A828B83A3A3A3A3E4F0A3124675A9
:1043E300A3F0125D9BEA240CF582EB1249071243FA
:1043F300FCA3A3F0A3F002321CA3F08A828B8322D6
:10440300A3A3E508F0A3E509F02274F4120387EAF5
:10441300FEEBFF89088C0A8D0BEE4F605574016526
:104423000870147901120D6EE9F8902DD7E493C347
:1044330098500F7911806A74046508702F1244A78D
:1044430040F18E828F83A3A3A3A3A3A3A3A3A3E576
:1044530008124917A312648C8E828F83A3A3E4F0FE
:10446300A3F09003B51254816021800D7402650896
:1044730060D079C1802BE0F8A31254F6A3A31245B0
:104483006B88828983A3A370ED80039003B5EEF05C
:10449300A3EF1244B68B0BEA450B70031254487911
:1044A300000238BD7904120D6EE9F8902DD2E49321
:1044B300C39822F01244BB227A207B009003B0E021
:1044C300F912151E22C082C083E9F879009003B562
:1044D300801D8A828B83A3A3A3A3A3A3A3A3A3E087
:1044E30068600574FF687001098A828B83A3A31235
:1044F300456B70DE024A0374F7120387EA4B7005BB
:104503009003B580068A828B83A3A312456B602434
:104513008A828B83A3A3A3A3A3A3A3A3A3E069700A
:10452300E4EC60148A828B83E0240D125D23A2E203
:1045330040D380047A007B00025A76C082C0839005
:1045430003B580068A828B83A3A312456B60128A0C
:10455300828B83A3A3A3A3A3A3A3A3E06970E58092
:10456300047A007B00024A031238B3EA4B2274F246
:104573001203878A0A8B0B8C0C8D0D750800750945
:1045830000EA450B602E9003B580068E828F83A3CD
:10459300A31245BE601EAC0CAD0DEEFAEFFB850A0F
:1045A30082850B83121DC3E9640170DFEEF8EFF916
:1045B30088088909AA08AB0902321CE0FEA3E0FFC0
:1045C300EE4F2274F71203879003B512465B7C000B
:1045D3007D00800DE8FCE9FD88828983A3A3124650
:1045E3005BE8496030EA687002EB6970E79003B5F5
:1045F300125830E86A7002E96B88828983A3A3703A
:104603000812465B9003B5800912465B8C828D834A
:10461300A3A31254CC025A7674F7120387EAFEEB73
:10462300FFEE4F6015120D8612468D12547760030C
:10463300124640EEFAEFFB121458025A76EE240C9F
:1046430012464D1246A222EE241DF582EF3400F5E8
:104653008322F582EF1246501249FA22F582EF12B5
:1046630046501246822212466D22125F0FA3A3A365
:10467300A32212466DA3A3221243FD1246822212E5
:104683005EFAE022E0FEA3E0FF228E828F83E02425
:104693001C124B341246A28E828F831246A2221220
:1046A30046AAFB12145822E0FAA3E022C082C08378
:1046B300EAFCEBFDEC4D700479058044EC24FBF53A
:1046C30082ED34FF12547F7007124706E0F4600551
:1046D3001213BC80E39003B0E0C0E0124706D0E0C1
:1046E300F0902DD4E493F97AB77B031213E6E964CF
:1046F30001700B7A007B2012544C790080027904FC
:10470300024A03EC24FFF582ED34FFF5832274F4AF
:10471300120387A2AFE433F508C2AF9003B7124583
:10472300BE6038EE24FBF582EF34FF12547F7A002B
:104733007B209003B0600512544F8005E0F91213FB
:10474300F2E4F50AF50B780A12086FEEFCEFFD7A36
:10475300B77B031213E074021208B7E508A2E092D4
:10476300AFEEFAEFFB0238BD125D3685188285196C
:1047730083AA82AB832274F212038774FC12093179
:10478300EAFEEBFF750AFE750BFF120D4AE96005A1
:1047930079110248FCEE24151238C56037900D27B5
:1047A300E0C43354E0F8E0333354FC48C0E0EE2473
:1047B300151237F8D0E012491712490D8B09EA4553
:1047C300096011750AFFEE240F1238C54404125410
:1047D300DAD2E0F08E828F831231E16006EE24128A
:1047E300124904EE24131238C57010902DDAE493A5
:1047F300C0E0EE24131237F8D0E0F08E828F83E00E
:10480300A2E750045403801CEE24141238C570151B
:10481300900342E0C0E0EE24141237F8D0E0F090A9
:104823000342E004F0EE24111238C56401701690BF
:1048330005D5E0600D90034DE0700A8E828F83E012
:1048430070031249018E828F83E064017013EE249A
:104853000B12465F64027009EE240F1238C5444000
:10486300F0851882851983AC82AD83EEFAEFFB12D3
:104873000DB08A088B0974FE650A700374FFF47027
:10488300098E828F83A3A3125CB1EA450960668E09
:10489300828F83E0C0E07401120B03D0E0F0740256
:1048A300120B03125D9F7401120B0385820C858327
:1048B3000D780C12086FEE240F1237F81206A6EECD
:1048C300240E1238C5F50C780C1208739003561297
:1048D30006A67407120B03E0F9AC0AAD0B120DAA7E
:1048E30074071208B7E9FE74106E700BAA08AB09BF
:1048F30012145880027E10EEF97404023219EE2469
:1049030011F582EF124650E4F022A31238B379FF77
:10491300121CF22212491B22F08E828F83A322C023
:1049230082C08374DE1209318A828B83A3A3A3A37B
:1049330012465B740E120B03E8F0A3E91249F174FB
:104943000C120B031249EA240DF582EB1238C8C08E
:10495300E0741A120B03D0E0F0125BFEEB12465820
:104963007420120B031249EA2415F582EB1238C89E
:10497300C0E07408120B03D0E0F0EA241CF582EBCC
:104983001246587412120B031249EA2411F582EBF2
:104993001238C8C0E07409120B03D0E01249DE7468
:1049A300FFF07401120B0374FFF07402120B037413
:1049B300FFF090814F1206A27404120B03AC82AD78
:1049C300837407120B03AA82AB83120BFA740412CB
:1049D30008B7790074221208B780251249E222F041
:1049E30085188285198322E8F0A3E9F0EA221243AD
:1049F300FDA31249F922A3E0F8A3E0F922125830EB
:104A0300D083D08202084F74EC12038774EE12092C
:104A1300318A128B13ECFEEDFF89097426120B0306
:104A2300125CB17428120B03E0F5107429120B0306
:104A3300124B25742B120B03E0F50EA3E0F50F7553
:104A430008107A1E7B001214527402120B031254C4
:104A5300597402120B031254817003024B1E851802
:104A630082851983AA82AB8379501253341258304A
:104A73007402120B03124B43A31254597410120BFA
:104A83000312648E7402120B03E0240B124B307476
:104A930002F0120B03124B437402F0120B03125E6B
:104AA300F2125D9F7402120B03125845E509F0746C
:104AB30002120B03E0240C124B30E510F0740212C7
:104AC3000B03124B2DE512F0A3E513F07408120B40
:104AD30003E50CF0A3E50DF0740A120B03E510F0E7
:104AE300850E82850F83C082C083740D120B03ACC5
:104AF30082AD83D083D08274031207CBF974021280
:104B03000B03AA82AB83120D50E96401700575088B
:104B13000080087402120B03124646A9087412029D
:104B23005CC8E0F50CA3E0F50D22E0241C124B3425
:104B330022F8A3E0124B3B223400F98882898322B6
:104B4300125838A3A3A3A3A32274EE120387EAFE89
:104B5300EBFF8C088D098E828F83A3740812551581
:104B6300E060088E828F83A37410F01238C260094C
:104B73008E828F83A3E02408F0EE24151238C560DB
:104B8300088E828F83A3E004F08E828F83A3A3A376
:104B9300A3A3A3E060198E828F83A3A3A3A3A3A3DC
:104BA300A3E0C3332402F88E828F83A3E028F0EEC0
:104BB30024111238C56005750B0E8003750B008E2A
:104BC300828F83A3C082C083EE240D1238C5D083A5
:104BD300D082F8E028250B8C828D83F0EE2411120D
:104BE30038C5600512504028F0850882850983E0A6
:104BF300C394754009750800750900024D2EE0FA4B
:104C03007B00125E4D7003024D2EEEFAEFFB120D88
:104C1300B6EA85088285098312545AEE2402F8EF16
:104C2300123B22124E28124D6AF0EE24040808EFBC
:104C3300123B2212526AA3124D6AA3A3F0EE24136D
:104C4300124D50F0EE2414124D50A3F0750A08EEE5
:104C530024161238C56010EE2418125D2FE50824BF
:104C630008125F30750A101238C26016EE241A1249
:104C73005D2F850A0CE508250C125F307408250AA0
:104C8300F50A8E828F83A3A3A3A3A3A3E06059EEA7
:104C93002407F510EF3400F511851082F583E0C089
:104CA300E0124D371237FBD0E0124D5AE0C0E0124C
:104CB3004D371237FBD0E0124D5AA3124D43120861
:104CC3006B851082851183E0C333FCE433FD850AD1
:104CD3000CE508250C125CA51208B7851082851116
:104CE30083E0C333250AF50AEE24151238C5600B99
:104CF300C0E0124D371237FBD0E0F01237F5124DFA
:104D03004312086BEE240D1238C5FC7D00850B0A97
:104D13008E828F83A3E0F8E50828F8E5093400F9CB
:104D2300E8250AFAE9125CA81208B7AA08AB097FBA
:104D33000A0205A1850A0CE508250CF582E509227E
:104D4300E0F50CA3E0F50D750E00780C2212464D2C
:104D5300124D74A3A3A322F0050A8E828F83A3A30B
:104D6300A3A3A3A3A3A322A3A3125F9BA3124D7484
:104D73002212526EA3A32274F61203878A828B83B4
:104D8300E0FC900353124E2174027808120A32ECAD
:104D93004508FCAD09EA2412124E1B74067808126A
:104DA3000A32EC4508FCED4509FDEA2415F582EBD2
:104DB3001238C86004780180027800E4C8F9ED492C
:104DC300FDEA2411F582EB1238C8F5088809740945
:104DD3007808120A32ED4509FDEA2416124E1B74B7
:104DE3000B7808120A32ED4509FDEA2417124E1B0F
:104DF300740C7808120A32ED4509FD8A828B83A36D
:104E0300A3A3A3A3A3124E21740A7808120A32ECB7
:104E1300FAED4509FB02548AF582EB124650E0F5A0
:104E23000875090022E085088285098322A3E0F939
:104E33008508828509832274EE1203878A0A8B0B05
:104E4300ECFEEDFF750F01E9C394085005790002EC
:104E5300502D8E828F83E9F0125293E96003750F10
:104E6300001252778E828F831252C1EE125BFFEFD4
:104E73001252B6C0E0EE24111237F8D0E01252AE4F
:104E8300C0E0EE24121237F8D0E01249177408126A
:104E93005CB9A3A3A3E0601512525FEE2413F5825D
:104EA300EF1254C98E828F83A3E02408F08E828F81
:104EB30083A3A3A3A3A3A3A3A3E060218E828F83D1
:104EC300A38582088583091252A2EE2415F582EF89
:104ED3001254C9850882850983E02408F08E828FE5
:104EE30083A3A3A3A3A3E0601A8E828F83A38582E7
:104EF300088583091252868E828F83A3A3A3A3A35B
:104F0300125052EE2419124904EE241B124904A331
:104F130012550DE07003024FC1EE2419F8EF34006F
:104F2300F98E828F83A3858208858309E0FAE50AD7
:104F33002AF582E50B1238C888828983125052FA07
:104F4300E50A2AF582E50B1238C8C0E0EE241A12EE
:104F530037F8D0E012505288828983E06059F89084
:104F63002DD3E493C398500575110C8008EE2419D2
:104F73001238C5F5118E828F83A3E0F8E50A28F570
:104F83000CE50B12503612086BE511C333FCE43306
:104F9300FD7AB67B0B1250301208B7EE241B123782
:104FA300F874B6F0A3740BF0E511C333F8850882E7
:104FB300850983E0288006EE241812616AF08E8248
:104FC3008F83A3E0F88E828F83E0C3985003024E51
:104FD30050A3E0FA8A08E50A2508F8E50B3400F93E
:104FE300EE241DF582EF1255D5125062C39AC0E02C
:104FF300EE24171237F8D0E01254D2602BEE2417A8
:10500300F8EF3400F9880889098882F583E024F2EF
:105013001255B6240EFAA3E03400FB88828983126A
:105023005459125040C398F0A90F024D3212138CF9
:105033007403223400F50D750E00780C2290034E94
:10504300E0F9120B3AE9F8850882850983E022F03A
:10505300850882850983E004F022A3A3A3A3A3F018
:105063008E828F83E02274F41203878A088B09EA05
:105073001250F7F0EA1313543F1250F0A3A3A3F016
:10508300EAC413131250F7A3A3F0EB1250E9125121
:10509300017409780A120AB51250E7125100740A12
:1050A300780A120AB5E50A5401C0E0EC2418F58227
:1050B300ED1237FBD0E0125106740B780A120AB5D1
:1050C3001250E7A3125100740C780A120AB5125059
:1050D300E7A3A3A3A3A3A3A3A3F0740D7808120AC1
:1050E300B5023427E50A54018C828D8322540F8C38
:1050F300828D832254038C828D83A3A322A3A3A333
:10510300A3A3A3F08A0A8B0B22C082C08379008AEF
:10511300828B83A3A3A3A3A3A3E090034D600FE01B
:1051230070228A828B83A3A3E07019098016E06042
:10513300138A828B83125827900356E06A7003A365
:10514300E06B70E7024A0374F01203878A0A8B0B41
:10515300890C8C088D091252931252778508828527
:1051630009831252C1E508125BFFE5091252B6C06A
:10517300E0E5082411F582E5091237FBD0E012526D
:10518300AEC0E0123EF91237FBD0E01255DD7408D1
:105193001255F6601112525FE50824131255D1120D
:1051A30055DDE02408F0850882850983A3A3A3A322
:1051B300A3A3A3A3E06017850882850983A31252E2
:1051C3009EE50824151255D11250622408F0850873
:1051D30082850983A3A3A3A3A3E06019850882851D
:1051E3000983A3AE82AF8312528685088285098321
:1051F30012505D04F0AA08AB09120DC8E9F50D7051
:1052030056850882850983A3A3A3A3A3A312526A85
:105213007014E0FA8A0EE50A250EF8E50B1254BE67
:10522300E50CC39A802112529EE8240EF8E9125429
:10523300BE90034EE0F9120B3A8E828F83E0F8E5BD
:105243000CC39824F2C399C0E0E5082417F582E55E
:10525300091237FBD0E0F0A90D025BEEE50A240842
:10526300F8E50B3400F92212526E22E0850882859C
:105273000983A322850A82850B83A3A31252D7E055
:10528300F9EA22E0F8E50A28F582E50B1254E52253
:105293008A828B83125BF3120DC222AE82AF83E04C
:1052A300F8E50A28F8E50B3400F9221252EAA3A321
:1052B300A3E022124650E81252E3A3A3E022A3A3E1
:1052C300A3A3A3A3A3A3A31252E31252D7A3A3E0BE
:1052D300F9EAF822E0FA850A82850B83A3A3A322C5
:1052E300F0A3E91252EA22F0850A82850B83A3A375
:1052F300A3A322C082C0837AC57B0379E2121BFC7D
:105303007AC57B03024A03C082C083900356024AD4
:1053130000C082C08374FE12093185188285198307
:10532300AA82AB83794B1253341258307402024968
:10533300D9121BFC85188285198322C082C0837908
:105343004A121BFC024A0374F61203879003CDE052
:10535300FE04F0EEF9120D7A8B09EA450970EDEEC1
:1053630060EAF902548A74F0120387EAFEEBFF8CB9
:10537300088D09890A7410120B03E0F50B741112DE
:105383000B03E0F50C120E9AEA4B7013E50C704216
:10539300A90AAC08AD09EEFAEFFB120EB2806EE576
:1053A3000A6021EA2402F582EB1238C8850A08252F
:1053B30008F8E4340013E813F070098A828B83A39E
:1053C300A37401F0E50C6045E50B70068A828B83BC
:1053D300E4F07401650C7035E50B9003D47004E4BC
:1053E300F0802AE004F0900D14E0F89003D4E0C3B9
:1053F30098401AE4F0900359E06E7003A3E06F70D5
:105403000CEEFAEFFB7901120C1E125413025BEE41
:105413007A017B009003B0E0F912151822C082C014
:105423008374016A7001EB70077A0112544A801287
:10543300900D0B125459EA4B60051231A3800312ED
:105443005413024A037A207B009003B0E0F912134D
:10545300EC223400F583EAF0A3EBF022C082C08390
:10546300900D0D024003C082C083900D0F024003D4
:10547300125F0122EE240CF582EF3400F58312490A
:10548300FAE849221208B77F020205A1A2F0E43329
:105493008518828519831254AB7952121C02221289
:1054A30054AB7942121C0222F0AA82AB8322AA08CF
:1054B300AB099003B0E0F91213C2223400F9E508F6
:1054C300241DF582E509124650E8F0A3E9F0221203
:1054D3005CBDA3A3E022A3F0EE24151254E222F54F
:1054E30082EF3400F583E0221254EF223400F58377
:1054F300E0F8A3E0F98882898322E0F812550322B9
:10550300A3E0F98E828F83A3A322F0EE2418124620
:105513004D22F0EE241612464D2274F4120387EA4C
:10552300FEEBFF7A007B041254171255AC1254CCD5
:105533009003657409F0120DD48A088B09AC08AD89
:1055430009EE24131237F812583012570064017011
:10555300487A0F12559F60418A828B8374021255D9
:10556300B6FAA3E0FB8A828B83A3E0FC8A828B8357
:10557300A3A3E0FBEC850882850983A3A312545AF5
:1055830088828983125834124E281254D9FAA3E020
:10559300FB794A121C021254B10238BD7B00121D62
:1055A300B88A088B09EA4509229003361249FA9012
:1055B3000D0F22F0EE241DF8EF1255C022124B3BC3
:1055C300E0221255C9223400F5837401F022F582DA
:1055D300E509124650E8F0A3E9221255E1221255DB
:1055E300E522F0850882850983A3221255E5A3A34A
:1055F300A3A3221255EEA3A3E022125A07120E28E8
:1056030022EE2417F582EF1255C9120DD4EE241A97
:1056130012464DEAF0A3EBF02274F412038774F3FD
:105623001209318908EAFEEBFF7C0D7D00790085C4
:105633001882851983AA82AB83121398EE241D1254
:1056430037F8125EF2A3E0F8741F58600A7901126A
:105653001BD279000256F7E8A2E55008740C120B2E
:10566300037401F0E8A2E75008740B120B037401F2
:10567300F0E8A2E6740A5008120B037401F08008E4
:10568300120B03E064017005EE24138003EE24156E
:10569300125D2F7402120B03AA82AB83121BEA1250
:1056A30037F51257051254CC740A120B03E0640148
:1056B30070331231D6703B120DE08A0A8B0BA80AA5
:1056C300A90BEE240B1238C5687003A3E06970229E
:1056D300120DD4EAFCEBFD7402120B03AA82AB8316
:1056E300125700600D851882851983AA82AB831235
:1056F3000C18A908740D0238BAEEFAEFFB121BE47A
:10570300E922E012570A22F8A3E0F98518828519E5
:10571300832274F612038774F31209318A088B0902
:10572300ECFEEDFF7C0D7D007900851882851983E1
:10573300AA82AB83126097A3A3A3A3A3A3A3A3A348
:1057430012579F1257A8F8A2E55008740B120B03C7
:105753007401F0E8A2E75008740A120B037401F015
:10576300E8A2E6EE5004241380022415125D2F7480
:1057730002120B03125791A3A3E0C0E0740C120BA7
:1057830003D0E01259FF120C12740D025487AA823F
:10579300AB83121BEA85088285098322E012570A2C
:1057A300E8F0A3E922F012464A125EF6A3E022745F
:1057B300F712038774E1120931EAFEEBFF8E828F41
:1057C30083125834A3A3A3E0A2E050518E828F83A7
:1057D3001233368A828B83A3A3A3A3A3A3E054FE2D
:1057E30012584C8A828B83125845E0F98A828B8344
:1057F300E0241CFAA3E0124266125830120DCEE9DF
:10580300701B741D120B0312583F7011851882858B
:105813001983AC82AD83EEFAEFFB120E16025A71B6
:105823008E828F83A3A3A3A3A3A3A3A3A31238B39B
:105833002212583822125EFAA3A3A32212468264CC
:105843000422E0241B124B34221249E2AC82AD83C2
:1058530022E9F87900740468600A740A68600574C0
:10586300036870010902084F74F61203878A828B5A
:10587300837420F0A3A37401F0120BC48A088B096C
:10588300AE08AF09EE4F60108E828F837401F090E3
:1058930003A3E07003125604EEFAEFFB02548AC02E
:1058A30082C0839003B97401F0E9A2E35003740347
:1058B300F0E9A2E15004E0D2E2F0024A0374F612E6
:1058C300038779007C008A088B0978081205E7F8BA
:1058D300FF07F358F158F158F158F158EA58EE58C8
:1058E300F358E7580C80097C0480050C80F67C088B
:1058F3009003B9E05C6003098003EC600109025482
:105903008A74F61203878A828B83E07012A312547F
:1059130081600C8A828B8312582F121D2280047A95
:10592300007B0002548A74F512038774F312093161
:105933008A088B09ECFEEDFF750A12EA450970052A
:1059430079000259F8900356E065087004A3E065F6
:10595300097014120DD4EAFCEBFD1256FC700575A8
:105963000A018003750A00851882851983E4F0040F
:10597300120B03E508F0A3E5091259FF120B88E99E
:1059830060277403120B03AA82AB83120B6AE964C8
:10599300017016750A017403120B03AC82AD8312F6
:1059A30056FC6021750A00801C7412650A701690FB
:1059B30003A2E06402700EEEFCEFFDAA08AB09122D
:1059C3000BA0E970DFEEFCEFFDAA08AB09120EA0F5
:1059D300E9F8740A687005750A01801774A0687085
:1059E30012EEFCEFFDAA08AB09120EACAA08AB0934
:1059F300120EBEA90A740D0263FF7402125A032227
:105A0300125A07221249E2AA82AB832274F71203C5
:105A130087EAFEEBFF8E828F83A3A3A3A3A3A3A393
:105A2300A3E06015EE24151237F81238A3120E40C6
:105A3300E964017004790180258E828F83A3A3A377
:105A4300A3A3A3A3E06015EE24131237F8125A633D
:105A5300FAA3E0FB120E40E9640160D979008013D8
:105A6300124352A3A3A3A3A3A3A3A3A3E022741F3C
:105A73001208B77F010205A174F012038774FD12A7
:105A830009318A088B09ECFEEDFF890B7413120BA5
:105A930003E0F50C750A017401120B037404125F21
:105AA3002A6048E50C601DEA2417F582EB12616D4C
:105AB300125F188A828B83E0D2E7F0EA2414F5821E
:105AC300EB124907125BFEEB1254EB740312649062
:105AD300EE88828983A3A3F0EF88828983A3A3122C
:105AE30043FC124403120BBEE9F50AA90A7403022C
:105AF3005BEB74EC12038774F51209318A0A8B0B82
:105B0300890C8C0E8D0F741F120B03E0F50D74209E
:105B1300120B03E0F510A3E0F5117E01EE120B0367
:105B2300740AF0E97007E50DC333240AF0125CD060
