:020000040000FA
:06000000020A920201D683
:03002B000208CDFB
:030033000206E9D9
:030043000207822F
:03005300020107A0
:03006B000206CFBB
:1000830002016B0101FF05030140104010401040C5
:1000930010FC0EF60E4010BD27000000001F2800C4
:1000A3000000000C0000000C0001000038120000EA
:1000B30000000000F2120000000000000000000039
:1000C300FFFF536D61727420486F6D65000101017C
:1000D3000009050000005A05E80364006400B80144
:1000E300020200000002050207051E02051E0A03A4
:1000F300B80B0201023412021F00E00796511800E8
:1001030002020612C0E074F21203EFA2AFE433FE60
:10011300D2AFE5A7FFE5A1F5085F541060061219F9
:100123005E75A1EFE5085F5408600812196475A1B4
:10013300F7802BEFA2E0C0D0E508A2E092F012090D
:10014300CF158182F05017906198E0F8900834E061
:10015300C398A2D265D0335002E8F075A1FEEEA297
:10016300E092AF7F0102044EC0E074F21203EFA2EB
:10017300AFE433FED2AF9061A4E0F8759B00E59144
:1001830058540860087591F71219AC802AE5915804
:10019300541060087591EF1219B2801BE8A2E0C0F9
:1001A300D0E591A2E092F01209CF158182F05007B9
:1001B300E0C2E0F0121AF69061A3E0F8E5E95854C2
:1001C30004600E121ACC75E9FB906193E0A2E6403D
:1001D300F2808BC0E074F21203EFA2AFE433FED2DD
:1001E300AF9061A5E0F8E5BF585404600675BFFB06
:1001F300121B0E020161C3E498F8E499F912023A62
:100203008026C3E49AFAE49BFBE920E7E912023A69
:10021300E498F8E499F922C3E498F8E499F912020E
:100223003AE498F8E499F9C3E49AFAE49BFB22EBE5
:1002330020E7CFE920E7E0B90010BB0008E88AF027
:1002430084F8AAF022E4FBC8FA22EB70227B10C8E0
:1002530033C8C933C9335007C39AC3DBF280069A44
:1002630050012ADBEAC833F4C8C933F4C9FA22754A
:10027300F008E4C833C8C933C933C99AC99B5004C9
:10028300C92AC93BD5F0ECFBC833F4C8E4C9FA2248
:10029300080808EAC0E0EBC0E086F0E7A4FA180912
:1002A30086F0E7A42AFA180986F0E7A42AFA1809BF
:1002B30086F0E7A42AFA1986F0E7A4FBE5F02AFA08
:1002C300190886F0E7A42BFBE5F03AFA190886F043
:1002D300E7A42BFBE5F03AFA18180986F0E7A4C562
:1002E300F02BFBE43AFA1908E7C5F0C6A426F6E5B5
:1002F300F03BFBE43AFA1886F0E7A4F6E5F00826AB
:10030300F6E43B08F6E43A08F6D0E0FBD0E0FA2244
:10031300E4CFC0E0E4CEC0E0E4CDC0E0E4CCC0E094
:1003230075F020C3E633F608E633F608E633F6083D
:10033300E633F6181818EC33FCED33FDEE33FEEF1D
:1003430033FFC3EC9709ED9709EE9709EF97191956
:1003530019400FFFEC97FC09ED97FD09EE97FE1985
:100363001906D5F0BEECF709EDF709EEF709EFF73B
:10037300191919D0E0FCD0E0FDD0E0FED0E0FF2257
:100383002518C582C0E0E51934FFC583C0E0E51830
:10039300C3958224F810AF088583198582188008D5
:1003A300858319858218D2AFCEF0A3E520F0A37818
:1003B30008E608F0A3DEFAEFF0A3E58124FAF8E6F5
:1003C30008F0A3E608F0A3E608F0A30808E608F09F
:1003D300A3E608F0A315811581D0E0FED0E0F8155F
:1003E3008115811581E8C0E0EEC0E022C0D0251858
:1003F300C582C0E0E51934FFC583C0E0E518C395A5
:100403008224F310AF0885831985821880088583B9
:1004130019858218D2AFC8F0A3E9F0A3EAF0A3EBE1
:10042300F0A37908E709F0A3D8FAECF0A3EDF0A361
:10043300EEF0A3EFF0A3D0E0F0A3D0E0F0A3D0E080
:10044300F0A3E520F0A3E5F0F0A322851983851836
:1004530082E0C0E0A3E0F9A3E0FAA3E0FBA37808FD
:10046300E0F608A3DFFAE0FCA3E0FDA3E0FEA3E0CF
:10047300FFA3E0C0E0A3E0C0E0A3E0F5D0A3E0F574
:1004830020A3E0A3F5F010AF0885831985821880B7
:1004930008858319858218D2AFD082D083D0E0F843
:1004A300D0E032120AF4B900030204E8E490030135
:1004B300788B790A8002F0A3D8FCD9FA900C8BAA26
:1004C30082AB83900086788279018015E493A3AC94
:1004D30082AD838A828B83F0A3AA82AB838C828DC5
:1004E30083D8E9D9E77582A4758397740312084505
:1004F3007582A275831D7400120845E80375F01018
:100503008E1A8F1B85821F85831E8518828519830A
:10051300E0CEA3E0CF851F82851E83EBC9EAC8ED39
:10052300CBECCAC3E833C8E933C9EA33CAEB33CBEC
:10053300C3EA9EF51DEB9FF51CB35004AB1CAA1D2B
:10054300EC33CCED33CDD5F0DAAE1AAF1B22D0832A
:10055300D082ECC0E0EDC0E0E493A3FCE493A3FD00
:10056300ED4C600D120629EC24FFFCED34FFFD80F9
:10057300EFE493A3FCE493A3FDED4C600D12072D70
:10058300EC24FFFCED34FFFD80EFD0E0FDD0E0FC78
:10059300E493A3C0E0E493C0E02285198385188225
:1005A300E0A3FEE0A3F5207808E0A3F608DFFAE075
:1005B300A3FFE0A3C0E0E0A3C0E0E0A3C0E0E0A3AA
:1005C300C0E0E0A3C0E010AF0885821885831980DE
:1005D30008858218858319D2AFD083D08202084B55
:1005E300D083D082E9C0E0E493A3C386F0C5F0953D
:1005F300F0F908E493A386F0C5F095F0700BE4934B
:10060300A3C3994005E9048002A3E475F002A4257D
:1006130082F582E5F03583F583D0E0F9E493A3C056
:10062300E0E493C0E022C0E0C3E49396087401932E
:100633009618400FE4936670080874019366187067
:10064300007019A3A3C3E49396087401939618A3A7
:10065300A3400DD0E0D0E0D0E002058DA3A3A3A377
:10066300A3A3D0E022D083D082C5F0E493A3C5F046
:10067300C395F0F5F0E493A3C395F04005E5F004CA
:100683008001E475F002A42582F582E5F03583F557
:1006930083E493A3C0E0E493C0E022740480047471
:1006A300028000CCC0E0EDC0E0E518C39CCCAD19DE
:1006B30050011D10AF068C188D1980068C188D19EA
:1006C300D2AF1207C7D0E0FDD0E0FC22C0E074F245
:1006D3001203EFE589A2E1500312180E758900C2D7
:1006E300C57F0102044EC0E074F21203EFE58BA252
:1006F300E0500312180E758B00C2E880E474028088
:1007030000CCC0E0EDC0E0E518C39CCCAD195001AE
:100713001D10AF068C188D1980068C188D19D2AF59
:100723001207A5D0E0FDD0E0FC22C0E0C0F088F0C5
:10073300E4936670080874019366187000A8F0A328
:10074300A3700BD0F0D0E0D0E0D0E002058DA3A3DE
:10075300D0F0D0E022D083D082CCC0E0E493A36079
:10076300061208261470FAE493A3600612091714FC
:1007730070FAD0E0FCE493A3C0E0E493C0E022C0AD
:10078300E074F21203EFA2AFE433FED2AFC2C0E5CE
:10079300D1A2E450031218D4EEA2E092AF7F01027B
:1007A300044ECAC0E0E493A3C582CCC582C583CD01
:1007B300C583F0A3C582CCC582C583CDC583DAE5E5
:1007C300D0E0CA22CAC0E0E0A3C582CCC582C583FB
:1007D300CDC583F0A3C582CCC582C583CDC583DADD
:1007E300E6D0E0CA22700908080822601618181813
:1007F300C6C333C608C633C608C633C608C633C61F
:10080300D5E0EA22C008C3E096F50808A3E09642C3
:100813000808A3E096420808A3E09645087001D3B0
:10082300D00822C0E0E493A3D39C5010E493A3C365
:100833009C400AD0E0D0E0D0E0020775A3A3A3D088
:10084300E022C09FF59FE473D09F22D083D082C063
:100853009FE493C0E0740193C0E0740293F59F2278
:100863007404800A74038006740280027401C0E079
:10087300F40412087ED0E0120ACF222518F5821064
:10088300AF08F518400215198008F518400215192C
:10089300D2AF85198322BB0102E722C082C08389BC
:1008A300828A83BB0003E08002E493D083D0822258
:1008B300C0D0251810AF08F518500205198008F5A7
:1008C3001850020519D2AFD0D022C0E0C0D0E8C082
:1008D300E0E5A8D2AFC2C7A2E792AFD0E0F8D0D08C
:1008E300D0E0326016080808C6C313C618C613C67C
:1008F30018C613C618C613C6D5E0EA22C3E0C696C7
:10090300F608A3E0C696F608A3E0C696F608A3E0A9
:10091300C696F622C0E0E493A36C7009D0E0D0E061
:10092300D0E0020775A3A3D0E022251810AF08F585
:1009330018400215198008F51840021519D2AF2284
:10094300E76670100809E766700A0809E76670042D
:100953000809E76622E066701008A3E066700A08DB
:10096300A3E066700408A3E06622C3E09608A3E050
:100973009608A3E09608A3E096A2D265D03322C3DB
:10098300E096F008A3E096F008A3E096F008A3E051
:1009930096F022E026F008A3E036F008A3E036F054
:1009A30008A3E036F022E627F60809E637F6080939
:1009B300E637F60809E637F622E026F608A3E0361E
:1009C300F608A3E036F608A3E036F622C0E0E8C056
:1009D300E0E58124FCF8E6A2E7D0E0F8D0E022E6E7
:1009E30047F60809E647F60809E647F60809E64721
:1009F300F622E657F60809E657F60809E657F60819
:100A030009E657F622E056F608A3E056F608A3E0F7
:100A130056F608A3E056F622E056F008A3E056F097
:100A230008A3E056F008A3E056F022700422600DFC
:100A330018C6C333C608C633C6D5E0F41822E4C3C8
:100A430096F608E496F608E496F608E496F622602D
:100A53000D08C6A2E713C618C613C6D5E0F322C60F
:100A6300F4C608C6F4C608C6F4C608C6F4C622C34C
:100A7300E7960809E7960809E7960809E79622C367
:100A8300E09608A3E09608A3E09608A3E0962275F3
:100A9300D000758140751801751903000204A6E0A2
:100AA300F608A3E0F608A3E0F608A3E0F622600C3C
:100AB30008C6C313C618C613C6D5E0F422E6F00869
:100AC300A3E6F008A3E6F008A3E6F022CAC0E0E636
:100AD300F0A308DAFAD0E0FA22E0FAA3E0FBA3E0FD
:100AE300FCA3E0FD22EAF0A3EBF0A3ECF0A3EDF00E
:100AF30022E5C754F84401F5C77901222518F58288
:100B0300E43519F58322C2AF75D69F020000221285
:100B1300084EEEAF0112084E26B10112084E44B141
:100B23000112084EC0D90112084ED2D90112084E43
:100B330024DA0112084E85DA0112084E0FDB011286
:100B4300084EB3DB0112084E07DC0112084E20DC0D
:100B53000112084E46DC0112084E81DC0112084ED8
:100B6300C5DC0112084EECDC0112084E3DDD01121A
:100B7300084EEDDD0112084EA5DE0112084E6DDFB1
:100B83000112084E4AE00112084ED0E00112084E4D
:100B9300DFE00112084EEAE00112084EF3E1011210
:100BA300084E04E20112084E7AE20112084E0CE3E9
:100BB3000112084E64E30112084E2AE40112084EA2
:100BC3005BE40112084EA0E40112084EADE40112E9
:100BD300084E41E60112084EA4E70112084EC0E890
:100BE3000112084E2AEB0112084E35EB0112084E92
:100BF3003FEB0112084E4AEB0112084E54EB01126F
:100C0300084E5EEB0112084E69EB0112084E74EBBD
:100C13000112084EA5EB0112084EC9EB0112084E52
:100C2300EDEB0112084E52EC0112084E96EC011244
:100C3300084EB2EC0112084E29ED0112084E61ED87
:100C43000112084EADED0112084E0AEE0112084ED4
:100C5300ECEF0112084E72F00112084E43F101123B
:100C6300084E53F40112084EA8F40112084ED4F4AE
:100C73000112084E20F60112084E70F60112084EBA
:100C8300C5F60112084EC6F70112084E5EF80112AE
:100C9300084EE0F80112084E80F90112084EF32ABB
:100CA3000012084E2C2B0012084E062D0012084E7F
:100CB300452D0012084E8F2D0012084E342E0012BF
:100CC300084E932E0012084EC72E0012084E342FE2
:100CD3000012084E51300012084E59310012084ECE
:100CE300EF310012084E36350012084EDF35001280
:100CF300084EBB360012084E1C370012084E393816
:100D03000012084E633A0012084E1A3B0012084EB6
:100D1300243B0012084E573B0012084E1E3C0012A3
:100D2300084EB93C0012084E1E3D0012084E473DC6
:100D33000012084E693D0012084E983F0012084EFB
:100D43006F400012084EB3400012084E20410012BB
:100D5300084EDB410012084E0D420012084E51426C
:100D63000012084E84420012084ED9420012084E67
:100D73002E430012084EC2430012084E24440012B0
:100D8300084E8C440012084E35460012084E1D478B
:100D93000012084E5F480012084E8D4A0012084E9A
:100DA3004D4B0012084E7C4D0012084E1F4E001290
:100DB300084E5D4E0012084E09500012084E1D5099
:100DC3000012084E27500012084E51500012084ED0
:100DD3005D500012084E7C500012084E3351001231
:100DE300084E72510012084E7C510012084E3052C8
:100DF3000012084E2F530012084E28540012084EBA
:100E0300C5540012084E67550012084E7E55001255
:100E1300084EB5550012084ED3550012084E17560A
:100E23000012084E3C560012084E22570012084E7C
:100E33008E570012084E08580012084E1759001218
:100E4300084E565A0012084EB85A0012084E725BEA
:100E53000012084E955B0012084E695C0012084EA2
:100E6300B45C0012084EF65C0012084E4D5D001291
:100E7300084E845D0012084EB25D0012084EEB5D11
:100E83000012084E105E0012084E985E0012084EC3
:100E9300BB600012084E1A610012084EAE610012C8
:100EA300084E1A620012084E6E620012084E74B9A0
:100EB3000312084EB3B90312084E89B20112084E49
:100EC300E3B20112084E3FB30112084E8BB3011275
:100ED300084EA6B30112084ED7B30112084EF4B35D
:100EE3000112084E00B40112084E74B50112084EE7
:100EF3008DB50112084EF4B50112084E07B6011262
:100F0300084E15B60112084EC9B60112084EADB708
:100F13000112084EB3B80112084E39B90112084E36
:100F230043B90112084EB0B90112084EC7B90112F4
:100F3300084EF9B90112084E32BA0112084E5CBAD2
:100F43000112084EBDBA0112084EDDBA0112084E55
:100F5300FBBA0112084E41BB0112084E67BC0112D5
:100F6300084EB4BC0112084EE3BC0112084E59BD31
:100F73000112084E81BD0112084EBABD0112084E7E
:100F8300C8BD0112084E20BE0112084E6FBE0112E9
:100F9300084EAEBE0112084EDEBE0112084E0ABF55
:100FA3000112084E15BF0112084E33BF0112084E3D
:100FB300F5BF0112084EFFBF0112084E3AC00112DD
:100FC300084E50C00112084E59C00112084EAEC05F
:100FD3000112084EC2C00112084ED0C10112084EC0
:100FE300E3C10112084EF8C10112084E9AC2011260
:100FF300084E1DC30112084EDBC30112084EE6C39F
:101003000112084E0CC50112084E28C50112084EE4
:101013007AC50112084EB9C50112084ECEC5011298
:10102300084E10C60112084E5DC80112084EDBC8F7
:101033000112084E4EC90112084E70CB0112084E20
:1010430088CB0112084E8BCB0112084E97CB0112AD
:10105300084EABCB0112084EB3CB0112084EE6CBC0
:101063000112084E96CC0112084E0CCD0112084E07
:101073007FCD0112084E33CE0112084EE8CE011285
:10108300084E07CF0112084EA7CF0112084EB3CF67
:101093000112084EDECF0112084EE1CF0112084EB5
:1010A3004BD00112084E73D10112084E4BD20112DC
:1010B300084ED6D20112084EEFD30112084EACD41B
:1010C3000112084EE5D40112084E16D50112084E3E
:1010D300B6D50112084EE6D50112084EC1D601124B
:1010E300084E5AD70112084EE5D70112084E96D87A
:1010F3000112084E18D90112084E4AD90112084E9E
:101103008BD90112084E71D20212084ED6D20212A6
:10111300084E13D30212084E62D30212084E78D53A
:101123000212084E5BD70212084EC5DA0212084EAD
:1011330000DB0212084E22DB0212084E85DB02128C
:10114300084EB9DB0212084EDCDB0212084E09DC42
:101153000212084E65DC0212084E5BBC0212084EF6
:10116300D9BC0212084E0FBD0212084E7BBD0212FB
:10117300084EEEBE0212084E0ABF0212084E4FBFBF
:101183000212084EDDBF0212084E36C00212084E8C
:1011930063C10212084E75C20212084ED2C2021275
:1011A300084E3EC30212084E9FC30212084EE0C30C
:1011B3000212084E8DC40212084E9FC50212084E39
:1011C300CAC50212084E15C60212084E5CC60212A8
:1011D300084EEEC60212084EA9C70212084E2BADE6
:1011E3000312084E5BAD0312084EB0AD0312084E56
:1011F300B9AD0312084E18BB0312084EFEBA031210
:10120300084E0BBB0312084EACAE0312084EBDAE24
:101213000312084E0EAF0312084E53AF0312084ECB
:10122300FDAF0312084EF7B50312084EF7A90312D8
:10123300084E4FAB0312084E20C80212084EC5C811
:101243000212084EE5C80212084E05C90212084EE2
:1012530019C90212084E71C90212084EA1C902121D
:10126300084E22CB0212084EC8CB0212084EAACC5B
:101273000212084EFBCC0212084E3ECD0212084E5B
:1012830081CD0212084EE7CD0212084E08CE02129B
:10129300084E94CE0212084EC5CE0212084E39CF24
:1012A3000212084EE7D00212084EC1D10212084EB4
:1012B30003D20212084E5DD20212084E6EA603122A
:1012C300084E8FA60312084EC5A70312084EEFA7B8
:1012D3000312084EE2940312084E5D950312084E62
:1012E30068950312084E89950312084E1EB0021228
:1012F300084E21B00212084EDBB00212084E06B1AE
:101303000212084E4DB10212084E72B10212084E7B
:1013130093B10212084EC7B10212084E00B2021274
:10132300084E29B30212084E60B30212084E80B36E
:101333000212084E1BB40212084EE0B40212084E09
:1013430017B50212084E8CB60212084E2FB70212BE
:10135300084E28B80212084E51B80212084EA5B81A
:101363000212084E6BB90212084E99B90212084EC6
:101373002EBB0212084EAFBB0212084EE2BB021292
:10138300084EB1DC0212084EBBDC0212084E07DD28
:101393000212084E75DD0212084E96DD0212084E47
:1013A300ADDD0212084E7CA30112084EF1E00212D9
:1013B300084EFAE00212084E4DE10212084E76E1A1
:1013C3000212084EDDE10212084E6EE20212084ECE
:1013D300B0E20212084EFAE20212084E59E3021278
:1013E300084EEAE30212084E29E40212084E68E4AA
:1013F3000212084E9DE40212084EAFE40212084E98
:101403004BAF0112084EE0E40212084EE9E4021267
:10141300084E9FE50212084EDFE50212084E0080D7
:101423000312084ED3800312084EED800312084EB8
:10143300FE800312084E13830312084E32830312F5
:10144300084E3CA40312084E72A40312084EBBA418
:101453000312084E0BA60312084EA8620012084E90
:10146300E7630012084E23640012084EE26500127F
:10147300084E0B660012084E9E680012084EE26882
:101483000012084E6B6A0012084E036B0012084EDE
:101493006B6B0012084E0C6C0012084E4E6C00125F
:1014A300084E8E6C0012084E196E0012084E896F9A
:1014B3000012084EAE710012084EDC710012084E85
:1014C30003720012084E0C720012084E677200126B
:1014D300084EFA720012084E18760012084E9976DA
:1014E3000012084EDBBA0312084E29B90312084E44
:1014F300958B0312084EA88B0312084E458C0312DA
:10150300084E808C0312084E9B8C0312084EC08C2D
:101513000312084E058D0312084E368D0312084E32
:10152300678D0312084EED8E0312084E75B1031238
:10153300084EABB10312084EC7B10312084E09B2ED
:101543000312084E19B20312084EAEB20312084E2C
:10155300B8B20312084E0D920312084E789203128A
:10156300084EFC920312084EF1BA0312084E8FA0E4
:101573000212084EE7A00212084E91A10212084E71
:1015830039A20212084E96A20212084EEFA20212CC
:10159300084E03A30212084ECDA40212084E48A51A
:1015A3000212084E72A50212084E2FA70212084E0D
:1015B3004AA70212084E99A70212084EAFA70212B9
:1015C300084EBCA70212084EF0A70212084E06A846
:1015D3000212084E8CA80212084E9BA80212084E53
:1015E300F4A80212084E4EA90212084E9CA9021238
:1015F300084EA6AA0212084E28AD0212084EC2AD2A
:101603000212084E04AE0212084E99AE0212084EA0
:10161300B6AE0212084EB9AE0212084EBCAE0212AA
:10162300084E2FAF0212084E4AAF0212084E76AF91
:101633000212084EB1AF0212084EB4AF0212084EA6
:10164300C7AF0212084EEEAF0212084E55B803128E
:10165300084E61B80312084E9BB80312084EBE90A1
:101663000212084EE9900212084EB5910212084E7A
:101673003A920212084EA3920212084EEF920212FD
:10168300084E6E930212084E00940212084E8C9478
:101693000212084ECE940212084E3A990212084ED4
:1016A300BA9A0212084EF99A0212084EC29B02120B
:1016B300084E769C0212084E269E0212084EB29ED7
:1016C3000212084E00800212084EBA800212084E1F
:1016D3002C810212084E3B810212084EB581021280
:1016E300084E24820212084E2E830212084E57839C
:1016F3000212084EF7830212084E45840212084E66
:10170300B5840212084EE9850212084EC5860212FC
:10171300084E36870212084EB3880212084E7589A6
:101723000212084E108A0212084E6B8A0212084EE9
:10173300D68A0212084EDA8B0212084E9B8D0212D1
:10174300084E3A8E0212084EAC8E0212084E698F72
:101753000212084E589A0312084EAC9A0312084E0E
:10176300049B0312084E4F9B0312084EB19B0312B6
:10177300084E4A9C0312084EB29C0312084EBE9CAC
:101783000312084EE6A10312084E17A20312084ED5
:10179300D1A20312084E37A30312084EA8A30312C3
:1017A300084EBF980312084EEAB60312084EFBB662
:1017B3000312084E9BB70312084E3FA80312084EAC
:1017C3004DA80312084EEC7F0012084E68FF011269
:1017D300084E78FF0112084E93FF0112084EF4FFE2
:1017E3000112084EF5B40312084E7AB50312084EDF
:1017F300DEB50312084EE3B30312084E05B4031219
:10180300084E6FB40312084E7AB40312084EBEB4E6
:101813000312084EF6760012084E04770012084EA3
:1018230045770012084E66770012084EF0770012D3
:10183300084E12780012084E75780012084E907800
:101843000012084EAB780012084EB5780012084E0D
:10185300BF780012084ED2780012084EEB780012BF
:10186300084E87790012084E437A0012084EC67A52
:101873000012084E407B0012084E8C7B0012084E6B
:10188300337C0012084E0F7D0012084E8B84031226
:10189300084E99840312084E13850312084EF785E8
:1018A3000312084EB0870312084E9BBA0312084E68
:1018B30033FA0112084EA0FA0112084E61FB01121D
:1018C300084ED1FB0112084EDAFC0112084E52FEFB
:1018D3000112084EB6FE0112084E0BFF0112084E0C
:1018E30014FF0112084E23FF0112084E36FF0112A6
:1018F300084E4CFF0112084E55FF0112084E44EFEB
:101903000212084E99EF0212084E95F10212084E88
:10191300C7F10212084EE9F10212084E02F2021256
:10192300084E1BF20212084E25F30212084EC0F3B2
:101933000212084E14B00312084E38B00312084EB8
:1019430051B00312084E84B00312084EB5B003120F
:10195300084EE3B00312084E45B10312084E54B1CA
:101963000312084E5EB10312084E6BB10312084E08
:10197300F99C0312084E1F9D0312084E5C9D03122F
:10198300084E6B9D0312084E8A9D0312084EF29D6A
:101993000312084EFB9D0312084E5A9E0312084E73
:1019A3007E9E0312084E3D9F0312084E4A9F031268
:1019B300084E5B9F0312084E01BA0312084E1EBA6B
:1019C3000312084E37F40212084E95F50212084E20
:1019D300A2F50212084EB5F50212084ED4F5021212
:1019E300084EEAF50212084EFEF50212084E73F68F
:1019F3000212084ED8F60212084E88F70212084E59
:101A03005DF80212084E6DF80212084E7CF80212BD
:101A1300084EBCB70312084EE0B70312084E08B8CD
:101A23000312084E30B80312084E69FD0212084E25
:101A330090FD0212084EB1FD0212084E16FE02126C
:101A4300084E899F0312084EA29F0312084EAE9FB1
:101A53000312084EC29F0312084EE09F0312084E62
:101A6300EA9F0312084EF49F0312084E07A00312C5
:101A7300084E5AA00312084E93A00312084EC2A0A8
:101A83000312084E10A10312084E5FA10312084E61
:101A93007AA10312084E84A10312084E95A10312E2
:101AA300084EDBA10312084ED8B80312084E08E60D
:101AB3000212084E32E60212084E4EE60212084E99
:101AC30061E60212084E77E60212084ED4E60212CD
:101AD300084E07E70212084E43EB0212084E69EC68
:101AE3000212084E9CEC0212084EE8EC0212084E59
:101AF30014EE0212084E3CEE0212084E51EE021290
:101B0300084E61EE0212084EA5EE0212084E06EFD1
:101B13000212084E16EF0212084EB97E0012084E4A
:101B2300D47E0012084EFD7E0012084E177F00126D
:101B3300084E3C7F0012084E5B7F0012084E737FF5
:101B43000012084EA17F0012084EBB7F0012084E00
:101B5300BDB90312084E15880312084E1C880312E0
:101B6300084E28890312084E58890312084E7E89AD
:101B73000312084EA1890312084EC3890312084EAB
:101B8300FD890312084E638A0312084E9C8A0312CE
:101B9300084EE88A0312084E158B0312084E358B44
:101BA3000312084E9EAB0312084EB0AB0312084E4D
:101BB3009BAC0312084E28AD0312084ED0B2031299
:101BC300084E42B30312084E80B30312084EC1B34A
:101BD3000312084EFA8E0312084E168F0312084E94
:101BE300658F0312084E818F0312084EB28F0312C2
:101BF300084EC28F0312084EAE900312084EB890DF
:101C03000312084EC5900312084ED5910312084ED5
:101C1300E9910312084EF2910312084EB5F802122D
:101C2300084EFAFC0212084EFFFC0212084ECFFFC8
:101C33000212084E3DBA0312084E73BA0312084E3D
:101C4300BDBA0312084ED0A20112084E21A10112FF
:101C5300084EDC9E0112084E639E0112084E0A9E36
:101C63000112084E9E9D0112084E759D0112084EE9
:101C7300689B0112084E349B0112084E019B01120E
:101C8300084EE59A0112084E0B9A0112084EC399A9
:101C93000112084EF8970112084E78970112084E68
:101CA30075970112084E80960112084E4E96011246
:101CB300084E8B950112084EB6930112084E4793B6
:101CC3000112084E19930112084EF8AD0112084E85
:101CD300A9AB0112084E3AAB0112084EF2AA011247
:101CE300084E55AA0112084E16930112084E03938B
:101CF3000112084E9B920112084E8A920112084E5D
:101D030048AA0112084E6B910112084E3591011237
:101D1300084EF8900112084E99900112084E56A7EA
:101D23000112084EC1E40212084E68900112084ED7
:101D3300238D0112084E148C0112084EA38B01123D
:101D4300084E688B0112084E338B0112084E278B05
:101D53000112084E878A0112084ECE890112084EDD
:101D6300A1870112084E2D850112084EEB84011242
:101D7300084EB6830112084E6B830112084E9D82F2
:101D83000112084EF4810112084E90810112084E8F
:101D9300CA810112084EA8A40112084E5DDE02009A
:101DA300000080FBE473000000000000000000005E
:101DB3000000000000001010101010100000303060
:101DC3000000001428500000000000000000000084
:101DD3000000002828FC284850FC50500000000058
:101DE3001038545430181454543810000000004470
:101DF300A8A8B0541A2A2A4400000000002050501A
:101E030060ACA898927C000000606020C0000000D5
:101E1300000000000000000408081010101010104B
:101E230008080400000040201008040810204000A7
:101E330000000000001010D63838D6101000000043
:101E4300000000101010FE10101000000000000031
:101E53000000000000000000606020C000000000DF
:101E63000000FC0000000000000000000000000073
:101E73000000000060600000000204040408081071
:101E83001020202040000000003048848484848493
:101E93004830000000000010701010101010107C6B
:101EA300000000000038444404081020447C000073
:101EB300000000384444180404444438000000007F
:101EC300080818284848887C081C00000000007C8B
:101ED300404078440444443800000000003C4480FF
:101EE300B8C48484847800000000007C444808104F
:101EF3001010101000000000007884844878848457
:101F030084780000000000788484848C740488F052
:101F130000000000000000303000000030300000FE
:101F2300000000000000100000000010102000005E
:101F330004081020402010080400000000000000E6
:101F430000FC0000FC00000000000000402010081E
:101F530004081020400000000000788484840810E6
:101F630010003030000000000038449AAAAAAAB436
:101F7300423C00000000001010282828384444EE9A
:101F83000000000000F844447844444444F800004E
:101F93000000003C448480808080443800000000BE
:101FA30000F048444444444448F00000000000FC6E
:101FB30044404878484044FC0000000000FC424094
:101FC3004878484040E000000000003C44848080A2
:101FD3008E8444380000000000EE4444447C4444B2
:101FE30044EE00000000007C101010101010107C54
:101FF30000000000007C101010101010101090E072
:10200300000000EE44485070484844EE00000000D1
:1020130000E040404040404044FC0000000000EE2F
:102023006C6C6C54545454D60000000000EE64648D
:102033005454544C4CE40000000000304884848421
:10204300848448300000000000F844444478404051
:1020530040E00000000000304884848484B44838A1
:102063000C00000000F844447850484844E600005F
:102073000000003C444020180404447800000000A1
:1020830000FE92101010101010380000000000EE37
:1020930044444444444444380000000000EE4444B3
:1020A3002828282810100000000000D65454545447
:1020B3006C2828280000000000EE44282810282857
:1020C30044EE0000000000EE4428281010101038E1
:1020D30000000000007C88081020204044FC000021
:1020E300001C101010101010101010101C000070A5
:1020F300101010101010101010107000007010103D
:1021030010101010101010107000001028000000A4
:1021130000000000000000000000000000000000BC
:102123000000000000FE00606020C000000000000E
:102133000000000000000000000038441C24443E5E
:102143000000000000C0404078444444447800004C
:102153000000000000003C44404044380000000000
:10216300000C04043C444444443E000000000000CE
:10217300000038447C40443800000000001C242048
:10218300F8202020207800000000000000003C48D8
:10219300483040784438000000C04040586444440C
:1021A30044EE000000000010000070101010107CBE
:1021B300000000000008000038080808080808703C
:1021C300000000C040405C48507048EC0000000034
:1021D3000070101010101010107C000000000000A0
:1021E3000000F854545454D60000000000000000CE
:1021F300D864444444EE000000000000000038446A
:10220300444444380000000000000000F844444403
:10221300447840E00000000000003C444444443C57
:10222300040E000000000000EC30202020F8000025
:102233000000000000003C44300844780000000027
:10224300000010107C101010100C000000000000A3
:102253000000CC444444443E000000000000000061
:10226300EE44282828100000000000000000D65487
:10227300545428280000000000000000DC483030DF
:1022830048EC0000000000000000EE442828101075
:1022930020E00000000000007C481010247C0000B7
:1022A300101010101010101010101010101007E064
:1022B3004420242007E08420442007E020002FF05E
:1022C3004A504A508A508A501FF800004FF0281095
:1022D30008108FF0481008102FF0224052484A503F
:1022E300866082401FF8020001003FF824203FF877
:1022F300242027E020002FF0242022404180466044
:10230300981802004210222012400200FFF80880B1
:1023130008800880088010801088208840787BF02F
:102323004910491049107A6048004BF04A104A108E
:102333007BF00000491044888488080010007FF077
:1023430040104010401040107FF0401040104010EB
:1023530040107FF0401000007FF0020002000200F6
:102363000200FFF80200050005000880104020204D
:10237300C01800007FF0421052504A907FF00200D4
:102383007FF00200FFF800004910448884880400AD
:102393000200FFF81100110021F022906450AA20DE
:1023A30021402080214022202C18200020004BF0C7
:1023B3004880F080108020804080F880008000807A
:1023C3001880E08007F82080208020803C8044C073
:1023D30044A0A49018880888108010802080408032
:1023E300808004000400FFF808001FE03020502024
:1023F3009FE0102010201FE01020102010E00000AC
:102403007FF00200020002000200FFF80500050051
:10241300090011002108410880F8020002000200AF
:102423000200020002000500050005000880088084
:1024330010402020C01840007DF091101110FF10B3
:10244300291045F080003FE020203FE020203FE0BE
:1024530020201080209844E0FE88028800787C00C9
:1024630044887C9044E07C80448844884C78020013
:10247300FFF8800800007FF00C00122065400980FF
:102483003340C5401920E11806007FF0401040108A
:102493007FF0410041007FF8410041005FF05010A0
:1024A30050105FF09010100013F8102054205420A7
:1024B3005820902010201020102028202420442071
:1024C30080E002004210222012400200FFF8088040
:1024D30008800880088010801088208840780400D5
:1024E3000200FFF888889048202000003FE00200A7
:1024F3000200020002000200FFF8400027F82488CF
:102503000488E5E8248827F8240825E82D283528B9
:1025130025E80408083802000200020022102210F5
:1025230022204540850005000880088010402020B7
:10253300C018210021002BF0B410A820A100A63858
:102543002408240827385408540847F8840804004A
:102553000200FFF8800880080200122012202240A7
:102563004200050008803060C01824407EF8251022
:102573007E90AA603A980600FFF800003FE0000052
:102583003FE020203FE0200023F02210FA102270C9
:1025930022002BF03290E29022A0224022A02310AE
:1025A300E2087FF010401040104010401040FFF848
:1025B30010401040104020402040404080401040D8
:1025C300084008807FF0020002000200FFF80500C7
:1025D3000500088010402020C018081048107F50C4
:1025E30088500850FF50085008507F5049504910F8
:1025F30049104B10087000804080214022200510B4
:102603000888000017F010102020224041804080ED
:102613000040108010807BE010A018A072A0112849
:1026230011A8129874080000491044888488010096
:102633000100F90023F02110211021102110211095
:102643003910C210021004100860040002007FF069
:10265300020084884F10222044908FC80240FFF864
:10266300020002000200040004007FF008001200D0
:1026730022003FE00200020022402220421082108A
:102683000E000880088008800888F89008A008C019
:102693000880088018802880C88808880878020085
:1026A300020002000200FFF8020005000500050019
:1026B3000880088010402020C01824201240008089
:1026C300FFF8800880083FC000800300FFF8020085
:1026D300020002000E0000000000000000000000E5
:1026E3000000180018000000000018001800000087
:1026F30000006000900097E86818100810081000A8
:102703001000100010001008081007E00000180067
:1027130024082410242024402480190002600490FB
:10272300089010902090409000600001363601011F
:102733000001020100010301000104010606050274
:102743000000070100340801000F090401010D0115
:1027530000FF0E08000017020000190100FF1A0114
:1027630000011B0100FE1C0100081D0200001F01E7
:10277300000120010001210200002301000F2402B7
:1027830000002601000127010008280200FF2A019A
:1027930000072B0102402C0100002D0100012E0136
:1027A30000012F0100FF30010B1C310800003A012A
:1027B30000083B01000F2F010000030071003001EE
:1027C30060001100700031022003500480001000EB
:1027D3006100000014006300730072006200430094
:1027E30000001300060000000000040012000000B7
:1027F30000000000000004000400370037003C0222
:1028030044000000000000000000650000003500E7
:102813008100000005000000830000000103710334
:102823000103010301030103010322030203010363
:10283300100300030003000300030003000300036D
:1028430042030003240306030003000304031203EB
:1028530025032303250323030403040300030003C5
:102863000003440300030003230300036503210063
:102873003503810300030503000300030003030280
:1028830071023001600211027002010202020202AF
:102893008002100261023A00410063027302720275
:1028A3006202430200021302380000020002040223
:1028B30012020002000200020002040204023700B6
:1028C30037003C02440200023900000200026502A4
:1028D3000002350281020002050282028302000225
:1028E3000101710101010101110101013101010125
:1028F30001018001100161013B00140063017301B8
:102903007201620143010001130106013D0135001B
:10291300040112010001000100010001040104018E
:10292300330133013C01440132013600000100014F
:102933006501000135008101000105018201830168
:102943000001CEC2CAAAB6C8B9E2D5D5B0D7CCEC7D
:10295300BADAD2B9BAECCDE2D3D0CEDEC8CBD6C781
:10296300C4DCBCD2BED3B5C6B9E2BFD5B5F7BBF0A4
:10297300D1E6D4D6BEAFB1A8BFAAB9D8D6C6C0E4F3
:10298300C8C8B9A6C2CAB6ABB1B1B4F3D1A7A3BA8A
:10299300A1E6A3A50036000100060000000F000019
:1029A300000000000000000000000003FFFF000023
:1029B3000403FFFF0000FFFF0FF4010005C404033D
:1029C30020000100030B00000000000000000301D1
:1029D3000F010000170200761603007C1604008224
:1029E3001605008816060094161100AC161400B2E2
:1029F300161500A616FFFF0000560F860F5C0F6228
:102A03000F800F740F6E0F8C0F920F980FA40F6827
:102A13000F500F4A0F03EAF5E5D5D5C5B5A5959532
:102A230085857575656555554545353525251515D3
:102A3300050A220D02EC0C05FE0C07F20C0CCE0C61
:102A43000DE00CFF000000160F00000B150B020039
:102A530002220F32000006401052105810200F5E61
:102A6300101A0F260FA010BE10C410A610B210AC7F
:102A7300100C0E020B040B0A0708000F00011916B5
:102A83001816161523030000383C3E363B3B352B06
:102A9300432C00034948424D1817250502303016D0
:102AA300181920231A1C1E30303017181921301B17
:102AB3001D1F30941064106A10761070107A0F9EE8
:102AC3000FB810AA0FB00F0204020101010109029D
:102AD30000000000000000BE040A040015000E0000
:102AE3002800080C0C0A030908FF1E1E0F04040526
:102AF30074F7120383E99003B0F0900365E4F012D6
:102B03001BA49003B5E4F0A3F09003B1F0A3F0127B
:102B13000E5A121BAA900334E4F0A3F0902AEF9309
:102B2300FA7902121C0A02578974F2120383EAFE2D
:102B3300EBFF548060699003B0E0F91213C48A0874
:102B43008B09EA4509604F7C0080010CEC75F003AA
:102B5300A4F8A9F0743428F582742A39F583E49330
:102B6300F4602CE493F88508828B83E06870DCAA18
:102B730008EC75F003A4F8743528F582742A39F546
:102B830083E493C0E0740193F583D082121DA7AA56
:102B930008AB091213B8EEFAEF6480FB022CF9EFCD
:102BA3005420601D120D7C8A088B09EA4509600ACE
:102BB300120CE0AA08AB091213B8EEFAEF642080F6
:102BC300DAEEA2E0501A90036AE0640F700B79000A
:102BD300120CAAE96003122CFCEE6401FAEF80BB2D
:102BE30054207003022CC7750C001241CE8B09EAE6
:102BF300450970107C027D007A207B009003B0E0D1
:102C0300F912150E7C0079047A007B00120D588AA4
:102C1300088B098018850882850983A3A3A3A3A32E
:102C2300A3A3A3A37401F0850A08850B09E508454E
:102C330009606D7C007904AA08AB09120D588A0A51
:102C43008B0B750C01E5082404F8E509123F722487
:102C5300FFF0A3E034FF12626570CC85088285091A
:102C630083A3A3A3A3A3A3A3A3A3A3E0640170A526
:102C7300850882850983A3A3A3A3A3A3E0540470B7
:102C830094850882850983A3A3A3A3A3A3A3A3A3D2
:102C93007406F07AB7850882850983122E28808707
:102CA300120D287C0079017A007B00120D588B09E4
:102CB300EA45097009E50C70057A20125128EE6483
:102CC30020022BDFEF5402600B120E54EEFAEF6476
:102CD30002022B9EEF540460191252BF1251DF7986
:102CE30001900363125543120BF0EEFAEF640402F2
:102CF3002B9E7A007B00022F2F900CE01235C61218
:102D03000CC222C082C08374EA12092D8518828501
:102D13001983AA82AB83794B121BE07408120AFF52
:102D23007402F07409120AFFAA82AB837950121B52
:102D3300E07413120AFFE4125712121BFE741602F8
:102D430046EC74F712038374E112092DEAFEEBFFDC
:102D5300EE4F6033851882851983AC82AD83120DE3
:102D6300A07406120AFFE0601E7417120AFFE0FD4A
:102D73007401120AFFE0FCEEFAEFFB7900120B1864
:102D8300E9600479A48002790002578474F612037F
:102D930083EAFEEBFF8E828F83A3A3A3A3A3A3E007
:102DA3005440601B125C01122EF660067AFF7BFF13
:102DB300801A8E828F83124378FAA3E0FB8003127A
:102DC3000DC474FE6A700374FF6B6041125C0112E0
:102DD300516C120E18E98E828F836006122E21E445
:102DE3008005122E217401F07CB07D0C8E828F83BE
:102DF300125543121C04E9F5087015EE4F6009796A
:102E030001EEFAEFFB120D34A90802519D7508CDAE
:102E1300AA088E828F83122E28E960DF80EAE024DD
:102E23000D12484722E0240C124847E0F9120CBC6B
:102E33002274F6120383E9FEEAFF7A0F7B00121372
:102E4300B2EA4B60198A828B83740CF0EEA3A3F071
:102E5300EF8A828B83A3F01251C87900802FEEF999
:102E6300120D5E8A088B09A808A909E849601C8825
:102E7300828983A3A3A3A3A3A3A3A3A37406125E1C
:102E83008CE0F9120C74EEF9120D3A791002519D8F
:102E9300C082C08390036AE0640F7014EA4B601031
:102EA300900365E064086005E064047003122EB6C5
:102EB300024716EAFCEBFD7A017B009003B0E0F9D0
:102EC30012150822C082C0837900EA241DF582EB23
:102ED30012437524FD600B14600824FD600424FD77
:102EE3007001090247168E828F83A3A3A3A3A3A312
:102EF300A3A3A3122EFA221243BDFB120E18E9223A
:102F03008E828F83A3A3A3A3A3A3A3A3A3122EFAA7
:102F13006402228E828F83A3A3A3A3A3A3A3A3A349
:102F230012470D900356E068221208B37F0602058C
:102F33009D74F412038374FD12092D8A088B098A88
:102F4300828B83A3A3E0F9120D5E8A0A8B0BAE0A70
:102F5300AF0BEE4F700302303B850882850983A3D4
:102F6300E064F16030850882850983A3E064CD6065
:102F730024850882850983A3E0641A601885088282
:102F8300850983A3E064E9600C850882850983A32E
:102F9300E064E170087900120D34E9706C850882F1
:102FA300850983A3E0C0E07402120AFFD0E0124651
:102FB300F1EEF0A3EF123A1C851882851983AA82D9
:102FC300AB837005120BD88003120E007402120A31
:102FD300FFE064E970338E828F83123047750A01F4
:102FE300780A12086F750AE9780A12086FE508244F
:102FF3000CF582E50912350E1239F9FCA3E0FD8ABE
:10300300828B83123A131208B38E828F83A3A3A3F6
:10301300A3A3A3A3A3A3E0640270108E828F83A350
:10302300A3A3A3A3A3A3A3A37406F085088285097E
:1030330083A3A3E0F9120D3A120D28900CE4122C8D
:10304300FF0235CBE0F8A3E0F9E8FAE9FB2274F4D8
:10305300120383EAFEEBFF7508008E828F83A3A31E
:10306300A3A3A3E060427508088E828F83A3A3A362
:10307300A3A3A3A3A31246208B0BEA450B601075F1
:10308300082C8E828F83A3A3A3A3A3E0D2E0F08EA8
:10309300828F83A3A3A3A3A3E05403640160030269
:1030A300313A43081102313AEE24181235D860330D
:1030B300EE241A1235D8700F122F167003A3E0698D
:1030C30070757508228070EE241BF582EF12313F74
:1030D300241AF582EF123A24EE2419125C35120CED
:1030E300628054122F037003750801122F167003A8
:1030F300A3E0697006E508D2E1F508E50860158EDE
:10310300828F83A3A3E07006E508D2E58004E50877
:10311300D2E6F508122EE964017006E508D2E0F55F
:10312300088E828F83A3A3E0600D12314D6401608A
:1031330006E508C2E0F508A9080235D01243631278
:10314300314622E0FCA3E0FDEE2212435D124395DB
:10315300F9120E06E922C082C08379018A828B8329
:10316300A3A3E0C394024001198A828B83A3A3A380
:10317300A3E0C39402400279008A828B83A3A3A3B2
:10318300A3A3A3A3A3A3E064F87003A3E0F460459F
:103193008A828B83A3A3A3A3A3A3A3A3A3E064F91A
:1031A3007003A3E0F4602E8A828B83A3A3A3A3A35B
:1031B300A3A3A3A3E064FA7003A3E0F460178A82D5
:1031C3008B83A3A3A3A3A3A3A3A3A3E064FB700381
:1031D300A3E0F4700279008A828B83A3A3A3E0F8AF
:1031E300900353E0686002790002471674F01203FB
:1031F3008374DE12092DEAFEEBFF8E828F83A3A375
:10320300A3A3E0600E900CE21251946006900CE2CE
:10321300122CFF7403120AFFAC82AD838E828F835C
:10322300A3A3A3125216125A4FE9600F7403120A92
:10323300FFAA82AB83120CDAE970087901121BB67C
:10324300023503EE241B1243687410120AFF125155
:10325300DF7409120AFFE06021741A120AFFE0FD0D
:103263007404120AFFE0FC8E828F831255417901A8
:10327300120B18E96004790280C37403120AFFAACF
:1032830082AB83120CD4E9F50A7409120AFFE070C9
:103293002A90034DE060247422550A6422601C7452
:1032A30042550A644270CF7420120AFF123521601E
:1032B3000A7420120AFF12351A70BBE9A2E65041C4
:1032C3007403120AFFAA82AB83120CC8E9700302CB
:1032D300323E7420120AFF1243786403700F742085
:1032E300120AFFA3125186A3E0640D601474031243
:1032F3000AFFAA82AB83120E2AE964017003023526
:1033030003EE242C12350B12382F7003A3E06970DF
:103313001C750800780812086F780812086FEE24ED
:103323002E125C35123527123A131208B3740912A0
:103333000AFFE070030233E0123527125543120EE1
:103343007E8A088B09EA4509700302347D740412EE
:103353000AFFE0F88E828F83A3A3E028F8A3E0346A
:1033630000F9E8240D1235128A828B83A3A3A3E00C
:1033730068601CE88A828B83A3A3A3F090814D121B
:103383000ADC850882850983A3A3A3A3120AE8792B
:1033930004E9120AFF125A2C2AF8A3E034008882A7
:1033A300F583A3AA82AB831213A08A0C8B0D8C0E18
:1033B3008D0F850882850983A3A3A3A3780C120824
:1033C300074003023503908145780C1209BC850838
:1033D30082850983A3A3A3A3780C120AC090036573
:1033E300E064046008E064096003023503E50AA2AF
:1033F300E540030234BBEE242E1235D885188285AE
:103403001983F0EE242F1235D8C0E07401120AFF9D
:10341300D0E0F0EE24301235D8C0E07402120AFF77
:10342300D0E0F07414120AFFE064017027740E12E6
:103433000AFF12436EEE24121235D8687003A3E01C
:10344300697011740C120AFF122F10700774141292
:103453000AFFE4F0EE242412350B12069E740412C4
:103463000AFFAC82AD837407120AFFAA82AB8312F0
:103473000BDE74041208B30235039003AAE064015F
:1034830060030233E07420120AFF1235217009E54C
:103493000AA2E650030233E07410120AFFE0F4704C
:1034A30003A3E0F4605AEEFCEFFD7403120AFFAAD3
:1034B30082AB83120CE68048A2E650447420120AC1
:1034C300FF125552701A741A120AFFE06402703028
:1034D3007403120AFFAA82AB837900120DF48020D1
:1034E3007420120AFF12351A7016741A120AFFE0BA
:1034F3006404700C7403120AFFAA82AB83120DEEEC
:1035030074220258FEEE240BF582EF12436322F578
:1035130082E91251F8F822125C13E0640722124385
:1035230095640622EE242A124360123146241212B5
:1035330043602274F4120383EAFEEBFF8C088D09C7
:103543009005B7E0600F122F167003A3E0697005B2
:10355300120C50804F7900125536120C808A828BE0
:1035630083E58245836035A3A3A3A3A3A3E05418F3
:10357300602AE508241BF582E50912350E1206A21E
:10358300123C0C12350E1206A2EE2418125C3512F0
:1035930035A9120C9274041208B38008790012350D
:1035A300A9120C5680278E828F83A3A3A3A3A3A360
:1035B300A3A3A3123146240BF582EF1235C22234A2
:1035C30000F5831243BDFB2274031208B37F040288
:1035D300059DEE2417F582EF1251F82274F71203BA
:1035E3008374F712092DEAFEEBFF900365E0640391
:1035F300600DE064016008E0640960030236A98E8F
:10360300828F83A3E0707E7C007D007A027B0012B0
:103613001BB0EE2402FAEF123F7912436E90035669
:103623001251DF7953121BE679001236AEE06409BA
:103633006003123A4185188285198374011251B5CA
:103643009003657404F07401120AFFAA82AB8379B4
:103653004A121BE07401120AFFAC82AD837A5B7BD2
:1036630003121BCE900356125A457A03123A4B901B
:103673000350E0A2E35004D2F08002C2F01251A240
:10368300122CFC801E8E828F83A3AE82AF83FC7DBF
:10369300007A037B10121BB08E828F83E0F91236FF
:1036A300AEE4F0120D1074090257869003631235CD
:1036B300C6120BF090036522C082C08390033412BC
:1036C3005194701F900365E014600924FC600A1490
:1036D300600C800F90033C8032900338802D900360
:1036E3003A8028E84960089003351239F3700C8A50
:1036F300828B83A3E0F9120BE4801B900335123C09
:10370300A87005120E48800E9003D21251946006E1
:10371300125186121DA702471674F412038374FB19
:1037230012092D8A088B097A0F7B001213B28A0AB9
:103733008B0BAE0AAF0BEE4F70030238238E828FD2
:10374300831257107950121BE0850882850983A3E1
:10375300E0600302380B900363E0F47003A3E0F42A
:103763006034900363E064FE7003A3E0F460278594
:10377300188285198312382F7003A3E069601785B7
:103783000882850983A374EA123A297A637B037951
:1037930050121BE68072851882851983125BF4121E
:1037A30051DF7A567B037953121BE0900356125272
:1037B300101251DF7A597B03794B121BE07A587B45
:1037C3000379E1121BE090036AE0C3940F50219048
:1037D3000358E0C0E07402120AFFD0E0F074041250
:1037E3000AFF7401F004120AFFAA82AB83121BF8CA
:1037F300750A00780A12086F780A12086F900D0A8A
:10380300E0F9123A0A1208B385088285098312384F
:1038130028A3F09003657403F0EEFAEFFB1251C88E
:1038230074050235CDA3E08E828F8322125BF8E00C
:10383300682212484E2274F512038374D812092D9C
:103843008A088B098A828B83A3A3A312439A7415D4
:10385300120AFFAC82AD838A828B83A3A3A3A3A3A3
:10386300A3A3A31239F9FAA3E0FB120D16741512E0
:103873000AFFE0706B850882850983A3A3A3A3A332
:10388300A3A3A3E0C3940B40578E828F83A3A3A368
:10389300A3A3A3A3A3E064027046EE240B1235D8BE
:1038A300F4703D900365E06402603AE064066035BD
:1038B30090033412519460051239F3604F900365FD
:1038C300E064086005E0640470167417120AFFE0F0
:1038D300F9741C120AFFAC82AD83125536120D1C0B
:1038E3007428026112900334125194701F750800FA
:1038F300780812086F780812086FEE241012350B3F
:10390300125C4D124061123A131208B38E828F83F8
:103913001254B2123F8B12436E7402120AFF1251F9
:10392300DFEE240D1235D8C0E07404120AFFD0E094
:10393300123A1CF508A3E0F509740F7808120AB1CE
:103943007405120AFFE508F07419120AFFE0C0E0DB
:103953007406120AFFD0E0F0741B120AFFE0C0E005
:103963007407120AFFD0E0F07416120AFFE0C0E0F9
:103973007409120AFFD0E0F07417120AFFE0C0E0E6
:103983007408120AFFD0E0F0EE24101235D8C0E01C
:10399300740A120AFFD0E0F0741A120AFFE0C0E0C2
:1039A300740B120AFFD0E0F07427120AFFE0C0E0A4
:1039B300740C120AFFD0E0F0741C120AFFA982AA49
:1039C3008389088A09750A0078081208677C087DCC
:1039D300007410120AFFAA82AB83124D431208B37C
:1039E300851882851983AA82AB83120BEA0238E316
:1039F300123CAE640122E0F98A828B83A3A3A3A3C2
:103A0300A3A3A3A3A3E022900363125A49900359EB
:103A13001235C6120DD6740222F0EE240B1251F5A4
:103A2300221251F8FA22F07A567B037953123A3470
:103A330022121BE67A597B03794B121BE622900371
:103A4300631235C6120E78227B00121BB090035905
:103A5300125A497A047B00121BB022F0125C5822DE
:103A630074F212038374F812092DEAFEEBFF8C0A39
:103A73008D0B890C851882851983AC82AD83758380
:103A8300807582E074081207C7F50DEEFCEFFD8523
:103A93001882851983AA82AB831254137003750DA0
:103AA300019003B1803BEEFCEFFDE508240BFAE542
:103AB300093400125412601E850882850983A3A36A
:103AC300E0650C7011850882850983E0650A70043E
:103AD300A3E0650B6038E5082414F582E509123587
:103AE3000E123F83E50845096024E50DA2E040B6C8
:103AF300850882850983E0650A7004A3E0650B707D
:103B0300D5850882850983A3A3E0650C70C8AA083C
:103B1300AB097408022F2CC082C0839003B1024703
:103B23001374F71203839003B11243BD8012EA2486
:103B330014F582EB12350E12439A121454EEFAEF77
:103B4300FBEA4B70E99003B1E4F0A3F00257897FDD
:103B53000702059D74F1120383EAFEEBFF890A8CC9
:103B6300088D098E828F83E08C828D8312462AAE64
:103B730082AF83E0124E03124D74C4124E03123C03
:103B830015E054038C828D83124D72A2E2E4338CD0
:103B9300828D83124D71131313541F124E03124D52
:103BA30070A2E7E4338C828D83A3A3A3A3123C15F5
:103BB3008E0C8F0D750E00780C1208677C087D0043
:103BC300E50824071259B81208B3125A238E0C8F32
:103BD3000D780C1208677C037D00E508240F125949
:103BE300B81208B3E50AC3940F40148E828F83A3DF
:103BF300A3A3E0C0E0123C0C12350ED0E080061205
:103C03003C0C125E80F0023B52E5082412F582E57B
:103C13000922A3A312462E0EAF832274F412038348
:103C230074F912092DEAFEEBFF890890033412514F
:103C330094600E123CA87009EEFAEFFB120E42805C
:103C43005F900363E06E7003A3E06F7053740165CC
:103C53000860097A777B0312541370447A007B025D
:103C63001241D28B0BEA450B7036900366120ADCC5
:103C7300851882851983120AE890036CE0C0E0740A
:103C830004120AFFD0E0F07405120AFF7401F07405
:103C930006120AFF125710120BB4E9609B120BBAFB
:103CA30074070235CD123CAE640222125C14A3A346
:103CB300A3A3A3A3E02274F51203838A088B098AC2
:103CC300828B83A3AE82AF83E0F9120C088E828FBE
:103CD30083E064EB600C850882850983A3E064E1DB
:103CE3007009850882850983A3E4F0122CFC750A08
:103CF30001780A12086F850882850983A3E0F50815
:103D0300780812086F7900123A0A1208B3120D28C4
:103D1300026115EAF0A3EBF002471674F61203836F
:103D23009003B4E0701B7C0079017A007B00120DD4
:103D330058EA4B600C8A828B831251946003120CF5
:103D4300B602519DC082C0831241BA401079FF125E
:103D53000D52E9F8902AE6E493C398500479018060
:103D630002790002471674F01203838A088B0989CB
:103D73000B750C008A828B83A3A3A3A3A3A3A3A382
:103D8300E0F9120D5E8A0E8B0FAE0EAF0F750A01AE
:103D9300EE4F6003023E47850882850983A3A3A3F0
:103DA300A3A3A3125A45850882850983A3A3A3A3CA
:103DB300A3A3A3124B43125543120D468A0C8B0D3A
:103DC300AE0CAF0DEE4F7003023F6A8E828F83A35A
:103DD300A3A3A3E4F0A3F0E508240B123F76E0C00D
:103DE300E0123508D0E0F0120E1EEE240CF582EF3F
:103DF300125168E508240EF582E50912436BEE249F
:103E03000EF582EF1251DC750C01EE2406F8EF1269
:103E13003F72547FF0A3E054FC125CAAE0540460A8
:103E230003023ECD900CE8124B3474077808120A53
:103E33002E8E828F83A3A3A3A3A3A3E04508F0A39D
:103E4300E04509F08E828F83A3A3A3A3123F81745D
:103E5300077808120AB1E5085407F508E50B607AFC
:103E63008E828F83A3A3A3A3A3A3A3A3A3740212EA
:103E73004D75240D124843E0A2E2500B90035112FA
:103E83005210A3A31251DFE5087003023F3FEE2453
:103E930006F8EF3400F9E8FAE9FB8A828B83E054F1
:103EA3007FFCA3E054FCFDE50824FFF508E434FFA0
:103EB300F50974077808120A2EEC4508F8ED450950
:103EC300F98A828B831251DF80728E828F83A3A340
:103ED300A3A3A3A3E04480023E46E5087005750A48
:103EE3000080598E828F83A3A3A3A3A3A3E05420AE
:103EF30060121213ACEA547F245F8E828F83A3A3D4
:103F0300A3A380238E828F83A3A3A3A3A3A3E0549D
:103F130010600A1213ACEA540F240A80DD8E828FDC
:103F230083A3A3A3A37401F0A3E4123F8B7404122D
:103F330041C98B09EA4509700312515BE50CA2E004
:103F430050288E828F83A3A3A3A3125776F9EEFA88
:103F5300EFFB120D4CE9601212518A6003124353B6
:103F6300EEFAEFFB121454750A00A90A0259011262
:103F730052D322FAE5093400FB8A828B8322A3A35E
:103F8300E0F508A3E0F50922123F8F221259D4A3CA
:103F9300A3A3A3A32274F412038374F712092D7E3F
:103FA30000120D5EEA4B700302405A8A828B83A390
:103FB300A3A3A3A3A3A3A3A3E06406600302405A9D
:103FC3008A828B83A3A3A3A3A3A3A3E0FF8A828BE9
:103FD30083124856E0C0E07408120AFFD0E012438F
:103FE3008E1254191251DF120D70EF54086066855A
:103FF3001882851983125A457A007B00120D408B73
:104003000BEA450B704F90036312447E121C107C25
:10401300007D007A007B0080288E828F8312437894
:10402300F47003A3E0F4602D900363124061125512
:1040330043121904E9641A601C7C007D00EEFAEF58
:10404300FB120D408A0A8B0BAE0AAF0BEE4F70C901
:104053007900121C167E01EEF974090235CD124067
:104063006522E0FCA3E0FD8E828F8322C082C083A1
:10407300EA4B70059003B580068A828B83A3A31253
:10408300427E60258A828B83A3A3A3A3A3A3A3E079
:10409300540860E5EC4D60158A828B831243786C7B
:1040A3007003A3E06D70D280047A007B0002471690
:1040B30074F2120383EAFEEBFF890A8C088D097AF6
:1040C300107B0012144EEA4B603F8A828B83A3A3BA
:1040D300A3A3A3A3A3A3A3E412437CA3E50A125CB3
:1040E3001AA31241168A828B83A3A3A3A3E4F0A38A
:1040F300124388A3F0125AAEEA240CF582EB12465F
:104103001A12410FA3A3F0A3F0022F2FA3F08A8268
:104113008B8322A3A3E508F0A3E509F02274F4122C
:104123000383EAFEEBFF89088C0A8D0BEE4F605583
:104133007401650870147901120D52E9F8902AEBA5
:10414300E493C398500F7911806A74046508702F43
:104153001241BA40F18E828F83A3A3A3A3A3A3A387
:10416300A3A3E50812462AA312619F8E828F83A31D
:10417300A3E4F0A3F09003B51251946021800D7471
:1041830002650860D079C1802BE0F8A3125209A31D
:10419300A312427E88828983A3A370ED80039003D8
:1041A300B5EEF0A3EF1241C98B0BEA450B70031276
:1041B300515B79000235D07904120D52E9F8902A47
:1041C300F2E493C39822F01241CE227A207B00902E
:1041D30003B0E0F912151A22C082C083E9F879000E
:1041E3009003B5801D8A828B83A3A3A3A3A3A3A358
:1041F300A3A3E068600574FF687001098A828B835A
:10420300A3A312427E70DE02471674F7120383EAF9
:104213004B70059003B580068A828B83A3A3124259
:104223007E60248A828B83A3A3A3A3A3A3A3A3A3B4
:10423300E06970E4EC60148A828B83E0240D125AE7
:1042430036A2E240D380047A007B00025789C08201
:10425300C0839003B580068A828B83A3A312427E18
:1042630060128A828B83A3A3A3A3A3A3A3A3E0695E
:1042730070E580047A007B000247161235C6EA4BCC
:104283002274F21203838A0A8B0B8C0C8D0D750832
:1042930000750900EA450B602E9003B580068E82F7
:1042A3008F83A3A31242D1601EAC0CAD0DEEFAEFC7
:1042B300FB850A82850B83121DA7E9640170DFEE7B
:1042C300F8EFF988088909AA08AB09022F2FE0FE45
:1042D300A3E0FFEE4F2274F71203839003B512435A
:1042E3006E7C007D00800DE8FCE9FD88828983A354
:1042F300A312436EE8496030EA687002EB6970E725
:104303009003B5125543E86A7002E96B888289838A
:10431300A3A3700812436E9003B5800912436E8CF9
:10432300828D83A3A31251DF02578974F71203838B
:10433300EAFEEBFFEE4F6015120D6A1243A0125115
:104343008A6003124353EEFAEFFB121454025789A7
:10435300EE240C1243601243B522EE241DF582EFC6
:104363003400F58322F582EF12436312470D22F5E1
:1043730082EF1243631243952212438022125C227E
:10438300A3A3A3A322124380A3A322124110124387
:104393009522125C0DE022E0FEA3E0FF228E828FC5
:1043A30083E0241C1248471243B58E828F83124345
:1043B300B5221243BDFB12145422E0FAA3E022C03B
:1043C30082C083EAFCEBFDEC4D700479058044EC7C
:1043D30024FBF582ED34FF1251927007124419E069
:1043E300F460051213B880E39003B0E0C0E0124418
:1043F30019D0E0F0902AE8E493F97AB77B0312131B
:10440300E2E96401700B7A007B2012515F7900802E
:10441300027904024716EC24FFF582ED34FFF5839D
:104423002274F4120383A2AFE433F508C2AF9003FE
:10443300B71242D16038EE24FBF582EF34FF1251FC
:10444300927A007B209003B060051251628005E0F0
:10445300F91213EEE4F50AF50B780A12086BEEFC79
:10446300EFFD7AB77B031213DC74021208B3E5087D
:10447300A2E092AFEEFAEFFB0235D0125A4985184B
:1044830082851983AA82AB832274F212038374FC9C
:1044930012092DEAFEEBFF750AFE750BFF120D2EB6
:1044A300E96005791102460FEE24151235D86037FD
:1044B300900CFCE0C43354E0F8E0333354FC48C0C0
:1044C300E0EE241512350BD0E012462A1246208B5B
:1044D30009EA45096011750AFFEE240F1235D84425
:1044E300041251EDD2E0F08E828F83122EF4600617
:1044F300EE2412124617EE24131235D87010902AA8
:10450300EEE493C0E0EE241312350BD0E0F08E827C
:104513008F83E0A2E750045403801CEE2414123569
:10452300D87015900342E0C0E0EE241412350BD08E
:10453300E0F0900342E004F0EE24111235D8640158
:1045430070169005AEE0600D90034DE0700A8E8208
:104553008F83E070031246148E828F83E0640170B0
:1045630013EE240B12437264027009EE240F12350A
:10457300D84440F0851882851983AC82AD83EEFA66
:10458300EFFB120D948A088B0974FE650A7003749D
:10459300FFF470098E828F83A3A31259C4EA4509DD
:1045A30060668E828F83E0C0E07401120AFFD0E060
:1045B300F07402120AFF125AB27401120AFF8582C2
:1045C3000C85830D780C12086BEE240F12350B1239
:1045D30006A2EE240E1235D8F50C780C12086F9053
:1045E30003561206A27407120AFFE0F9AC0AAD0BD8
:1045F300120D8E74071208B3E9FE74106E700BAAC5
:1046030008AB0912145480027E10EEF97404022FD1
:104613002CEE2411F582EF124363E4F022A312354A
:10462300C679FF121CDC2212462E22F08E828F8363
:10463300A322C082C08374DE12092D8A828B83A3D6
:10464300A3A3A312436E740E120AFFE8F0A3E912A8
:104653004704740C120AFF1246FD240DF582EB1277
:1046630035DBC0E0741A120AFFD0E0F0125911EBE7
:1046730012436B7420120AFF1246FD2415F582EBD8
:104683001235DBC0E07408120AFFD0E0F0EA241C04
:10469300F582EB12436B7412120AFF1246FD2411CA
:1046A300F582EB1235DBC0E07409120AFFD0E01289
:1046B30046F174FFF07401120AFF74FFF0740212E2
:1046C3000AFF74FFF090814D12069E7404120AFFD4
:1046D300AC82AD837407120AFFAA82AB83120BDE8E
:1046E30074041208B3790074221208B380251246A9
:1046F300F522F085188285198322E8F0A3E9F0EA10
:1047030022124110A312470C22A3E0F8A3E0F922DE
:10471300125543D083D08202084B74EC1203837486
:10472300EE12092D8A128B13ECFEEDFF8909742614
:10473300120AFF1259C47428120AFFE0F5107429F3
:10474300120AFF124838742B120AFFE0F50EA3E099
:10475300F50F7508107A1E7B0012144E7402120AAC
:10476300FF12516C7402120AFF1251947003024833
:1047730031851882851983AA82AB837950125047F9
:104783001255437402120AFF124856A312516C7455
:1047930010120AFF1261A17402120AFFE0240B1225
:1047A30048437402F0120AFF1248567402F0120AC8
:1047B300FF125C05125AB27402120AFF125558E531
:1047C30009F07402120AFFE0240C124843E510F0CA
:1047D3007402120AFF124840E512F0A3E513F074C5
:1047E30008120AFFE50CF0A3E50DF0740A120AFFA4
:1047F300E510F0850E82850F83C082C083740D128D
:104803000AFFAC82AD83D083D08274031207C7F949
:104813007402120AFFAA82AB83120D34E964017099
:104823000575080080087402120AFF124359A9088B
:1048330074120259DBE0F50CA3E0F50D22E0241C11
:1048430012484722F8A3E012484E223400F9888226
:1048530089832212554BA3A3A3A3A32274EE1203AD
:1048630083EAFEEBFF8C088D098E828F83A3740885
:10487300125228E060088E828F83A37410F01235E1
:10488300D560098E828F83A3E02408F0EE241512ED
:1048930035D860088E828F83A3E004F08E828F83E5
:1048A300A3A3A3A3A3A3E060198E828F83A3A3A3CF
:1048B300A3A3A3A3E0C3332402F88E828F83A3E0D0
:1048C30028F0EE24111235D86005750B0E800375A0
:1048D3000B008E828F83A3C082C083EE240D12351A
:1048E300D8D083D082F8E028250B8C828D83F0EE1C
:1048F30024111235D86005124D5328F0850882859E
:104903000983E0C394754009750800750900024ADC
:1049130041E0FA7B00125B607003024A41EEFAEF5A
:10492300FB120D9AEA85088285098312516DEE24E4
:1049330002F8EF123835124B3B124A7DF0EE240495
:104943000808EF123835124F7DA3124A7DA3A3F056
:10495300EE2413124A63F0EE2414124A63A3F07593
:104963000A08EE24161235D86010EE2418125A42A3
:10497300E5082408125C43750A101235D56016EE5B
:10498300241A125A42850A0CE508250C125C43745A
:1049930008250AF50A8E828F83A3A3A3A3A3A3E00A
:1049A3006059EE2407F510EF3400F511851082F5F8
:1049B30083E0C0E0124A4A12350ED0E0124A6DE09D
:1049C300C0E0124A4A12350ED0E0124A6DA3124AD1
:1049D30056120867851082851183E0C333FCE433E4
:1049E300FD850A0CE508250C1259B81208B3851089
:1049F30082851183E0C333250AF50AEE24151235A7
:104A0300D8600BC0E0124A4A12350ED0E0F01235DE
:104A130008124A56120867EE240D1235D8FC7D00A1
:104A2300850B0A8E828F83A3E0F8E50828F8E50951
:104A33003400F9E8250AFAE91259BB1208B3AA08A7
:104A4300AB097F0A02059D850A0CE508250CF58252
:104A5300E50922E0F50CA3E0F50D750E00780C22B4
:104A6300124360124A87A3A3A322F0050A8E828F02
:104A730083A3A3A3A3A3A3A3A322A3A3125CAEA371
:104A8300124A8722124F81A3A32274F61203838A48
:104A9300828B83E0FC900353124B34740278081228
:104AA3000A2EEC4508FCAD09EA2412124B2E7406BB
:104AB3007808120A2EEC4508FCED4509FDEA241599
:104AC300F582EB1235DB6004780180027800E4C8DC
:104AD300F9ED49FDEA2411F582EB1235DBF508887F
:104AE3000974097808120A2EED4509FDEA24161205
:104AF3004B2E740B7808120A2EED4509FDEA241794
:104B0300124B2E740C7808120A2EED4509FD8A8289
:104B13008B83A3A3A3A3A3A3124B34740A78081211
:104B23000A2EECFAED4509FB02519DF582EB124387
:104B330063E0F50875090022E08508828509832270
:104B4300A3E0F98508828509832274EE1203838A20
:104B53000A8B0BECFEEDFF750F01E9C394085005BA
:104B63007900024D408E828F83E9F0124FA6E960EF
:104B730003750F00124F8A8E828F83124FD4EE1269
:104B83005912EF124FC9C0E0EE241112350BD0E0D9
:104B9300124FC1C0E0EE241212350BD0E012462AA8
:104BA30074081259CCA3A3A3E06015124F72EE242C
:104BB30013F582EF1251DC8E828F83A3E02408F079
:104BC3008E828F83A3A3A3A3A3A3A3A3E060218EB9
:104BD300828F83A3858208858309124FB5EE24153E
:104BE300F582EF1251DC850882850983E02408F001
:104BF3008E828F83A3A3A3A3A3E0601A8E828F83E5
:104C0300A3858208858309124F998E828F83A3A37C
:104C1300A3A3A3124D65EE2419124617EE241B120B
:104C23004617A3125220E07003024CD4EE2419F865
:104C3300EF3400F98E828F83A3858208858309E090
:104C4300FAE50A2AF582E50B1235DB88828983129D
:104C53004D65FAE50A2AF582E50B1235DBC0E0EE75
:104C6300241A12350BD0E0124D6588828983E060E7
:104C730059F8902AE7E493C398500575110C8008FE
:104C8300EE24191235D8F5118E828F83A3E0F8E54F
:104C93000A28F50CE50B124D49120867E511C333D9
:104CA300FCE433FD7A8F7B0B124D431208B3EE24E1
:104CB3001B12350B748FF0A3740BF0E511C333F89B
:104CC300850882850983E0288006EE2418125E7D1C
:104CD300F08E828F83A3E0F88E828F83E0C3985097
:104CE30003024B63A3E0FA8A08E50A2508F8E50BFB
:104CF3003400F9EE241DF582EF1252E8124D75C30C
:104D03009AC0E0EE241712350BD0E01251E5602B68
:104D1300EE2417F8EF3400F9880889098882F583AF
:104D2300E024F21252C9240EFAA3E03400FB888275
:104D3300898312516C124D53C398F0A90F024A454F
:104D43001213887403223400F50D750E00780C22BB
:104D530090034EE0F9120B1EE9F88508828509835A
:104D6300E022F0850882850983E004F022A3A3A34F
:104D7300A3A3F08E828F83E02274F41203838A0844
:104D83008B09EA124E0AF0EA1313543F124E03A39F
:104D9300A3A3F0EAC41313124E0AA3A3F0EB124D1C
:104DA300FC124E147409780A120AB1124DFA124E0B
:104DB30013740A780A120AB1E50A5401C0E0EC241C
:104DC30018F582ED12350ED0E0124E19740B780AE5
:104DD300120AB1124DFAA3124E13740C780A120A76
:104DE300B1124DFAA3A3A3A3A3A3A3A3F0740D78B5
:104DF30008120AB102313AE50A54018C828D8322EA
:104E0300540F8C828D832254038C828D83A3A3221F
:104E1300A3A3A3A3A3A3F08A0A8B0B22C082C083FC
:104E230079008A828B83A3A3A3A3A3A3E090034D5A
:104E3300600FE070228A828B83A3A3E0701909803C
:104E430016E060138A828B8312553A900356E06A08
:104E53007003A3E06B70E702471674F01203838AB2
:104E63000A8B0B890C8C088D09124FA6124F8A8569
:104E73000882850983124FD4E508125912E50912F5
:104E83004FC9C0E0E5082411F582E50912350ED0BB
:104E9300E0124FC1C0E0123C0C12350ED0E01252AA
:104EA300F074081253096011124F72E508241312AB
:104EB30052E41252F0E02408F0850882850983A3A6
:104EC300A3A3A3A3A3A3A3E06017850882850983F3
:104ED300A3124FB1E50824151252E4124D752408AC
:104EE300F0850882850983A3A3A3A3A3E0601985A2
:104EF3000882850983A3AE82AF83124F9985088206
:104F0300850983124D7004F0AA08AB09120DACE9B0
:104F1300F50D7056850882850983A3A3A3A3A3A3D4
:104F2300124F7D7014E0FA8A0EE50A250EF8E50BA0
:104F33001251D1E50CC39A8021124FB1E8240EF827
:104F4300E91251D190034EE0F9120B1E8E828F832A
:104F5300E0F8E50CC39824F2C399C0E0E5082417F0
:104F6300F582E50912350ED0E0F0A90D025901E5ED
:104F73000A2408F8E50B3400F922124F8122E08558
:104F83000882850983A322850A82850B83A3A31242
:104F93004FEAE0F9EA22E0F8E50A28F582E50B1288
:104FA30051F8228A828B83125906120DA622AE82F1
:104FB300AF83E0F8E50A28F8E50B3400F922124F35
:104FC300FDA3A3A3E022124363E8124FF6A3A3E0D9
:104FD30022A3A3A3A3A3A3A3A3A3124FF6124FEA4F
:104FE300A3A3E0F9EAF822E0FA850A82850B83A3FA
:104FF300A3A322F0A3E9124FFD22F0850A82850BB9
:1050030083A3A3A3A322C082C0837AC57B0379E2CF
:10501300121BE07AC57B03024716C082C08390034C
:1050230056024713C082C08374FE12092D8518826D
:10503300851983AA82AB83794B1250471255437467
:10504300020246EC121BE085188285198322C08276
:10505300C083794A121BE002471674F61203839049
:1050630003CDE0FE04F0EEF9120D5E8B09EA45096B
:1050730070EDEE60EAF902519D74F0120383EAFECB
:10508300EBFF8C088D09890A7410120AFFE0F50BF7
:105093007411120AFFE0F50C120E7EEA4B7013E551
:1050A3000C7042A90AAC08AD09EEFAEFFB120E969A
:1050B300806EE50A6021EA2402F582EB1235DB8576
:1050C3000A082508F8E4340013E813F070098A820B
:1050D3008B83A3A37401F0E50C6045E50B70068A8E
:1050E300828B83E4F07401650C7035E50B9003D477
:1050F3007004E4F0802AE004F0900CE9E0F89003F7
:10510300D4E0C398401AE4F0900359E06E7003A30F
:10511300E06F700CEEFAEFFB7901120C02125126CC
:105123000259017A017B009003B0E0F912151422B1
:10513300C082C08374016A7001EB70077A01125157
:105143005D8012900CE012516CEA4B6005122EB692
:1051530080031251260247167A207B009003B0E0A9
:10516300F91213E8223400F583EAF0A3EBF022C02E
:1051730082C083900CE2023D16C082C083900CE48F
:10518300023D16125C1422EE240CF582EF3400F576
:105193008312470DE849221208B37F0202059DA23C
:1051A300F0E4338518828519831251BE7952121B9C
:1051B300E6221251BE7942121BE622F0AA82AB8389
:1051C30022AA08AB099003B0E0F91213BE223400FF
:1051D300F9E508241DF582E509124363E8F0A3E924
:1051E300F0221259D0A3A3E022A3F0EE241512510A
:1051F300F522F582EF3400F583E0221252022234C5
:1052030000F583E0F8A3E0F98882898322E0F812AD
:10521300521622A3E0F98E828F83A3A322F0EE24F9
:105223001812436022F0EE24161243602274F41223
:105233000383EAFEEBFF7A007B0412512A1252BF6A
:105243001251DF9003657409F0120DB88A088B09B7
:10525300AC08AD09EE241312350B12554312541347
:10526300640170487A0F1252B260418A828B837450
:10527300021252C9FAA3E0FB8A828B83A3E0FC8A61
:10528300828B83A3A3E0FBEC850882850983A3A318
:1052930012516D88828983125547124B3B1251EC90
:1052A300FAA3E0FB794A121BE61251C40235D07B04
:1052B300001213B28A088B09EA45092290033612B9
:1052C300470D900CE422F0EE241DF8EF1252D32286
:1052D30012484EE0221252DC223400F5837401F0AE
:1052E30022F582E509124363E8F0A3E9221252F49E
:1052F300221252F822F0850882850983A3221252D2
:10530300F8A3A3A3A322125301A3A3E02212571AC3
:10531300120E0C22EE2417F582EF1252DC120DB896
:10532300EE241A124360EAF0A3EBF02274F41203A2
:105333008374F312092D8908EAFEEBFF7C0D7D00CF
:105343007900851882851983AA82AB83121394EEA0
:10535300241D12350B125C05A3E0F8741F58600A74
:105363007901121BB6790002540AE8A2E5500874C9
:105373000C120AFF7401F0E8A2E75008740B120A3A
:10538300FF7401F0E8A2E6740A5008120AFF7401E0
:10539300F08008120AFFE064017005EE2413800315
:1053A300EE2415125A427402120AFFAA82AB831228
:1053B3001BCE1235081254181251DF740A120AFF59
:1053C300E064017033122EE9703B120DC48A0A8B1C
:1053D3000BA80AA90BEE240B1235D8687003A3E0BF
:1053E300697022120DB8EAFCEBFD7402120AFFAADF
:1053F30082AB83125413600D851882851983AA82A8
:10540300AB83120BFCA908740D0235CDEEFAEFFB4A
:10541300121BC8E922E012541D22F8A3E0F98518F3
:10542300828519832274F612038374F312092D8A79
:10543300088B09ECFEEDFF7C0D7D00790085188259
:10544300851983AA82AB83125DAAA3A3A3A3A3A3F3
:10545300A3A3A31254B21254BBF8A2E55008740BD1
:10546300120AFF7401F0E8A2E75008740A120AFF57
:105473007401F0E8A2E6EE5004241380022415120E
:105483005A427402120AFF1254A4A3A3E0C0E074A8
:105493000C120AFFD0E0125712120BF6740D0251D0
:1054A3009AAA82AB83121BCE85088285098322E0E8
:1054B30012541DE8F0A3E922F012435D125C09A324
:1054C300E02274F712038374E112092DEAFEEBFF65
:1054D3008E828F83125547A3A3A3E0A2E050518E7F
:1054E300828F831230498A828B83A3A3A3A3A3A3AE
:1054F300E054FE12555F8A828B83125558E0F98A75
:10550300828B83E0241CFAA3E0123F7912554312E5
:105513000DB2E9701B741D120AFF125552701185EA
:105523001882851983AC82AD83EEFAEFFB120DFA74
:105533000257848E828F83A3A3A3A3A3A3A3A3A3AE
:105543001235C62212554B22125C0DA3A3A32212BD
:105553004395640422E0241B124847221246F5AC0B
:1055630082AD8322E9F87900740468600A740A68DA
:10557300600574036870010902084B74F612038313
:105583008A828B837420F0A3A37401F0120BA88A80
:10559300088B09AE08AF09EE4F60108E828F8374BB
:1055A30001F09003A3E07003125317EEFAEFFB022E
:1055B300519DC082C0839003B97401F0E9A2E35006
:1055C300037403F0E9A2E15004E0D2E2F0024716CB
:1055D30074F612038379007C008A088B0978081219
:1055E30005E3F8FF0706560456045604560456FD11
:1055F3005501560656FA550C80097C0480050C802B
:10560300F67C089003B9E05C6003098003EC600159
:105613000902519D74F61203838A828B83E0701210
:10562300A3125194600C8A828B83125542121D0679
:1056330080047A007B0002519D74F512038374F396
:1056430012092D8A088B09ECFEEDFF750A12EA4553
:10565300097005790002570B900356E06508700442
:10566300A3E065097014120DB8EAFCEBFD12540FA8
:105673007005750A018003750A00851882851983F0
:10568300E4F004120AFFE508F0A3E5091257121229
:105693000B6CE960277403120AFFAA82AB83120B17
:1056A3004EE964017016750A017403120AFFAC8295
:1056B300AD8312540F6021750A00801C7412650AB1
:1056C30070169003A2E06402700EEEFCEFFDAA08D0
:1056D300AB09120B84E970DFEEFCEFFDAA08AB09FE
:1056E300120E84E9F8740A687005750A018017744C
:1056F300A0687012EEFCEFFDAA08AB09120E90AA87
:1057030008AB09120EA2A90A740D026112740212E7
:1057130057162212571A221246F5AA82AB83227415
:10572300F7120383EAFEEBFF8E828F83A3A3A3A367
:10573300A3A3A3A3E06015EE241512350B1235B60F
:10574300120E24E964017004790180258E828F830F
:10575300A3A3A3A3A3A3A3E06015EE241312350B05
:10576300125776FAA3E0FB120E24E9640160D9799B
:10577300008013124065A3A3A3A3A3A3A3A3A3E041
:1057830022741F1208B37F0102059D74F012038374
:1057930074FD12092D8A088B09ECFEEDFF890B7449
:1057A30013120AFFE0F50C750A017401120AFF7463
:1057B30004125C3D6048E50C601DEA2417F582EB9A
:1057C300125E80125C2B8A828B83E0D2E7F0EA249C
:1057D30014F582EB12461A125911EB1251FE74039F
:1057E3001261A3EE88828983A3A3F0EF8882898361
:1057F300A3A312410F124116120BA2E9F50AA90A3B
:1058030074030258FE74EC12038374F512092D8A93
:105813000A8B0B890C8C0E8D0F741F120AFFE0F597
:105823000D7420120AFFE0F510A3E0F5117E01EEDE
:10583300120AFF740AF0E97007E50DC333240AF076
:105843001259E370030258E51259F87409F0A3E5FD
:105853000CC43354E0450D125A0AE50C702D7C003C
:105863008023ECC333F8E433F9E51028F8E5113964
:10587300F9888289831258F288828983123828F042
:10588300A30EAF830CECC3950D40D7E5082417F5A1
:1058930082E5091252D8120DB8E508241AF582E5FB
:1058A300091251687403120AFFAC82AD83AA0AABD2
:1058B3000B120B54E96019E5082416F582E5091269
:1058C30058EC120AFFA882A983E50824181251D8BC
:1058D30085088285098312619FAA08AB09120BA26E
:1058E300E9FEEEF9740B0259DB1252DC740322E079
:1058F3008E828F83F0A3AE82AF83221208B37F0818
:1059030002059D1243BDF9EA2400E439FB22EA248F
:105913000BF5822274EE1203838A0C8B0D890E8C95
:10592300088D097412120AFFE0F50F7413120AFFAF
:105933001259C490051D1251946077E50FC333F8D3
:10594300E433F9E8240EFAE93400FB1213B28A10A7
:105953008B11AE10AF11EE4F60588E828F8374D4CB
:10596300F0A3A3E50CF0A3E50D1259CCE50EF0ACC2
:1059730008AD09EE2405FAEF125C46EE240D12354C
:105983000BE50FF0850A08850B09750A00780812E4
:105993000867E50FC333FCE433FDEE240EFAEF1280
:1059A30059BB1208B3EEFAEFFB90051D125C05120A
:1059B3001DA7024A45FAE5093400FB121388740354
:1059C30022E0F50AA3E0F50B221259D0221259D492
:1059D3002212462EA3A3A3221208B37F0C02059D15
:1059E300851882851983AA82AB83120E0C8A088BD1
:1059F30009EA450922EA240BF582EB1251F8FEA3CA
:105A0300E0FF8E828F8322F0A3AE82AF83AC0EAD14
:105A13000FEEFAEFFB125A1C22121BCE125A23224C
:105A2300EE2408FEEF3400FF22E0FA8E828F83A378
:105A3300A3E022FEA3E03400FF8E828F83E02212D4
:105A43004360125A4922E0FCA3E0FD221235C6123C
:105A53000DA02274F6120383EAFEEBFF9003BA80D3
:105A63001388828983E06E7003A3E06F603A8882B3
:105A73008983A3A312519470E87A047B0012144E15
:105A83008A088B09A808A909E849601C88828983C8
:105A9300125AB29003BA12554388828983A3A31280
:105AA300516C9003BA1251DF02519D8A828B83EEAF
:105AB300F0A3EFF02274F41203837E009003BA8004
:105AC300070E88828983A3A312519470F4EEC33323
:105AD300FAE433FB125B60607E7F009003BA80249C
:105AE30088828983125A45EFC333FAE433FBE5080E
:105AF3002AF582E5093BF583ECF0A3EDF00F8882EC
:105B03008983A3A312519470D79003AB122F2370F0
:105B130003A3E0697808701912086BEEF50A780A96
:105B230012086F7C777D0379009003AB125B6B8067
