:020000040000FA
:06000000020A9A0201DE73
:03002B000208D5F3
:030033000206F1D1
:0300430002078A27
:0300530002010F98
:03006B000206D7B3
:100083000201730101FF050301481048104810489D
:1000930010040FFE0E4810D1270000000033280083
:1000A3000000000C0000000C000100002E120000F4
:1000B30000000000E8120000000000000000000043
:1000C30001030206040C0809FFFF536D61727420DB
:1000D300486F6D650001010100050500000056052C
:1000E300E80364006400B801020200000002050294
:1000F30007051E02051E0A03B80B02010234120291
:100103001F00E0079651180002020612C0E074F2C5
:100113001203F7A2AFE433FED2AFE5A7FFE5A1F5E3
:10012300085F5410600612197275A1EFE5085F5459
:1001330008600812197875A1F7802BEFA2E0C0D0F0
:10014300E508A2E092F01209D7158182F0501790CA
:100153006198E0F8900830E0C398A2D265D033509C
:1001630002E8F075A1FEEEA2E092AF7F0102045611
:10017300C0E074F21203F7A2AFE433FED2AF906192
:10018300A4E0F8759B00E59158540860087591F751
:100193001219C0802AE59158541060087591EF1226
:1001A30019C6801BE8A2E0C0D0E591A2E092F0124C
:1001B30009D7158182F05007E0C2E0F0121B0A90C4
:1001C30061A3E0F8E5E9585404600E121AE075E9FA
:1001D300FB906193E0A2E640F2808BC0E074F212E0
:1001E30003F7A2AFE433FED2AF9061A5E0F8E5BF19
:1001F300585404600675BFFB121B22020169C3E455
:1002030098F8E499F91202428026C3E49AFAE49B2F
:10021300FBE920E7E9120242E498F8E499F922C3E2
:10022300E498F8E499F9120242E498F8E499F9C3DE
:10023300E49AFAE49BFB22EB20E7CFE920E7E0B95D
:100243000010BB0008E88AF084F8AAF022E4FBC897
:10025300FA22EB70227B10C833C8C933C933500765
:10026300C39AC3DBF280069A50012ADBEAC833F44F
:10027300C8C933F4C9FA2275F008E4C833C8C933CE
:10028300C933C99AC99B5004C92AC93BD5F0ECFBB1
:10029300C833F4C8E4C9FA22080808EAC0E0EBC08E
:1002A300E086F0E7A4FA180986F0E7A42AFA180909
:1002B30086F0E7A42AFA180986F0E7A42AFA198631
:1002C300F0E7A4FBE5F02AFA190886F0E7A42BFB74
:1002D300E5F03AFA190886F0E7A42BFBE5F03AFAC1
:1002E30018180986F0E7A4C5F02BFBE43AFA1908BD
:1002F300E7C5F0C6A426F6E5F03BFBE43AFA188618
:10030300F0E7A4F6E5F00826F6E43B08F6E43A083D
:10031300F6D0E0FBD0E0FA22E4CFC0E0E4CEC0E0C8
:10032300E4CDC0E0E4CCC0E075F020C3E633F608CA
:10033300E633F608E633F608E633F6181818EC3316
:10034300FCED33FDEE33FEEF33FFC3EC9709ED977E
:1003530009EE9709EF97191919400FFFEC97FC095C
:10036300ED97FD09EE97FE191906D5F0BEECF709D6
:10037300EDF709EEF709EFF7191919D0E0FCD0E012
:10038300FDD0E0FED0E0FF222518C582C0E0E519CC
:1003930034FFC583C0E0E518C3958224F810AF0885
:1003A3008583198582188008858319858218D2AFC1
:1003B300CEF0A3E520F0A37808E608F0A3DEFAEF79
:1003C300F0A3E58124FAF8E608F0A3E608F0A3E633
:1003D30008F0A30808E608F0A3E608F0A3158115C2
:1003E30081D0E0FED0E0F8158115811581E8C0E0E9
:1003F300EEC0E022C0D02518C582C0E0E51934FF65
:10040300C583C0E0E518C3958224F310AF08858344
:10041300198582188008858319858218D2AFC8F0A0
:10042300A3E9F0A3EAF0A3EBF0A37908E709F0A3AB
:10043300D8FAECF0A3EDF0A3EEF0A3EFF0A3D0E035
:10044300F0A3D0E0F0A3D0E0F0A3E520F0A3E5F023
:10045300F0A322851983851882E0C0E0A3E0F9A305
:10046300E0FAA3E0FBA37808E0F608A3DFFAE0FCD8
:10047300A3E0FDA3E0FEA3E0FFA3E0C0E0A3E0C090
:10048300E0A3E0F5D0A3E0F520A3E0A3F5F010AFDF
:10049300088583198582188008858319858218D277
:1004A300AFD082D083D0E0F8D0E032120AFCB9009A
:1004B300030204F0E49003017887790A8002F0A331
:1004C300D8FCD9FA900C87AA82AB83900086788AED
:1004D30079018015E493A3AC82AD838A828B83F088
:1004E300A3AA82AB838C828D83D8E9D9E77582CFA7
:1004F300758394740312084D7582B675831D740059
:1005030012084DE80375F0108E1A8F1B85821F8524
:10051300831E851882851983E0CEA3E0CF851F82D1
:10052300851E83EBC9EAC8EDCBECCAC3E833C8E93F
:1005330033C9EA33CAEB33CBC3EA9EF51DEB9FF510
:100543001CB35004AB1CAA1DEC33CCED33CDD5F05A
:10055300DAAE1AAF1B22D083D082ECC0E0EDC0E04C
:10056300E493A3FCE493A3FDED4C600D120631EC80
:1005730024FFFCED34FFFD80EFE493A3FCE493A39D
:10058300FDED4C600D120735EC24FFFCED34FFFD4F
:1005930080EFD0E0FDD0E0FCE493A3C0E0E493C09F
:1005A300E022851983851882E0A3FEE0A3F5207875
:1005B30008E0A3F608DFFAE0A3FFE0A3C0E0E0A3AE
:1005C300C0E0E0A3C0E0E0A3C0E0E0A3C0E010AF60
:1005D300088582188583198008858218858319D236
:1005E300AFD083D082020853D083D082E9C0E0E445
:1005F30093A3C386F0C5F095F0F908E493A386F0BE
:10060300C5F095F0700BE493A3C3994005E904800A
:1006130002A3E475F002A42582F582E5F03583F5A3
:1006230083D0E0F9E493A3C0E0E493C0E022C0E008
:10063300C3E49396087401939618400FE49366708D
:100643000808740193661870007019A3A3C3E49398
:1006530096087401939618A3A3400DD0E0D0E0D080
:10066300E0020595A3A3A3A3A3A3D0E022D083D044
:1006730082C5F0E493A3C5F0C395F0F5F0E493A32A
:10068300C395F04005E5F0048001E475F002A4256C
:1006930082F582E5F03583F583E493A3C0E0E49328
:1006A300C0E0227404800474028000CCC0E0EDC07A
:1006B300E0E518C39CCCAD1950011D10AF068C1892
:1006C3008D1980068C188D19D2AF1207CFD0E0FD9B
:1006D300D0E0FC22C0E074F21203F7E589A2E150F6
:1006E30003121822758900C2C57F01020456C0E0B7
:1006F30074F21203F7E58BA2E05003121822758BF4
:1007030000C2E880E474028000CCC0E0EDC0E0E504
:1007130018C39CCCAD1950011D10AF068C188D1950
:1007230080068C188D19D2AF1207ADD0E0FDD0E052
:10073300FC22C0E0C0F088F0E493667008087401FE
:100743009366187000A8F0A3A3700BD0F0D0E0D08C
:10075300E0D0E0020595A3A3D0F0D0E022D083D06F
:1007630082CCC0E0E493A3600612082E1470FAE46E
:1007730093A3600612091F1470FAD0E0FCE493A35C
:10078300C0E0E493C0E022C0E074F21203F7A2AF2A
:10079300E433FED2AFC2C0E5D1A2E450031218E89D
:1007A300EEA2E092AF7F01020456CAC0E0E493A335
:1007B300C582CCC582C583CDC583F0A3C582CCC514
:1007C30082C583CDC583DAE5D0E0CA22CAC0E0E0A2
:1007D300A3C582CCC582C583CDC583F0A3C582CC16
:1007E300C582C583CDC583DAE6D0E0CA2270090885
:1007F3000808226016181818C6C333C608C633C6BD
:1008030008C633C608C633C6D5E0EA22C008C3E02B
:1008130096F50808A3E096420808A3E09642080864
:10082300A3E09645087001D3D00822C0E0E493A367
:10083300D39C5010E493A3C39C400AD0E0D0E0D0F3
:10084300E002077DA3A3A3D0E022C09FF59FE4733A
:10085300D09F22D083D082C09FE493C0E0740193E1
:10086300C0E0740293F59F227404800A7403800627
:10087300740280027401C0E0F404120886D0E0120E
:100883000AD7222518F58210AF08F518400215196A
:100893008008F51840021519D2AF85198322BB01D0
:1008A30002E722C082C08389828A83BB0003E0807F
:1008B30002E493D083D08222C0D0251810AF08F56C
:1008C30018500205198008F51850020519D2AFD047
:1008D300D022C0E0C0D0E8C0E0E5A8D2AFC2C7A232
:1008E300E792AFD0E0F8D0D0D0E032601608080825
:1008F300C6C313C618C613C618C613C618C613C66E
:10090300D5E0EA22C3E0C696F608A3E0C696F60849
:10091300A3E0C696F608A3E0C696F622C0E0E493E9
:10092300A36C7009D0E0D0E0D0E002077DA3A3D090
:10093300E022251810AF08F518400215198008F5B4
:100943001840021519D2AF22E76670100809E7664E
:10095300700A0809E76670040809E76622E0667012
:100963001008A3E066700A08A3E066700408A3E019
:100973006622C3E09608A3E09608A3E09608A3E0E6
:1009830096A2D265D03322C3E096F008A3E096F096
:1009930008A3E096F008A3E096F022E026F008A36F
:1009A300E036F008A3E036F008A3E036F022E627AD
:1009B300F60809E637F60809E637F60809E637F6D2
:1009C30022E026F608A3E036F608A3E036F608A3ED
:1009D300E036F622C0E0E8C0E0E58124FCF8E6A2B8
:1009E300E7D0E0F8D0E022E647F60809E647F60844
:1009F30009E647F60809E647F622E657F60809E648
:100A030057F60809E657F60809E657F622E056F6C0
:100A130008A3E056F608A3E056F608A3E056F6222C
:100A2300E056F008A3E056F008A3E056F008A3E070
:100A330056F022700422600D18C6C333C608C633AD
:100A4300C6D5E0F41822E4C396F608E496F608E463
:100A530096F608E496F622600D08C6A2E713C618B8
:100A6300C613C6D5E0F322C6F4C608C6F4C608C644
:100A7300F4C608C6F4C622C3E7960809E796080930
:100A8300E7960809E79622C3E09608A3E09608A331
:100A9300E09608A3E0962275D00075814075180191
:100AA300751903000204AEE0F608A3E0F608A3E01C
:100AB300F608A3E0F622600C08C6C313C618C613D3
:100AC300C6D5E0F422E6F008A3E6F008A3E6F008B2
:100AD300A3E6F022CAC0E0E6F0A308DAFAD0E0FA0F
:100AE30022E0FAA3E0FBA3E0FCA3E0FD22EAF0A3EB
:100AF300EBF0A3ECF0A3EDF022E5C754F84401F5C5
:100B0300C77901222518F582E43519F58322C2AF8E
:100B130075D69F02000022120856DCAF0112085658
:100B230014B10112085632B101120856AED901129E
:100B33000856C0D90112085612DA0112085673DAA0
:100B430001120856FDDA01120856A1DB01120856FC
:100B5300F5DB011208560EDC0112085634DC0112D3
:100B630008566FDC01120856B3DC01120856DADCB2
:100B7300011208562BDD01120856DBDD011208565F
:100B830093DE011208565BDF0112085638E00112AA
:100B93000856BEE001120856CDE001120856D8E00F
:100BA30001120856E1E101120856F2E1011208565A
:100BB30068E201120856FAE20112085652E30112E2
:100BC300085618E40112085649E4011208568EE447
:100BD300011208569BE4011208562FE6011208562B
:100BE30092E701120856AEE80112085618EB0112FB
:100BF300085623EB011208562DEB0112085638EB69
:100C03000112085642EB011208564CEB011208562A
:100C130057EB0112085662EB0112085693EB0112CF
:100C23000856B7EB01120856DBEB0112085640ECED
:100C33000112085684EC01120856A0EC0112085662
:100C430017ED011208564FED011208569BED0112E4
:100C53000856F8ED01120856DAEF0112085660F053
:100C63000112085631F10112085641F401120856D7
:100C730096F401120856C2F4011208560EF6011238
:100C830008565EF601120856B3F601120856B4F779
:100C9300011208564CF801120856CEF801120856F4
:100CA3006EF901120856072B00120856402B00124A
:100CB30008561A2D00120856592D00120856A32D56
:100CC30000120856482E00120856A72E0012085686
:100CD300DB2E00120856482F00120856653000120A
:100CE30008566D31001208560332001208564A3571
:100CF30000120856F33500120856CF360012085674
:100D03003037001208564D3800120856773A001251
:100D130008562E3B00120856383B001208566B3B10
:100D230000120856323C00120856CD3C00120856F9
:100D3300323D001208565B3D001208567D3D0012FD
:100D43000856AC3F00120856834000120856C740AD
:100D530000120856344100120856EF41001208569B
:100D630021420012085665420012085698420012AA
:100D73000856ED4200120856424300120856D64365
:100D830000120856384400120856A04400120856B0
:100D9300494600120856314700120856734800129C
:100DA3000856A14A00120856614B00120856904D8E
:100DB30000120856334E00120856714E00120856A0
:100DC3001D50001208563150001208563B500012B5
:100DD300085665500012085671500012085690507C
:100DE3000012085647510012085686510012085641
:100DF30090510012085644520012085643530012F1
:100E030008563C5400120856D954001208567B5514
:100E130000120856925500120856C955001208567A
:100E2300E755001208562B5600120856505600126A
:100E33000856365700120856A257001208561C5877
:100E4300001208562B59001208566A5A0012085607
:100E5300CC5A00120856865B00120856A95B001292
:100E630008567D5C00120856C85C001208560A5DDD
:100E730000120856615D00120856985D001208566C
:100E8300C65D00120856FF5D00120856245E00126C
:100E93000856AC5E00120856CF60001208562E6149
:100EA30000120856C261001208562E62001208563C
:100EB30082620012085635B80312085674B803123A
:100EC300085677B201120856D1B2011208562DB353
:100ED3000112085679B30112085694B30112085649
:100EE300C5B301120856E2B301120856EEB301125C
:100EF300085662B5011208567BB501120856E2B5D1
:100F030001120856F5B50112085603B60112085628
:100F1300B7B6011208569BB701120856A1B80112C1
:100F2300085627B90112085631B9011208569EB95D
:100F330001120856B5B901120856E7B9011208564D
:100F430020BA011208564ABA01120856ABBA011266
:100F53000856CBBA01120856E9BA011208562FBB3C
:100F63000112085655BC01120856A2BC01120856BC
:100F7300D1BC0112085647BD011208566FBD0112BC
:100F83000856A8BD01120856B6BD011208560EBE7A
:100F9300011208565DBE011208569CBE0112085686
:100FA300CCBE01120856F8BE0112085603BF011247
:100FB300085621BF01120856E3BF01120856EDBFC0
:100FC3000112085628C0011208563EC001120856E5
:100FD30047C0011208569CC001120856B0C0011246
:100FE3000856BEC101120856D1C101120856E6C106
:100FF3000112085688C2011208560BC30112085683
:10100300C9C301120856D4C301120856FAC4011207
:10101300085616C50112085668C501120856A7C519
:1010230001120856BCC501120856FEC50112085626
:101033004BC801120856C9C8011208563CC901120F
:1010430008565ECB0112085676CB0112085679CBAF
:101053000112085685CB0112085699CB0112085686
:10106300A1CB01120856D4CB0112085684CC01122D
:101073000856FACC011208566DCD0112085621CE3E
:1010830001120856D6CE01120856F5CE01120856A3
:1010930095CF01120856A1CF01120856CCCF0112E9
:1010A3000856CFCF0112085639D00112085661D124
:1010B3000112085639D201120856C4D20112085639
:1010C300DDD3011208569AD401120856D3D4011263
:1010D300085604D501120856A4D501120856D4D5D2
:1010E30001120856AFD60112085648D70112085606
:1010F300D3D70112085684D80112085606D9011213
:10110300085638D90112085679D90112085671D2F6
:1011130002120856D6D20212085613D302120856E8
:1011230062D30212085678D5021208565BD7021210
:101133000856C5DA0212085600DB0212085622DBF3
:101143000212085685DB02120856B9DB0212085652
:10115300DCDB0212085609DC0212085665DC0212B7
:101163000856FEB80312085607B9031208565BBCAB
:1011730002120856D9BC021208560FBD02120856B5
:101183007BBD02120856EEBE021208560ABF0212B7
:1011930008564FBF02120856DDBF0212085636C06A
:1011A3000212085663C10212085675C2021208568B
:1011B300D2C2021208563EC3021208569FC302123D
:1011C3000856E0C3021208568DC4021208569FC582
:1011D30002120856CAC50212085615C6021208564C
:1011E3005CC602120856EEC602120856A9C70212BE
:1011F3000856D5B903120856E7B903120856BCAC12
:1012030003120856CDAC031208561EAD031208563E
:1012130063AD031208560DAE0312085607B403124A
:10122300085688A903120856E0AA0312085620C8D4
:1012330002120856C5C802120856E5C8021208561B
:1012430005C90212085619C90212085671C90212B9
:101253000856A1C90212085622CB02120856C8CB5F
:1012630002120856AACC02120856FBCC02120856E8
:101273003ECD0212085681CD02120856E7CD021266
:10128300085608CE0212085694CE02120856C5CE4E
:101293000212085639CF02120856E7D00212085636
:1012A300C1D10212085603D2021208565DD20212AD
:1012B3000856FFA50312085620A60312085656A780
:1012C3000312085680A7031208560D9203120856FC
:1012D300889203120856939203120856B49203128B
:1012E30008561EB00212085621B002120856DBB08F
:1012F3000212085606B1021208564DB102120856E0
:1013030072B10212085693B102120856C7B1021203
:10131300085600B20212085629B30212085660B3E7
:101323000212085680B3021208561BB40212085662
:10133300E0B40212085617B5021208568CB6021210
:1013430008562FB70212085628B80212085651B889
:1013530002120856A5B8021208566BB902120856B3
:1013630099B9021208562EBB02120856AFBB0212DD
:101373000856E2BB02120856C5B503120856D6B585
:101383000312085603B603120856B1DC02120856BC
:10139300BBDC0212085607DD0212085675DD021285
:1013A300085696DD02120856ADDD021208565DDEC0
:1013B300021208566AA301120856FAE002120856EE
:1013C3004DE10212085676E102120856DDE10212DF
:1013D30008566EE202120856B0E202120856FAE20A
:1013E3000212085659E302120856EAE3021208569B
:1013F30029E40212085668E4021208569DE4021218
:101403000856AFE402120856C1E40212085639AF77
:1014130001120856E9E4021208569FE50212085623
:10142300DFE502120856008003120856D380031228
:101433000856ED8003120856FE80031208561383E4
:1014430003120856328303120856CDA3031208561B
:1014530003A4031208564CA4031208569CA50312B6
:101463000856BC6200120856FB6300120856376424
:1014730000120856F665001208561F660012085639
:10148300B26800120856F668001208567F6A001206
:101493000856176B001208567F6B00120856206C13
:1014A30000120856626C00120856A26C001208560D
:1014B3002D6E001208569D6F00120856C27100125D
:1014C3000856F0710012085617720012085620725F
:1014D300001208567B72001208560E73001208564B
:1014E3002C7600120856AD7600120856EDB9031299
:1014F3000856EAB703120856958B03120856A88BB1
:1015030003120856458C03120856808C03120856A2
:101513009B8C03120856C08C03120856058D0312C8
:101523000856368D03120856678D03120856ED8E42
:101533000312085685AF03120856BBAF03120856B1
:10154300D7AF0312085619B00312085629B0031275
:101553000856BEB003120856C8B00312085616BA8E
:10156300031208561FBA0312085624BA0312085668
:1015730069FD02120856DAFD021208565AFE0212DB
:1015830008568FA002120856E7A00212085691A12E
:101593000212085639A20212085696A202120856DF
:1015A300EFA20212085603A302120856CDA4021298
:1015B300085648A50212085672A5021208562FA70C
:1015C300021208564AA70212085699A70212085691
:1015D300AFA702120856BCA702120856F0A70212C0
:1015E300085606A8021208568CA8021208569BA891
:1015F30002120856F4A8021208564EA902120856FF
:101603009CA902120856A6AA0212085628AD021275
:101613000856C2AD0212085604AE0212085699AE1D
:1016230002120856B6AE02120856B9AE0212085696
:10163300BCAE021208562FAF021208564AAF02126E
:10164300085676AF02120856B1AF02120856B4AF6D
:1016530002120856C7AF02120856EEAF021208561E
:1016630016B70312085622B7031208565CB70312C3
:101673000856BE9002120856E99002120856B59118
:10168300021208563A9202120856A3920212085600
:10169300EF92021208566E93021208560094021239
:1016A30008568C9402120856CE94021208563A99A0
:1016B30002120856BA9A02120856F99A02120856EA
:1016C300C29B02120856769C02120856269E0212EC
:1016D3000856B29E02120856008002120856BA80BB
:1016E300021208562C81021208563B810212085638
:1016F300B581021208562482021208562E83021262
:101703000856578302120856F78302120856458477
:1017130002120856B58402120856E98502120856C9
:10172300C58602120856368702120856B38802127B
:101733000856758902120856108A021208566B8AD7
:1017430002120856D68A02120856DA8B021208567B
:101753009B8D021208563A8E02120856AC8E021264
:101763000856698F02120856839703120856D797B3
:10177300031208562F98031208567A980312085634
:10178300DC9803120856759903120856DD99031263
:101793000856E9990312085677A103120856A8A11F
:1017A3000312085662A203120856C8A2031208566F
:1017B30039A303120856EA9503120856FAB4031222
:1017C30008560BB503120856ABB503120856D0A73B
:1017D30003120856DEA70312085603BA031208566B
:1017E30080B60312085690B603120856ABB603121E
:1017F30008560CB70312085605B3031208568AB3EA
:1018030003120856EEB303120856F3B10312085637
:1018130015B2031208567FB2031208568AB2031296
:101823000856CEB2031208560A77001208561877E4
:10183300001208565977001208567A770012085694
:101843000478001208562678001208568978001288
:101853000856A47800120856BF7800120856C978B3
:1018630000120856D37800120856E678001208567C
:10187300FF78001208569B7900120856577A001217
:101883000856DA7A00120856547B00120856A07BD9
:1018930000120856477C00120856237D0012085692
:1018A3008B84031208569984031208561385031276
:1018B3000856F78503120856B0870312085695B9E0
:1018C3000312085621FA011208568EFA011208561D
:1018D3004FFB01120856BFFB01120856C8FC011248
:1018E300085640FE01120856A4FE01120856F9FEDE
:1018F3000112085602FF0112085611FF0112085681
:1019030024FF011208563AFF0112085643FF011241
:10191300085644EF0212085699EF0212085695F141
:1019230002120856C7F102120856E9F102120856CC
:1019330002F2021208561BF20212085625F3021293
:101943000856C0F30212085624AE0312085648AED6
:101953000312085661AE0312085694AE03120856DA
:10196300C5AE03120856F3AE0312085655AF031261
:10197300085664AF031208566EAF031208567BAFC6
:1019830003120856249A031208564A9A0312085659
:10199300879A03120856969A03120856B59A0312A9
:1019A30008561D9B03120856269B03120856859B57
:1019B30003120856A99B03120856689C0312085683
:1019C300759C03120856869C03120856C2B803126C
:1019D3000856DFB80312085637F40212085695F575
:1019E30002120856A2F502120856B5F5021208565D
:1019F300D4F502120856EAF502120856FEF5021251
:101A0300085673F602120856D8F60212085688F7DB
:101A1300021208565DF8021208566DF802120856B3
:101A23007CF8021208565DFF0112085681FF01126D
:101A33000856A9FF01120856D1FF01120856B49C9B
:101A430003120856DB9C03120856FC9C031208562B
:101A5300619D031208561A9F03120856339F0312FF
:101A630008563F9F03120856539F03120856719F4F
:101A7300031208567B9F03120856859F03120856CC
:101A8300989F03120856EB9F0312085624A00312D3
:101A9300085653A003120856A1A003120856F0A03B
:101AA300031208560BA10312085615A10312085678
:101AB30026A1031208566CA10312085699B7031204
:101AC300085608E60212085632E6021208564EE697
:101AD3000212085661E60212085677E60212085609
:101AE300D4E60212085607E70212085643EB021225
:101AF300085669EC021208569CEC02120856E8ECF0
:101B03000212085614EE021208563CEE0212085650
:101B130051EE0212085661EE02120856A5EE0212A9
:101B2300085606EF0212085616EF02120856CD7E2B
:101B330000120856E87E00120856117F001208565C
:101B43002B7F00120856507F001208566F7F001239
:101B53000856877F00120856B57F00120856CF7FBC
:101B6300001208567EB80312085615880312085649
:101B73001C88031208562889031208565889031231
:101B830008567E8903120856A18903120856C38991
:101B930003120856FD8903120856638A0312085676
:101BA3009C8A03120856E88A03120856158B0312FF
:101BB3000856358B031208562FAB0312085641AB58
:101BC300031208562CAC03120856B9AC031208567C
:101BD300E0B00312085652B10312085690B1031233
:101BE3000856D1B103120856FA8E03120856168FFF
:101BF30003120856658F03120856818F0312085685
:101C0300B28F03120856C28F03120856AE90031206
:101C13000856B89003120856C59003120856D5917A
:101C230003120856E99103120856F291031208565B
:101C3300B5F802120856FAFC02120856FFFC02120B
:101C43000856D2FF0212085637B9031208566DB967
:101C530003120856B7B903120856BEA2011208565A
:101C63000FA101120856CA9E01120856519E011275
:101C73000856F89D011208568C9D01120856639D63
:101C830001120856569B01120856229B0112085650
:101C9300EF9A01120856D39A01120856F9990112C4
:101CA3000856B19901120856E6970112085666972D
:101CB300011208566397011208566E9601120856D0
:101CC3003C9601120856799501120856A493011205
:101CD3000856359301120856079301120856E6ADCC
:101CE3000112085697AB0112085628AB0112085689
:101CF300E0AA0112085643AA0112085604930112DE
:101D03000856F192011208568992011208567892E8
:101D13000112085636AA01120856599101120856A3
:101D2300239101120856E69001120856879001127A
:101D3300085644A701120856E0E4021208565690CA
:101D430001120856118D01120856028C0112085611
:101D5300918B01120856568B01120856218B0112E2
:101D63000856158B01120856758A01120856BC894C
:101D7300011208568F87011208561B850112085657
:101D8300D98401120856A4830112085659830112FB
:101D930008568B8201120856E281011208567E8191
:101DA30001120856B8810112085696A4011208566A
:101DB300F1E00200000080FBE4730000000000007B
:101DC30000000000000000000000101010101010B0
:101DD3000000303000000014285000000000000014
:101DE300000000000000002828FC284850FC505048
:101DF30000000000103854543018145454381000A4
:101E030000000044A8A8B0541A2A2A440000000085
:101E13000020505060ACA898927C000000606020C5
:101E2300C0000000000000000000000408081010BB
:101E330010101010080804000000402010080408C7
:101E43001020400000000000001010D63838D610D3
:101E530010000000000000101010FE101010000011
:101E6300000000000000000000000000606020C0CF
:101E7300000000000000FC00000000000000000063
:101E83000000000000000000606000000002040485
:101E9300040808101020202040000000003048846F
:101EA30084848484483000000000001070101010F7
:101EB3001010107C00000000003844440408102077
:101EC300447C0000000000384444180404444438AF
:101ED30000000000080818284848887C081C0000F7
:101EE3000000007C40407844044444380000000073
:101EF300003C4480B8C48484847800000000007CE3
:101F0300444808101010101000000000007884846A
:101F13004878848484780000000000788484848C6A
:101F2300740488F00000000000000030300000005E
:101F3300303000000000000000001000000000101E
:101F430010200000040810204020100804000000A6
:101F53000000000000FC0000FC0000000000000086
:101F6300402010080408102040000000000078847E
:101F73008484081010003030000000000038449AB8
:101F8300AAAAAAB4423C0000000000101028282886
:101F9300384444EE0000000000F8444478444444CC
:101FA30044F800000000003C448480808080443872
:101FB3000000000000F048444444444448F000005A
:101FC300000000FC44404878484044FC0000000006
:101FD30000FC42404878484040E000000000003CDC
:101FE300448480808E8444380000000000EE444422
:101FF300447C444444EE00000000007C10101010A8
:102003001010107C00000000007C10101010101045
:10201300101090E0000000EE44485070484844EE31
:102023000000000000E040404040404044FC00000D
:10203300000000EE6C6C6C54545454D60000000045
:1020430000EE64645454544C4CE40000000000302F
:1020530048848484848448300000000000F84444A9
:102063004478404040E0000000000030488484840D
:1020730084B448380C00000000F8444478504848C1
:1020830044E600000000003C444020180404447867
:102093000000000000FE9210101010101038000015
:1020A300000000EE4444444444444438000000002B
:1020B30000EE44442828282810100000000000D611
:1020C300545454546C2828280000000000EE44287F
:1020D3002810282844EE0000000000EE44282810B1
:1020E3001010103800000000007C880810202040E9
:1020F30044FC0000001C10101010101010101010E1
:102103001C00007010101010101010101010700030
:10211300007010101010101010101010700000102C
:102123002800000000000000000000000000000084
:10213300000000000000000000FE00606020C000FE
:102143000000000000000000000000000000384410
:102153001C24443E0000000000C040407844444436
:10216300447800000000000000003C444040443834
:1021730000000000000C04043C444444443E0000BE
:1021830000000000000038447C4044380000000098
:10219300001C2420F82020202078000000000000EC
:1021A30000003C48483040784438000000C04040BC
:1021B3005864444444EE0000000000100000701016
:1021C3001010107C00000000000800003808080808
:1021D30008080870000000C040405C48507048EC9C
:1021E300000000000070101010101010107C000090
:1021F300000000000000F854545454D600000000BE
:1022030000000000D864444444EE000000000000D5
:10221300000038444444443800000000000000003B
:10222300F8444444447840E00000000000003C448B
:102233004444443C040E000000000000EC30202025
:1022430020F800000000000000003C4430084478FF
:1022530000000000000010107C101010100C000093
:10226300000000000000CC444444443E0000000051
:1022730000000000EE4428282810000000000000A1
:102283000000D65454542828000000000000000029
:10229300DC48303048EC0000000000000000EE4451
:1022A3002828101020E00000000000007C481010D7
:1022B300247C0000101010101010101010101010BB
:1022C300101007E04420242007E08420442007E086
:1022D30020002FF04A504A508A508A501FF80000BD
:1022E3004FF0281008108FF0481008102FF02240EC
:1022F30052484A50866082401FF8020001003FF8AE
:1023030024203FF8242027E020002FF0242022401F
:1023130041804660981802004210222012400200B9
:10232300FFF80880088008800880108010882088C3
:1023330040787BF04910491049107A6048004BF00F
:102343004A104A107BF00000491044888488080032
:1023530010007FF040104010401040107FF04010FC
:102363004010401040107FF0401000007FF002004A
:10237300020002000200FFF80200050005000880C9
:1023830010402020C01800007FF0421052504A90A5
:102393007FF002007FF00200FFF80000491044883C
:1023A300848804000200FFF81100110021F022903C
:1023B3006450AA2021402080214022202C18200094
:1023C30020004BF04880F080108020804080F8800F
:1023D300008000801880E08007F820802080208023
:1023E3003C8044C044A0A4901888088810801080C2
:1023F30020804080808004000400FFF808001FE074
:10240300302050209FE0102010201FE010201020CB
:1024130010E000007FF00200020002000200FFF85B
:1024230005000500090011002108410880F8020099
:102433000200020002000200020005000500050080
:102443000880088010402020C01840007DF09110C3
:102453001110FF10291045F080003FE020203FE0DD
:1024630020203FE020201080209844E0FE8802884E
:1024730000787C0044887C9044E07C8044884488D5
:102483004C780200FFF8800800007FF00C00122057
:10249300654009803340C5401920E11806007FF0EC
:1024A300401040107FF0410041007FF8410041009F
:1024B3005FF0501050105FF09010100013F81020D0
:1024C3005420542058209020102010201020282021
:1024D3002420442080E00200421022201240020007
:1024E300FFF8088008800880088010801088208802
:1024F300407804000200FFF88888904820200000FC
:102503003FE002000200020002000200FFF8400068
:1025130027F824880488E5E8248827F8240825E890
:102523002D28352825E80408083802000200020097
:1025330022102210222045408500050008800880D3
:1025430010402020C018210021002BF0B410A82037
:10255300A100A6382408240827385408540847F84B
:10256300840804000200FFF880088008020012209B
:10257300122022404200050008803060C018244029
:102583007EF825107E90AA603A980600FFF80000B6
:102593003FE000003FE020203FE0200023F0221036
:1025A300FA10227022002BF03290E29022A02240F7
:1025B30022A02310E2087FF010401040104010408A
:1025C3001040FFF810401040104020402040404091
:1025D30080401040084008807FF0020002000200A3
:1025E300FFF805000500088010402020C0180810DF
:1025F30048107F5088500850FF50085008507F50B3
:102603004950491049104B10087000804080214008
:10261300222005100888000017F010102020224007
:10262300418040800040108010807BE010A018A003
:1026330072A0112811A81298740800004910448848
:10264300848801000100F90023F0211021102110DA
:10265300211021103910C210021004100860040068
:1026630002007FF0020084884F10222044908FC81C
:102673000240FFF8020002000200040004007FF0A1
:102683000800120022003FE0020002002240222044
:10269300421082100E000880088008800888F89095
:1026A30008A008C00880088018802880C888088887
:1026B30008780200020002000200FFF80200050091
:1026C300050005000880088010402020C018242041
:1026D30012400080FFF8800880083FC0008003009C
:1026E300FFF80200020002000E00000000000000DC
:1026F300000000000000180018000000000018008F
:102703001800000000006000900097E868181008A7
:10271300100810001000100010001008081007E047
:1027230000001800240824102420244024801900C9
:102733000260049008901090209040900060000187
:102743003636010100010201000103010001040109
:10275300060605020000070100340801000F090402
:1027630001010D0100FF0E0800001702000019010E
:1027730000FF1A0100011B0100FE1C0100081D02DD
:1027830000001F01000120010001210200002301BC
:10279300000F24020000260100012701000828027F
:1027A30000FF2A0100072B0102402C0100002D012C
:1027B30000012E0100012F0100FF30010B1C310825
:1027C30000003A0100083B01000F2F010000030045
:1027D30071003001600011007000310220035004C9
:1027E3008000100061000000140063007300720099
:1027F3006200430000001300060000000000040014
:102803001200000000000000000004000400370074
:1028130037003C0244000000000000000000650097
:102823000000350081000000050000008300000067
:1028330001037103010301030103010301032203E4
:10284300020301031003000300030003000300035A
:1028530000030003420300032403060300030003F1
:10286300040312032503230325032303040304039F
:1028730000030003000344030003000323030003D6
:1028830065032100350381030003050300030003EF
:10289300000303027102300160021102700201029F
:1028A300020202028002100261023A004100630246
:1028B3007302720262024302000213023800000232
:1028C30000020402120200020002000200020402DB
:1028D3000402370037003C024402000239000002C0
:1028E3000002650200023502810200020502820233
:1028F30083020002010171010101010111010101C2
:102903003101010101018001100161013B0014004B
:1029130063017301720162014301000113010601A6
:102923003D01350004011201000100010001000115
:1029330004010401330133013C0144013201360037
:10294300000100016501000135008101000105015D
:10295300820183010001CEC2CAAAB6C8B9E2D5D5A5
:10296300B0D7CCECBADAD2B9BAECCDE2D3D0CEDE62
:10297300C8CBD6C7C4DCBCD2BED3B5C6B9E2BFD5BB
:10298300B5F7BBF0D1E6D4D6BEAFB1A8BFAAB9D8CC
:10299300D6C6C0E4C8C8B9A6C2CAB6ABB1B1B4F30F
:1029A300D1A7A3BAA1E6A3A5003600010006000043
:1029B300000F000000000000000000000000000302
:1029C300FFFF00000403FFFF0000FFFF0FF40100FF
:1029D30005C4040320000100030B000000000000F5
:1029E300000003010F0100141702008A1603009070
:1029F300160400961605009C160600A8161100C0C2
:102A0300161400C6161500BA16FFFF00005E0F8EDF
:102A13000F640F6A0F880F7C0F760F940F9A0FA025
:102A23000FAC0F700F580F520F03EAF5E5D5D5C55C
:102A3300B5A59595858575756565555545453535B3
:102A430025251515050A2A0D02F40C05060D07FAAE
:102A53000C0CD60C0DE80CFF000000160F00000B49
:102A6300150B020002220F3200000648105A1060B4
:102A730010280F6610220F2E0FA810C610CC10AE10
:102A830010BA10B4100C0E020B040B0A0708000F47
:102A9300000119161816161523030000383C3E369C
:102AA3003B3B352B432C00034948424D1817250562
:102AB30002303016181920231A1C1E303030171814
:102AC3001921301B1D1F309C106C1072107E107862
:102AD30010820FA60FC010B20FB80F02040201013B
:102AE3000101090200000000000000BE040A040006
:102AF30015000E002800080C0C0A030908FF1E1E0F
:102B03000F04040574F712038BE99003B0F09003EC
:102B130065E4F0121BB89003B5E4F0A3F09003B1A1
:102B2300F0A3F0120E62121BBE900334E4F0A3F084
:102B3300902B0393FA7902121C1E02579D74F21212
:102B4300038BEAFEEBFF548060699003B0E0F91257
:102B530013CC8A088B09EA4509604F7C0080010C7D
:102B6300EC75F003A4F8A9F0744828F582742A39A7
:102B7300F583E493F4602CE493F88508828B83E077
:102B83006870DCAA08EC75F003A4F8744928F58290
:102B9300742A39F583E493C0E0740193F583D082FA
:102BA300121DBBAA08AB091213C0EEFAEF6480FB37
:102BB300022D0DEF5420601D120D848A088B09EA43
:102BC3004509600A120CE8AA08AB091213C0EEFA11
:102BD300EF642080DAEEA2E0501A90036AE0640FFB
:102BE300700B7900120CB2E96003122D10EE640130
:102BF300FAEF80BB54207003022CDB750C001241EA
:102C0300E28B09EA450970107C027D007A207B0083
:102C13009003B0E0F91215167C0079047A007B006A
:102C2300120D608A088B098018850882850983A3A1
:102C3300A3A3A3A3A3A3A3A37401F0850A08850BED
:102C430009E5084509606D7C007904AA08AB0912FF
:102C53000D608A0A8B0B750C01E5082404F8E5095D
:102C6300123F8624FFF0A3E034FF12627970CC8513
:102C73000882850983A3A3A3A3A3A3A3A3A3A3E078
:102C8300640170A5850882850983A3A3A3A3A3A3D5
:102C9300E054047094850882850983A3A3A3A3A3A6
:102CA300A3A3A3A37406F07AB785088285098312C8
:102CB3002E3C8087120D307C0079017A007B001254
:102CC3000D608B09EA45097009E50C70057A20123D
:102CD300513CEE6420022BF3EF5402600B120E5CA6
:102CE300EEFAEF6402022BB2EF540460191252D3CE
:102CF3001251F37901900363125557120BF8EEFA50
:102D0300EF6404022BB27A007B00022F43900CE4A1
:102D13001235DA120CCA22C082C08374EA12093552
:102D2300851882851983AA82AB83794B121BF474AD
:102D330008120B077402F07409120B07AA82AB8303
:102D43007950121BF47413120B07E4125726121C4A
:102D530012741602470074F712038B74E1120935DB
:102D6300EAFEEBFFEE4F6033851882851983AC8250
:102D7300AD83120DA87406120B07E0601E741712C0
:102D83000B07E0FD7401120B07E0FCEEFAEFFB7991
:102D930000120B20E9600479A4800279000257989D
:102DA30074F612038BEAFEEBFF8E828F83A3A3A339
:102DB300A3A3A3E05440601B125C15122F0A600604
:102DC3007AFF7BFF801A8E828F8312438CFAA3E0F3
:102DD300FB8003120DCC74FE6A700374FF6B6041B9
:102DE300125C15125180120E20E98E828F836006C9
:102DF300122E35E48005122E357401F07CB87D0C5B
:102E03008E828F83125557121C18E9F5087015EE40
:102E13004F60097901EEFAEFFB120D3CA90802514C
:102E2300B17508CDAA088E828F83122E3CE960DF2C
:102E330080EAE0240D12485B22E0240C12485BE098
:102E4300F9120CC42274F612038BE9FEEAFF7A0F1F
:102E53007B001213BAEA4B60198A828B83740CF0DD
:102E6300EEA3A3F0EF8A828B83A3F01251DC7900E7
:102E7300802FEEF9120D668A088B09A808A909E8C4
:102E830049601C88828983A3A3A3A3A3A3A3A3A3A9
:102E93007406125EA0E0F9120C7CEEF9120D427971
:102EA300100251B1C082C08390036AE0640F7014B2
:102EB300EA4B6010900365E064086005E064047009
:102EC30003122ECA02472AEAFCEBFD7A017B00902B
:102ED30003B0E0F912151022C082C0837900EA24FE
:102EE3001DF582EB12438924FD600B14600824FD59
:102EF300600424FD70010902472A8E828F83A3A3F5
:102F0300A3A3A3A3A3A3A3122F0E221243D1FB12A5
:102F13000E20E9228E828F83A3A3A3A3A3A3A3A33B
:102F2300A3122F0E6402228E828F83A3A3A3A3A3D3
:102F3300A3A3A3A3124721900356E068221208BB60
:102F43007F060205A574F412038B74FD1209358AFA
:102F5300088B098A828B83A3A3E0F9120D668A0A80
:102F63008B0BAE0AAF0BEE4F700302304F85088216
:102F7300850983A3E064F16030850882850983A312
:102F8300E064CD6024850882850983A3E0641A6028
:102F930018850882850983A3E064E9600C850882AB
:102FA300850983A3E064E170087900120D3CE970A0
:102FB3006C850882850983A3E0C0E07402120B07C5
:102FC300D0E0124705EEF0A3EF123A308518828560
:102FD3001983AA82AB837005120BE08003120E08DB
:102FE3007402120B07E064E970338E828F83123010
:102FF3005B750A01780A120877750AE9780A1208DC
:1030030077E508240CF582E509123522123A0DFC06
:10301300A3E0FD8A828B83123A271208BB8E828F2C
:1030230083A3A3A3A3A3A3A3A3A3E0640270108E0B
:10303300828F83A3A3A3A3A3A3A3A3A37406F0854F
:103043000882850983A3A3E0F9120D42120D309083
:103053000CE8122D130235DFE0F8A3E0F9E8FAE9F2
:10306300FB2274F412038BEAFEEBFF7508008E82D9
:103073008F83A3A3A3A3A3E060427508088E828F66
:1030830083A3A3A3A3A3A3A3A31246348B0BEA4551
:103093000B601075082C8E828F83A3A3A3A3A3E0D8
:1030A300D2E0F08E828F83A3A3A3A3A3E05403648F
:1030B30001600302314E43081102314EEE2418120F
:1030C30035EC6033EE241A1235EC700F122F2A7090
:1030D30003A3E06970757508228070EE241BF582E6
:1030E300EF123153241AF582EF123A38EE241912F3
:1030F3005C49120C6A8054122F1770037508011271
:103103002F2A7003A3E0697006E508D2E1F508E50C
:103113000860158E828F83A3A3E07006E508D2E5CD
:103123008004E508D2E6F508122EFD64017006E579
:1031330008D2E0F5088E828F83A3A3E0600D1231DD
:103143006164016006E508C2E0F508A9080235E4F8
:1031530012437712315A22E0FCA3E0FDEE22124320
:10316300711243A9F9120E0EE922C082C0837901BC
:103173008A828B83A3A3E0C394024001198A828BC2
:1031830083A3A3A3A3E0C39402400279008A828BA2
:1031930083A3A3A3A3A3A3A3A3A3E064F87003A39C
:1031A300E0F460458A828B83A3A3A3A3A3A3A3A371
:1031B300A3E064F97003A3E0F4602E8A828B83A3F7
:1031C300A3A3A3A3A3A3A3A3E064FA7003A3E0F4BC
:1031D30060178A828B83A3A3A3A3A3A3A3A3A3E0C0
:1031E30064FB7003A3E0F4700279008A828B83A3EB
:1031F300A3A3E0F8900353E0686002790002472A32
:1032030074F012038B74DE120935EAFEEBFF8E8233
:103213008F83A3A3A3A3E0600E900CE61251A860D2
:1032230006900CE6122D137403120B07AC82AD83C8
:103233008E828F83A3A3A312522A125A63E9600FCB
:103243007403120B07AA82AB83120CE2E9700879AC
:1032530001121BCA023517EE241B12437C74101291
:103263000B071251F37409120B07E06021741A1251
:103273000B07E0FD7404120B07E0FC8E828F8312B0
:1032830055557901120B20E96004790280C3740358
:10329300120B07AA82AB83120CDCE9F50A7409123C
:1032A3000B07E0702A90034DE060247422550A64F2
:1032B30022601C7442550A644270CF7420120B07BB
:1032C300123535600A7420120B0712352E70BBE9D4
:1032D300A2E650417403120B07AA82AB83120CD0EF
:1032E300E970030232527420120B0712438C6403F9
:1032F300700F7420120B07A312519AA3E0640D60A0
:10330300147403120B07AA82AB83120E32E9640111
:103313007003023517EE242C12351F123843700345
:10332300A3E069701C750800780812087778081202
:103333000877EE242E125C4912353B123A27120805
:10334300BB7409120B07E070030233F412353B120E
:103353005557120E868A088B09EA45097003023411
:10336300917404120B07E0F88E828F83A3A3E028E5
:10337300F8A3E03400F9E8240D1235268A828B8302
:10338300A3A3A3E068601CE88A828B83A3A3A3F0B2
:10339300908139120AE4850882850983A3A3A3A334
:1033A300120AF07904E9120B07125A402AF8A3E033
:1033B30034008882F583A3AA82AB831213A88A0CF4
:1033C3008B0D8C0E8D0F850882850983A3A3A3A380
:1033D300780C12080F4003023517908141780C12C4
:1033E30009C4850882850983A3A3A3A3780C120AC1
:1033F300C8900365E064046008E064096003023573
:1034030017E50AA2E540030234CFEE242E1235EC71
:10341300851882851983F0EE242F1235ECC0E074F1
:1034230001120B07D0E0F0EE24301235ECC0E0744B
:1034330002120B07D0E0F07414120B07E064017062
:1034430027740E120B07124382EE24121235EC6816
:103453007003A3E0697011740C120B07122F247010
:10346300077414120B07E4F0EE242412351F12061E
:10347300A67404120B07AC82AD837407120B07AA60
:1034830082AB83120BE674041208BB023517900358
:10349300AAE0640160030233F47420120B071235AF
:1034A300357009E50AA2E650030233F47410120BD7
:1034B30007E0F47003A3E0F4605AEEFCEFFD74033D
:1034C300120B07AA82AB83120CEE8048A2E650448B
:1034D3007420120B07125566701A741A120B07E048
:1034E300640270307403120B07AA82AB8379001253
:1034F3000DFC80207420120B0712352E7016741ADF
:10350300120B07E06404700C7403120B07AA82AB5E
:1035130083120DF67422025912EE240BF582EF1278
:10352300437722F582E912520CF822125C27E064F9
:1035330007221243A9640622EE242A12437412318D
:103543005A24121243742274F412038BEAFEEBFF23
:103553008C088D099005B3E0600F122F2A7003A326
:10356300E0697005120C58804F790012554A120C0D
:10357300888A828B83E58245836035A3A3A3A3A3B3
:10358300A3E05418602AE508241BF582E5091235E7
:10359300221206AA123C201235221206AAEE241881
:1035A300125C491235BD120C9A74041208BB8008D0
:1035B30079001235BD120C5E80278E828F83A3A300
:1035C300A3A3A3A3A3A3A312315A240BF582EF123F
:1035D30035D6223400F5831243D1FB22740312083B
:1035E300BB7F040205A5EE2417F582EF12520C22CD
:1035F30074F712038B74F7120935EAFEEBFF90039D
:1036030065E06403600DE064016008E06409600341
:103613000236BD8E828F83A3E0707E7C007D007AAC
:10362300027B00121BC4EE2402FAEF123F8D1243F9
:10363300829003561251F37953121BFA7900123612
:10364300C2E064096003123A5585188285198374B0
:10365300011251C99003657404F07401120B07AA97
:1036630082AB83794A121BF47401120B07AC82AD4F
:10367300837A5B7B03121BE2900356125A597A0337
:10368300123A5F900350E0A2E35004D2F08002C2EA
:10369300F01251B6122D10801E8E828F83A3AE823C
:1036A300AF83FC7D007A037B10121BC48E828F8351
:1036B300E0F91236C2E4F0120D18740902579A9019
:1036C30003631235DA120BF890036522C082C083BC
:1036D3009003341251A8701F900365E0146009240D
:1036E300FC600A14600C800F90033C803290033816
:1036F300802D90033A8028E8496008900335123AF8
:1037030007700C8A828B83A3E0F9120BEC801B9069
:103713000335123CBC7005120E50800E9003D2127A
:1037230051A8600612519A121DBB02472A74F41263
:10373300038B74FB1209358A088B097A0F7B0012FD
:1037430013BA8A0A8B0BAE0AAF0BEE4F7003023823
:10375300378E828F831257247950121BF485088287
:10376300850983A3E0600302381F900363E0F470CC
:1037730003A3E0F46034900363E064FE7003A3E00A
:10378300F460278518828519831238437003A3E0F8
:10379300696017850882850983A374EA123A3D7A22
:1037A300637B037950121BFA807285188285198313
:1037B300125C081251F37A567B037953121BF4906F
:1037C30003561252241251F37A597B03794B121B7D
:1037D300F47A587B0379E1121BF490036AE0C394F3
:1037E3000F5021900358E0C0E07402120B07D0E0A1
:1037F300F07404120B077401F004120B07AA82ABD6
:1038030083121C0C750A00780A120877780A1208CA
:1038130077900D0EE0F9123A1E1208BB85088285D7
:10382300098312383CA3F09003657403F0EEFAEFBA
:10383300FB1251DC74050235E1A3E08E828F8322F3
:10384300125C0CE068221248622274F512038B7436
:10385300D81209358A088B098A828B83A3A3A31202
:1038630043AE7415120B07AC82AD838A828B83A39C
:10387300A3A3A3A3A3A3A3123A0DFAA3E0FB120DE0
:103883001E7415120B07E0706B850882850983A3EC
:10389300A3A3A3A3A3A3A3E0C3940B40578E828F38
:1038A30083A3A3A3A3A3A3A3A3E064027046EE246C
:1038B3000B1235ECF4703D900365E06402603AE06E
:1038C300640660359003341251A86005123A07600C
:1038D3004F900365E064086005E064047016741794
:1038E300120B07E0F9741C120B07AC82AD8312555F
:1038F3004A120D2474280261269003341251A870D1
:103903001F75080078081208777808120877EE24E4
:103913001012351F125C61124075123A271208BB50
:103923008E828F831254C6123F9F124382740212F7
:103933000B071251F3EE240D1235ECC0E0740412A0
:103943000B07D0E0123A30F508A3E0F509740F78BD
:1039530008120AB97405120B07E508F07419120B63
:1039630007E0C0E07406120B07D0E0F0741B120BE3
:1039730007E0C0E07407120B07D0E0F07416120BD7
:1039830007E0C0E07409120B07D0E0F07417120BC4
:1039930007E0C0E07408120B07D0E0F0EE24101229
:1039A30035ECC0E0740A120B07D0E0F0741A120B66
:1039B30007E0C0E0740B120B07D0E0F07427120B82
:1039C30007E0C0E0740C120B07D0E0F0741C120B7C
:1039D30007A982AA8389088A09750A007808120848
:1039E3006F7C087D007410120B07AA82AB83124D03
:1039F300571208BB851882851983AA82AB83120BE1
:103A0300F20238F7123CC2640122E0F98A828B8306
:103A1300A3A3A3A3A3A3A3A3A3E022900363125A84
:103A23005D9003591235DA120DDE740222F0EE2492
:103A33000B1252092212520CFA22F07A567B0379A6
:103A430053123A4822121BFA7A597B03794B121B01
:103A5300FA229003631235DA120E80227B00121BC6
:103A6300C4900359125A5D7A047B00121BC422F0DE
:103A7300125C6C2274F212038B74F8120935EAFE9D
:103A8300EBFF8C0A8D0B890C851882851983AC8218
:103A9300AD837583807582E074081207CFF50DEE50
:103AA300FCEFFD851882851983AA82AB8312542704
:103AB3007003750D019003B1803BEEFCEFFDE5084B
:103AC300240BFAE5093400125426601E850882850A
:103AD3000983A3A3E0650C7011850882850983E03F
:103AE300650A7004A3E0650B6038E5082414F582C9
:103AF300E509123522123F97E50845096024E50DD3
:103B0300A2E040B6850882850983E0650A7004A3B4
:103B1300E0650B70D5850882850983A3A3E0650C56
:103B230070C8AA08AB097408022F40C082C08390F2
:103B330003B102472774F712038B9003B11243D1E9
:103B43008012EA2414F582EB1235221243AE1214CA
:103B53005CEEFAEFFBEA4B70E99003B1E4F0A3F0FB
:103B630002579D7F070205A574F112038BEAFEEB52
:103B7300FF890A8C088D098E828F83E08C828D8366
:103B830012463EAE82AF83E0124E17124D88C41226
:103B93004E17123C29E054038C828D83124D86A26A
:103BA300E2E4338C828D83124D85131313541F1259
:103BB3004E17124D84A2E7E4338C828D83A3A3A313
:103BC300A3123C298E0C8F0D750E00780C12086F12
:103BD3007C087D00E50824071259CC1208BB125A51
:103BE300378E0C8F0D780C12086F7C037D00E5086F
:103BF300240F1259CC1208BBE50AC3940F40148E4C
:103C0300828F83A3A3A3E0C0E0123C20123522D00D
:103C1300E08006123C20125E94F0023B66E5082425
:103C230012F582E50922A3A31246420EAF83227442
:103C3300F412038B74F9120935EAFEEBFF8908903D
:103C430003341251A8600E123CBC7009EEFAEFFB6C
:103C5300120E4A805F900363E06E7003A3E06F70FF
:103C6300537401650860097A777B03125427704403
:103C73007A007B021241E68B0BEA450B7036900308
:103C830066120AE4851882851983120AF090036C80
:103C9300E0C0E07404120B07D0E0F07405120B07C8
:103CA3007401F07406120B07125724120BBCE9605F
:103CB3009B120BC274070235E1123CC2640222124A
:103CC3005C28A3A3A3A3A3A3E02274F512038B8A06
:103CD300088B098A828B83A3AE82AF83E0F9120C2F
:103CE300108E828F83E064EB600C850882850983E4
:103CF300A3E064E17009850882850983A3E4F012D7
:103D03002D10750A01780A120877850882850983C0
:103D1300A3E0F50878081208777900123A1E120812
:103D2300BB120D30026129EAF0A3EBF002472A74BB
:103D3300F612038B9003B4E0701B7C0079017A00C8
:103D43007B00120D60EA4B600C8A828B831251A8B0
:103D53006003120CBE0251B1C082C0831241CE4037
:103D63001079FF120D5AE9F8902AFAE493C3985098
:103D73000479018002790002472A74F012038B8AC6
:103D8300088B09890B750C008A828B83A3A3A3A3D9
:103D9300A3A3A3A3E0F9120D668A0E8B0FAE0EAF99
:103DA3000F750A01EE4F6003023E5B8508828509A9
:103DB30083A3A3A3A3A3A3125A59850882850983C6
:103DC300A3A3A3A3A3A3A3124B57125557120D4E9C
:103DD3008A0C8B0DAE0CAF0DEE4F7003023F7E8E3F
:103DE300828F83A3A3A3A3E4F0A3F0E508240B121B
:103DF3003F8AE0C0E012351CD0E0F0120E26EE241C
:103E03000CF582EF12517CE508240EF582E50912C8
:103E1300437FEE240EF582EF1251F0750C01EE2470
:103E230006F8EF123F86547FF0A3E054FC125CBE09
:103E3300E054046003023EE1900CEC124B4874071B
:103E43007808120A368E828F83A3A3A3A3A3A3E0C9
:103E53004508F0A3E04509F08E828F83A3A3A3A3B3
:103E6300123F9574077808120AB9E5085407F50854
:103E7300E50B607A8E828F83A3A3A3A3A3A3A3A33B
:103E8300A37402124D89240D124857E0A2E2500B8D
:103E9300900351125224A3A31251F3E508700302B5
:103EA3003F53EE2406F8EF3400F9E8FAE9FB8A827F
:103EB3008B83E0547FFCA3E054FCFDE50824FFF56D
:103EC30008E434FFF50974077808120A36EC45084C
:103ED300F8ED4509F98A828B831251F380728E8241
:103EE3008F83A3A3A3A3A3A3E04480023E5AE508C0
:103EF3007005750A0080598E828F83A3A3A3A3A3A1
:103F0300A3E054206012121DB0EA547F245F8E8216
:103F13008F83A3A3A3A380238E828F83A3A3A3A3AF
:103F2300A3A3E05410600A121DB0EA540F240A80C0
:103F3300DD8E828F83A3A3A3A37401F0A3E4123FB6
:103F43009F74041241DD8B09EA4509700312516F16
:103F5300E50CA2E050288E828F83A3A3A3A312575C
:103F63008AF9EEFAEFFB120D54E9601212519E60CA
:103F730003124367EEFAEFFB12145C750A00A90AF9
:103F83000259151252E722FAE5093400FB8A828BA3
:103F93008322A3A3E0F508A3E0F50922123FA3229D
:103FA3001259E8A3A3A3A3A32274F412038B74F7F7
:103FB3001209357E00120D66EA4B700302406E8AC9
:103FC300828B83A3A3A3A3A3A3A3A3A3E0640660F9
:103FD3000302406E8A828B83A3A3A3A3A3A3A3E0BC
:103FE300FF8A828B8312486AE0C0E07408120B07D1
:103FF300D0E01243A212542D1251F3120D78EF5454
:10400300086066851882851983125A597A007B00E5
:10401300120D488B0BEA450B704F900363124492C9
:10402300121C247C007D007A007B0080288E828F06
:104033008312438CF47003A3E0F4602D90036312A6
:104043004075125557121918E9641A601C7C007DDB
:1040530000EEFAEFFB120D488A0A8B0BAE0AAF0B88
:10406300EE4F70C97900121C2A7E01EEF974090221
:1040730035E112407922E0FCA3E0FD8E828F83229A
:10408300C082C083EA4B70059003B580068A828B99
:1040930083A3A312429260258A828B83A3A3A3A343
:1040A300A3A3A3E0540860E5EC4D60158A828B83DB
:1040B30012438C6C7003A3E06D70D280047A007B92
:1040C3000002472A74F212038BEAFEEBFF890A8C83
:1040D300088D097A107B00121456EA4B603F8A82DE
:1040E3008B83A3A3A3A3A3A3A3A3A3E4124390A398
:1040F300E50A125C2EA312412A8A828B83A3A3A30F
:10410300A3E4F0A312439CA3F0125AC2EA240CF5D1
:1041130082EB12462E124123A3A3F0A3F0022F43F6
:10412300A3F08A828B8322A3A3E508F0A3E509F019
:104133002274F412038BEAFEEBFF89088C0A8D0BC1
:10414300EE4F60557401650870147901120D5AE938
:10415300F8902AFFE493C398500F7911806A74048E
:104163006508702F1241CE40F18E828F83A3A3A3E3
:10417300A3A3A3A3A3A3E50812463EA31261B38E90
:10418300828F83A3A3E4F0A3F09003B51251A86038
:1041930021800D7402650860D079C1802BE0F8A3FB
:1041A30012521DA3A312429288828983A3A370EDA6
:1041B30080039003B5EEF0A3EF1241DD8B0BEA45CC
:1041C3000B700312516F79000235E47904120D5A12
:1041D300E9F8902B06E493C39822F01241E2227A85
:1041E300207B009003B0E0F912152222C082C08325
:1041F300E9F879009003B5801D8A828B83A3A3A37A
:10420300A3A3A3A3A3A3E068600574FF68700109D7
:104213008A828B83A3A312429270DE02472A74F729
:1042230012038BEA4B70059003B580068A828B8359
:10423300A3A312429260248A828B83A3A3A3A3A382
:10424300A3A3A3A3E06970E4EC60148A828B83E0E8
:10425300240D125A4AA2E240D380047A007B000262
:10426300579DC082C0839003B580068A828B83A347
:10427300A312429260128A828B83A3A3A3A3A3A354
:10428300A3A3E06970E580047A007B0002472A1249
:1042930035DAEA4B2274F212038B8A0A8B0B8C0CED
:1042A3008D0D750800750900EA450B602E9003B566
:1042B30080068E828F83A3A31242E5601EAC0CADF1
:1042C3000DEEFAEFFB850A82850B83121DBBE964B1
:1042D3000170DFEEF8EFF988088909AA08AB090233
:1042E3002F43E0FEA3E0FFEE4F2274F712038B90FF
:1042F30003B51243827C007D00800DE8FCE9FD8854
:10430300828983A3A3124382E8496030EA6870027A
:10431300EB6970E79003B5125557E86A7002E96BD1
:1043230088828983A3A370081243829003B580090E
:104333001243828C828D83A3A31251F302579D747F
:10434300F712038BEAFEEBFFEE4F6015120D7212AC
:1043530043B412519E6003124367EEFAEFFB12144B
:104363005C02579DEE240C1243741243C922EE24BF
:104373001DF582EF3400F58322F582EF12437712A5
:10438300472122F582EF1243771243A92212439465
:1043930022125C36A3A3A3A322124394A3A3221243
:1043A30041241243A922125C21E022E0FEA3E0FF94
:1043B300228E828F83E0241C12485B1243C98E82B3
:1043C3008F831243C9221243D1FB12145C22E0FAF9
:1043D300A3E022C082C083EAFCEBFDEC4D700479BC
:1043E300058044EC24FBF582ED34FF1251A67007DF
:1043F30012442DE0F460051213C080E39003B0E093
:10440300C0E012442DD0E0F0902AFCE493F97AB78F
:104413007B031213EAE96401700B7A007B201251CB
:104423007379008002790402472AEC24FFF582EDB8
:1044330034FFF5832274F412038BA2AFE433F5083F
:10444300C2AF9003B71242E56038EE24FBF582EF6A
:1044530034FF1251A67A007B209003B060051251FD
:10446300768005E0F91213F6E4F50AF50B780A12E3
:104473000873EEFCEFFD7AB77B031213E4740212A8
:1044830008BBE508A2E092AFEEFAEFFB0235E412B7
:104493005A5D851882851983AA82AB832274F2122E
:1044A300038B74FC120935EAFEEBFF750AFE750BEC
:1044B300FF120D36E960057911024623EE24151229
:1044C30035EC6037900D00E0C43354E0F8E033334B
:1044D30054FC48C0E0EE241512351FD0E012463ECE
:1044E3001246348B09EA45096011750AFFEE240F61
:1044F3001235EC4404125201D2E0F08E828F831203
:104503002F086006EE241212462BEE24131235EC0C
:104513007010902B02E493C0E0EE241312351FD0E9
:10452300E0F08E828F83E0A2E750045403801CEEF8
:1045330024141235EC7015900342E0C0E0EE24140D
:1045430012351FD0E0F0900342E004F0EE24111284
:1045530035EC640170169005AAE0600D90034DE000
:10456300700A8E828F83E070031246288E828F83B7
:10457300E064017013EE240B12438664027009EEAB
:10458300240F1235EC4440F0851882851983AC82E0
:10459300AD83EEFAEFFB120D9C8A088B0974FE655E
:1045A3000A700374FFF470098E828F83A3A31259D8
:1045B300D8EA450960668E828F83E0C0E0740112F9
:1045C3000B07D0E0F07402120B07125AC6740112E3
:1045D3000B0785820C85830D780C120873EE240F6C
:1045E30012351F1206AAEE240E1235ECF50C780CC8
:1045F3001208779003561206AA7407120B07E0F904
:10460300AC0AAD0B120D9674071208BBE9FE7410C9
:104613006E700BAA08AB0912145C80027E10EEF9CF
:104623007404022F40EE2411F582EF124377E4F075
:1046330022A31235DA79FF121CF02212464222F02D
:104643008E828F83A322C082C08374DE1209358ACF
:10465300828B83A3A3A3A3124382740E120B07E8D6
:10466300F0A3E9124718740C120B07124711240D1B
:10467300F582EB1235EFC0E0741A120B07D0E0F0AD
:10468300125925EB12437F7420120B071247112492
:1046930015F582EB1235EFC0E07408120B07D0E07A
:1046A300F0EA241CF582EB12437F7412120B0712FB
:1046B30047112411F582EB1235EFC0E07409120B98
:1046C30007D0E012470574FFF07401120B0774FF63
:1046D300F07402120B0774FFF09081391206A6746E
:1046E30004120B07AC82AD837407120B07AA82ABCB
:1046F30083120BE674041208BB790074221208BB00
:10470300802512470922F085188285198322E8F053
:10471300A3E9F0EA22124124A312472022A3E0F8DE
:10472300A3E0F922125557D083D08202085374ECC8
:1047330012038B74EE1209358A128B13ECFEEDFF14
:1047430089097426120B071259D87428120B07E033
:10475300F5107429120B0712484C742B120B07E047
:10476300F50EA3E0F50F7508107A1E7B00121456A0
:104773007402120B071251807402120B071251A814
:104783007003024845851882851983AA82AB837911
:104793005012505B1255577402120B0712486AA34A
:1047A3001251807410120B071261B57402120B07B9
:1047B300E0240B1248577402F0120B0712486A7474
:1047C30002F0120B07125C19125AC67402120B077D
:1047D30012556CE509F07402120B07E0240C124821
:1047E30057E510F07402120B07124854E512F0A3B8
:1047F300E513F07408120B07E50CF0A3E50DF07454
:104803000A120B07E510F0850E82850F83C082C064
:1048130083740D120B07AC82AD83D083D0827403F3
:104823001207CFF97402120B07AA82AB83120D3C55
:10483300E96401700575080080087402120B071201
:10484300436DA90874120259EFE0F50CA3E0F50DCE
:1048530022E0241C12485B22F8A3E01248622234AF
:1048630000F9888289832212555FA3A3A3A3A322FD
:1048730074EE12038BEAFEEBFF8C088D098E828F98
:1048830083A3740812523CE060088E828F83A37462
:1048930010F01235E960098E828F83A3E02408F0BB
:1048A300EE24151235EC60088E828F83A3E004F0AA
:1048B3008E828F83A3A3A3A3A3A3E060198E828F09
:1048C30083A3A3A3A3A3A3A3E0C3332402F88E82E9
:1048D3008F83A3E028F0EE24111235EC6005750BED
:1048E3000E8003750B008E828F83A3C082C083EE7C
:1048F300240D1235ECD083D082F8E028250B8C826E
:104903008D83F0EE24111235EC6005124D6728F00B
:10491300850882850983E0C394754009750800758D
:104923000900024A55E0FA7B00125B747003024AE5
:1049330055EEFAEFFB120DA2EA8508828509831270
:104943005181EE2402F8EF123849124B4F124A916B
:10495300F0EE24040808EF123849124F91A3124ACB
:1049630091A3A3F0EE2413124A77F0EE2414124A13
:1049730077A3F0750A08EE24161235EC6010EE24C6
:1049830018125A56E5082408125C57750A10123596
:10499300E96016EE241A125A56850A0CE508250C0E
:1049A300125C577408250AF50A8E828F83A3A3A38A
:1049B300A3A3A3E06059EE2407F510EF3400F5112B
:1049C300851082F583E0C0E0124A5E123522D0E002
:1049D300124A81E0C0E0124A5E123522D0E0124A48
:1049E30081A3124A6A12086F851082851183E0C37E
:1049F30033FCE433FD850A0CE508250C1259CC126F
:104A030008BB851082851183E0C333250AF50AEEBE
:104A130024151235EC600BC0E0124A5E123522D029
:104A2300E0F012351C124A6A12086FEE240D12359B
:104A3300ECFC7D00850B0A8E828F83A3E0F8E508EA
:104A430028F8E5093400F9E8250AFAE91259CF12E2
:104A530008BBAA08AB097F0A0205A5850A0CE5086D
:104A6300250CF582E50922E0F50CA3E0F50D750EA2
:104A730000780C22124374124A9BA3A3A322F005CD
:104A83000A8E828F83A3A3A3A3A3A3A3A322A3A377
:104A9300125CC2A3124A9B22124F95A3A32274F65F
:104AA30012038B8A828B83E0FC900353124B48746E
:104AB300027808120A36EC4508FCAD09EA24121202
:104AC3004B4274067808120A36EC4508FCED45099A
:104AD300FDEA2415F582EB1235EF600478018002BC
:104AE3007800E4C8F9ED49FDEA2411F582EB1235AB
:104AF300EFF508880974097808120A36ED4509FDAF
:104B0300EA2416124B42740B7808120A36ED450953
:104B1300FDEA2417124B42740C7808120A36ED454D
:104B230009FD8A828B83A3A3A3A3A3A3124B487477
:104B33000A7808120A36ECFAED4509FB0251B1F581
:104B430082EB124377E0F50875090022E0850882BD
:104B530085098322A3E0F98508828509832274EEFF
:104B630012038B8A0A8B0BECFEEDFF750F01E9C371
:104B7300940850057900024D548E828F83E9F01218
:104B83004FBAE96003750F00124F9E8E828F831216
:104B93004FE8EE125926EF124FDDC0E0EE2411125A
:104BA300351FD0E0124FD5C0E0EE241212351FD0CE
:104BB300E012463E74081259E0A3A3A3E060151265
:104BC3004F86EE2413F582EF1251F08E828F83A36A
:104BD300E02408F08E828F83A3A3A3A3A3A3A3A39C
:104BE300E060218E828F83A3858208858309124F1B
:104BF300C9EE2415F582EF1251F0850882850983E9
:104C0300E02408F08E828F83A3A3A3A3A3E0601AFA
:104C13008E828F83A3858208858309124FAD8E828E
:104C23008F83A3A3A3A3A3124D79EE241912462BBA
:104C3300EE241B12462BA3125234E07003024CE8FD
:104C4300EE2419F8EF3400F98E828F83A38582084E
:104C5300858309E0FAE50A2AF582E50B1235EF8828
:104C6300828983124D79FAE50A2AF582E50B12351A
:104C7300EFC0E0EE241A12351FD0E0124D7988827E
:104C83008983E06059F8902AFBE493C39850057533
:104C9300110C8008EE24191235ECF5118E828F83E6
:104CA300A3E0F8E50A28F50CE50B124D5D12086F39
:104CB300E511C333FCE433FD7A8B7B0B124D5712A2
:104CC30008BBEE241B12351F748BF0A3740BF0E5A5
:104CD30011C333F8850882850983E0288006EE2412
:104CE30018125E91F08E828F83A3E0F88E828F83F9
:104CF300E0C3985003024B77A3E0FA8A08E50A253C
:104D030008F8E50B3400F9EE241DF582EF1252FC8E
:104D1300124D89C39AC0E0EE241712351FD0E0125A
:104D230051F9602BEE2417F8EF3400F9880889094C
:104D33008882F583E024F21252DD240EFAA3E034D4
:104D430000FB88828983125180124D67C398F0A9B2
:104D53000F024A591213907403223400F50D750E95
:104D630000780C2290034EE0F9120B26E9F885082F
:104D730082850983E022F0850882850983E004F0B7
:104D830022A3A3A3A3A3F08E828F83E02274F41241
:104D9300038B8A088B09EA124E1EF0EA1313543F61
:104DA300124E17A3A3A3F0EAC41313124E1EA3A318
:104DB300F0EB124E10124E287409780A120AB91237
:104DC3004E0E124E27740A780A120AB9E50A5401E4
:104DD300C0E0EC2418F582ED123522D0E0124E2DFE
:104DE300740B780A120AB9124E0EA3124E27740CD2
:104DF300780A120AB9124E0EA3A3A3A3A3A3A3A3D3
:104E0300F0740D7808120AB902314EE50A54018C88
:104E1300828D8322540F8C828D832254038C828D46
:104E230083A3A322A3A3A3A3A3A3F08A0A8B0B2286
:104E3300C082C08379008A828B83A3A3A3A3A3A385
:104E4300E090034D600FE070228A828B83A3A3E07E
:104E53007019098016E060138A828B8312554E9075
:104E63000356E06A7003A3E06B70E702472A74F00D
:104E730012038B8A0A8B0B890C8C088D09124FBA8B
:104E8300124F9E850882850983124FE8E50812595F
:104E930026E509124FDDC0E0E5082411F582E50996
:104EA300123522D0E0124FD5C0E0123C2012352239
:104EB300D0E0125304740812531D6011124F86E59B
:104EC3000824131252F8125304E02408F0850882D0
:104ED300850983A3A3A3A3A3A3A3A3E060178508C2
:104EE30082850983A3124FC5E50824151252F812CF
:104EF3004D892408F0850882850983A3A3A3A3A36E
:104F0300E06019850882850983A3AE82AF83124FBF
:104F1300AD850882850983124D8404F0AA08AB0984
:104F2300120DB4E9F50D7056850882850983A3A394
:104F3300A3A3A3A3124F917014E0FA8A0EE50A25E6
:104F43000EF8E50B1251E5E50CC39A8021124FC50B
:104F5300E8240EF8E91251E590034EE0F9120B260E
:104F63008E828F83E0F8E50CC39824F2C399C0E0E6
:104F7300E5082417F582E509123522D0E0F0A90DE2
:104F8300025915E50A2408F8E50B3400F922124FFB
:104F93009522E0850882850983A322850A82850BF1
:104FA30083A3A3124FFEE0F9EA22E0F8E50A28F50D
:104FB30082E50B12520C228A828B8312591A120D2C
:104FC300AE22AE82AF83E0F8E50A28F8E50B3400A1
:104FD300F922125011A3A3A3E022124377E812503F
:104FE3000AA3A3E022A3A3A3A3A3A3A3A3A312504F
:104FF3000A124FFEA3A3E0F9EAF822E0FA850A8237
:10500300850B83A3A3A322F0A3E912501122F085F9
:105013000A82850B83A3A3A3A322C082C0837AC57C
:105023007B0379E2121BF47AC57B0302472AC08211
:10503300C083900356024727C082C08374FE1209BF
:1050430035851882851983AA82AB83794B12505B0D
:105053001255577402024700121BF48518828519F2
:105063008322C082C083794A121BF402472A74F652
:1050730012038B9003CDE0FE04F0EEF9120D668B64
:1050830009EA450970EDEE60EAF90251B174F012D4
:10509300038BEAFEEBFF8C088D09890A7410120B4F
:1050A30007E0F50B7411120B07E0F50C120E86EAFC
:1050B3004B7013E50C7042A90AAC08AD09EEFAEF88
:1050C300FB120E9E806EE50A6021EA2402F582EB54
:1050D3001235EF850A082508F8E4340013E813F0C5
:1050E30070098A828B83A3A37401F0E50C6045E504
:1050F3000B70068A828B83E4F07401650C7035E5CE
:105103000B9003D47004E4F0802AE004F0900CEDDB
:10511300E0F89003D4E0C398401AE4F0900359E018
:105123006E7003A3E06F700CEEFAEFFB7901120CC3
:105133000A12513A0259157A017B009003B0E0F943
:1051430012151C22C082C08374016A7001EB7007C0
:105153007A011251718012900CE4125180EA4B6073
:1051630005122ECA800312513A02472A7A207B0085
:105173009003B0E0F91213F0223400F583EAF0A3B0
:10518300EBF022C082C083900CE6023D2AC082C0AD
:1051930083900CE8023D2A125C2822EE240CF5824F
:1051A300EF3400F583124721E849221208BB7F023E
:1051B3000205A5A2F0E4338518828519831251D222
:1051C3007952121BFA221251D27942121BFA22F09F
:1051D300AA82AB8322AA08AB099003B0E0F91213A9
:1051E300C6223400F9E508241DF582E50912437748
:1051F300E8F0A3E9F0221259E4A3A3E022A3F0EE1E
:10520300241512520922F582EF3400F583E02212AD
:105213005216223400F583E0F8A3E0F988828983EB
:1052230022E0F812522A22A3E0F98E828F83A3A3ED
:1052330022F0EE241812437422F0EE241612437463
:105243002274F412038BEAFEEBFF7A007B04125103
:105253003E1252D31251F39003657409F0120DC03C
:105263008A088B09AC08AD09EE241312351F1255B9
:1052730057125427640170487A0F1252C660418A4C
:10528300828B8374021252DDFAA3E0FB8A828B8342
:10529300A3E0FC8A828B83A3A3E0FBEC85088285D1
:1052A3000983A3A31251818882898312555B124B10
:1052B3004F125200FAA3E0FB794A121BFA1251D89B
:1052C3000235E47B001213BA8A088B09EA450922E6
:1052D300900336124721900CE822F0EE241DF8EFDC
:1052E3001252E722124862E0221252F0223400F5F1
:1052F300837401F022F582E509124377E8F0A3E90C
:10530300221253082212530C22F085088285098346
:10531300A32212530CA3A3A3A322125315A3A3E006
:105323002212572E120E1422EE2417F582EF125278
:10533300F0120DC0EE241A124374EAF0A3EBF0222C
:1053430074F412038B74F31209358908EAFEEBFF38
:105353007C0D7D007900851882851983AA82AB8331
:1053630012139CEE241D12351F125C19A3E0F8746E
:105373001F58600A7901121BCA790002541EE8A261
:10538300E55008740C120B077401F0E8A2E750080B
:10539300740B120B077401F0E8A2E6740A500812AA
:1053A3000B077401F08008120B07E064017005EE2F
:1053B30024138003EE2415125A567402120B07AA03
:1053C30082AB83121BE212351C12542C1251F3745C
:1053D3000A120B07E064017033122EFD703B120DAD
:1053E300CC8A0A8B0BA80AA90BEE240B1235EC68A6
:1053F3007003A3E0697022120DC0EAFCEBFD740296
:10540300120B07AA82AB83125427600D851882857D
:105413001983AA82AB83120C04A908740D0235E127
:10542300EEFAEFFB121BDCE922E012543122F8A35F
:10543300E0F98518828519832274F612038B74F3BD
:105443001209358A088B09ECFEEDFF7C0D7D00798E
:1054530000851882851983AA82AB83125DBEA3A33C
:10546300A3A3A3A3A3A3A31254C61254CFF8A2E5E4
:105473005008740B120B077401F0E8A2E75008748C
:105483000A120B077401F0E8A2E6EE50042413801D
:10549300022415125A567402120B071254B8A3A30E
:1054A300E0C0E0740C120B07D0E0125726120BFE7B
:1054B300740D0251AEAA82AB83121BE2850882856A
:1054C300098322E0125431E8F0A3E922F012437178
:1054D300125C1DA3E02274F712038B74E1120935E9
:1054E300EAFEEBFF8E828F8312555BA3A3A3E0A298
:1054F300E050518E828F8312305D8A828B83A3A307
:10550300A3A3A3A3E054FE1255738A828B8312557F
:105513006CE0F98A828B83E0241CFAA3E0123F8DAE
:10552300125557120DBAE9701B741D120B07125551
:10553300667011851882851983AC82AD83EEFAEF0C
:10554300FB120E020257988E828F83A3A3A3A3A3F9
:10555300A3A3A3A31235DA2212555F22125C21A35F
:10556300A3A3221243A9640422E0241B12485B2252
:10557300124709AC82AD8322E9F8790074046860AC
:105583000A740A6860057403687001090208537499
:10559300F612038B8A828B837420F0A3A37401F029
:1055A300120BB08A088B09AE08AF09EE4F60108E5C
:1055B300828F837401F09003A3E0700312532BEEE8
:1055C300FAEFFB0251B1C082C0839003B97401F0BA
:1055D300E9A2E350037403F0E9A2E15004E0D2E24C
:1055E300F002472A74F612038B79007C008A088B39
:1055F3000978081205EBF8FF071A561856185618BB
:10560300561856115615561A560E560C80097C0418
:1056130080050C80F67C089003B9E05C6003098088
:1056230003EC6001090251B174F612038B8A828B79
:1056330083E07012A31251A8600C8A828B831255E7
:1056430056121D1A80047A007B000251B174F512C0
:10565300038B74F31209358A088B09ECFEEDFF7591
:105663000A12EA45097005790002571F900356E0B4
:1056730065087004A3E065097014120DC0EAFCEB21
:10568300FD1254237005750A018003750A008518FD
:1056930082851983E4F004120B07E508F0A3E509FA
:1056A300125726120B74E960277403120B07AA82A0
:1056B300AB83120B56E964017016750A0174031269
:1056C3000B07AC82AD831254236021750A00801C42
:1056D3007412650A70169003A2E06402700EEEFC69
:1056E300EFFDAA08AB09120B8CE970DFEEFCEFFDAE
:1056F300AA08AB09120E8CE9F8740A687005750ADA
:1057030001801774A0687012EEFCEFFDAA08AB09C4
:10571300120E98AA08AB09120EAAA90A740D026107
:1057230026740212572A2212572E22124709AA82DE
:10573300AB832274F712038BEAFEEBFF8E828F8317
:10574300A3A3A3A3A3A3A3A3E06015EE241512357B
:105753001F1235CA120E2CE96401700479018025E9
:105763008E828F83A3A3A3A3A3A3A3E06015EE2438
:105773001312351F12578AFAA3E0FB120E2CE964A9
:105783000160D979008013124079A3A3A3A3A3A333
:10579300A3A3A3E022741F1208BB7F010205A57413
:1057A300F012038B74FD1209358A088B09ECFEEDA8
:1057B300FF890B7413120B07E0F50C750A017401D2
:1057C300120B077404125C516048E50C601DEA2457
:1057D30017F582EB125E94125C3F8A828B83E0D2D0
:1057E300E7F0EA2414F582EB12462E125925EB1248
:1057F300521274031261B7EE88828983A3A3F0EF78
:1058030088828983A3A312412312412A120BAAE996
:10581300F50AA90A740302591274EC12038B74F586
:105823001209358A0A8B0B890C8C0E8D0F741F128B
:105833000B07E0F50D7420120B07E0F510A3E0F55C
:10584300117E01EE120B07740AF0E97007E50DC330
:1058530033240AF01259F770030258F9125A0C74E0
:1058630009F0A3E50CC43354E0450D125A1EE50CB0
:10587300702D7C008023ECC333F8E433F9E5102862
:10588300F8E51139F9888289831259068882898358
:1058930012383CF0A30EAF830CECC3950D40D7E553
:1058A300082417F582E5091252EC120DC0E508240D
:1058B3001AF582E50912517C7403120B07AC82AD11
:1058C30083AA0AAB0B120B5CE96019E5082416F5F1
:1058D30082E509125900120B07A882A983E508245F
:1058E300181251EC8508828509831261B3AA08ABAB
:1058F30009120BAAE9FEEEF9740B0259EF1252F0EA
:10590300740322E08E828F83F0A3AE82AF832212D0
:1059130008BB7F080205A51243D1F9EA2400E43944
:10592300FB22EA240BF5822274EE12038B8A0C8B82
:105933000D890E8C088D097412120B07E0F50F7494
:1059430013120B071259D89005191251A86077E565
:105953000FC333F8E433F9E8240EFAE93400FB12F9
:1059630013BA8A108B11AE10AF11EE4F60588E82AE
:105973008F8374D4F0A3A3E50CF0A3E50D1259E0D3
:10598300E50EF0AC08AD09EE2405FAEF125C5AEE11
:10599300240D12351FE50FF0850A08850B09750ADA
:1059A30000780812086FE50FC333FCE433FDEE24DF
:1059B3000EFAEF1259CF1208BBEEFAEFFB9005195E
:1059C300125C19121DBB024A59FAE5093400FB1295
:1059D3001390740322E0F50AA3E0F50B221259E4B5
:1059E300221259E822124642A3A3A3221208BB7F24
:1059F3000C0205A5851882851983AA82AB83120E32
:105A0300148A088B09EA450922EA240BF582EB1272
:105A1300520CFEA3E0FF8E828F8322F0A3AE82AFEF
:105A230083AC0EAD0FEEFAEFFB125A3022121BE2DB
:105A3300125A3722EE2408FEEF3400FF22E0FA8EDA
:105A4300828F83A3A3E022FEA3E03400FF8E828F24
:105A530083E022124374125A5D22E0FCA3E0FD228C
:105A63001235DA120DA82274F612038BEAFEEBFF4D
:105A73009003BA801388828983E06E7003A3E06F7A
:105A8300603A88828983A3A31251A870E87A047BC1
:105A9300001214568A088B09A808A909E849601C52
:105AA30088828983125AC69003BA1255578882890D
:105AB30083A3A31251809003BA1251F30251B18A06
:105AC300828B83EEF0A3EFF02274F412038B7E003B
:105AD3009003BA80070E88828983A3A31251A8700A
:105AE300F4EEC333FAE433FB125B74607E7F009001
:105AF30003BA802488828983125A59EFC333FAE4A4
:105B030033FBE5082AF582E5093BF583ECF0A3EDC9
:105B1300F00F88828983A3A31251A870D79003AB97
:105B2300122F377003A3E06978087019120873EE17
